{"abi":[{"inputs":[{"internalType":"uint256","name":"mincontri","type":"uint256"},{"internalType":"address","name":"creator","type":"address"}],"stateMutability":"nonpayable","type":"constructor"},{"inputs":[{"internalType":"uint256","name":"index","type":"uint256"}],"name":"approve_request","outputs":[],"stateMutability":"nonpayable","type":"function"},{"inputs":[],"name":"contribute","outputs":[],"stateMutability":"payable","type":"function"},{"inputs":[{"internalType":"address","name":"","type":"address"}],"name":"contributors","outputs":[{"internalType":"bool","name":"","type":"bool"}],"stateMutability":"view","type":"function"},{"inputs":[],"name":"contributorscount","outputs":[{"internalType":"uint256","name":"","type":"uint256"}],"stateMutability":"view","type":"function"},{"inputs":[{"internalType":"string","name":"description","type":"string"},{"internalType":"uint256","name":"value","type":"uint256"},{"internalType":"address","name":"recepient","type":"address"}],"name":"create_request","outputs":[],"stateMutability":"nonpayable","type":"function"},{"inputs":[{"internalType":"uint256","name":"index","type":"uint256"}],"name":"finalize_request","outputs":[],"stateMutability":"nonpayable","type":"function"},{"inputs":[],"name":"getrequestscount","outputs":[{"internalType":"uint256","name":"","type":"uint256"}],"stateMutability":"view","type":"function"},{"inputs":[],"name":"getsummary","outputs":[{"internalType":"uint256","name":"","type":"uint256"},{"internalType":"uint256","name":"","type":"uint256"},{"internalType":"uint256","name":"","type":"uint256"},{"internalType":"uint256","name":"","type":"uint256"},{"internalType":"address","name":"","type":"address"}],"stateMutability":"view","type":"function"},{"inputs":[],"name":"manager","outputs":[{"internalType":"address","name":"","type":"address"}],"stateMutability":"view","type":"function"},{"inputs":[],"name":"mincontribution","outputs":[{"internalType":"uint256","name":"","type":"uint256"}],"stateMutability":"view","type":"function"},{"inputs":[{"internalType":"uint256","name":"","type":"uint256"}],"name":"requests","outputs":[{"internalType":"string","name":"description","type":"string"},{"internalType":"uint256","name":"value","type":"uint256"},{"internalType":"address","name":"recepient","type":"address"},{"internalType":"bool","name":"status","type":"bool"},{"internalType":"uint256","name":"approvercount","type":"uint256"}],"stateMutability":"view","type":"function"}],"devdoc":{"kind":"dev","methods":{},"version":1},"evm":{"assembly":"    /* \"Campaign.sol\":505:3668  contract Campaign {... */\n  mstore(0x40, 0x80)\n    /* \"Campaign.sol\":1261:1455  constructor( uint mincontri, address creator) {... */\n  callvalue\n  dup1\n  iszero\n  tag_1\n  jumpi\n  0x00\n  dup1\n  revert\ntag_1:\n  pop\n  mload(0x40)\n  sub(codesize, bytecodeSize)\n  dup1\n  bytecodeSize\n  dup4\n  codecopy\n  dup2\n  dup2\n  add\n  0x40\n  mstore\n  dup2\n  add\n  swap1\n  tag_2\n  swap2\n  swap1\n  tag_3\n  jump\t// in\ntag_2:\n    /* \"Campaign.sol\":1332:1339  creator */\n  dup1\n    /* \"Campaign.sol\":1322:1329  manager */\n  0x00\n  dup1\n    /* \"Campaign.sol\":1322:1339  manager = creator */\n  0x0100\n  exp\n  dup2\n  sload\n  dup2\n  0xffffffffffffffffffffffffffffffffffffffff\n  mul\n  not\n  and\n  swap1\n  dup4\n  0xffffffffffffffffffffffffffffffffffffffff\n  and\n  mul\n  or\n  swap1\n  sstore\n  pop\n    /* \"Campaign.sol\":1372:1381  mincontri */\n  dup2\n    /* \"Campaign.sol\":1354:1369  mincontribution */\n  0x01\n    /* \"Campaign.sol\":1354:1381  mincontribution = mincontri */\n  dup2\n  swap1\n  sstore\n  pop\n    /* \"Campaign.sol\":1261:1455  constructor( uint mincontri, address creator) {... */\n  pop\n  pop\n    /* \"Campaign.sol\":505:3668  contract Campaign {... */\n  jump(tag_6)\n    /* \"#utility.yul\":88:205   */\ntag_8:\n    /* \"#utility.yul\":197:198   */\n  0x00\n    /* \"#utility.yul\":194:195   */\n  dup1\n    /* \"#utility.yul\":187:199   */\n  revert\n    /* \"#utility.yul\":334:411   */\ntag_10:\n    /* \"#utility.yul\":371:378   */\n  0x00\n    /* \"#utility.yul\":400:405   */\n  dup2\n    /* \"#utility.yul\":389:405   */\n  swap1\n  pop\n    /* \"#utility.yul\":334:411   */\n  swap2\n  swap1\n  pop\n  jump\t// out\n    /* \"#utility.yul\":417:539   */\ntag_11:\n    /* \"#utility.yul\":490:514   */\n  tag_23\n    /* \"#utility.yul\":508:513   */\n  dup2\n    /* \"#utility.yul\":490:514   */\n  tag_10\n  jump\t// in\ntag_23:\n    /* \"#utility.yul\":483:488   */\n  dup2\n    /* \"#utility.yul\":480:515   */\n  eq\n    /* \"#utility.yul\":470:533   */\n  tag_24\n  jumpi\n    /* \"#utility.yul\":529:530   */\n  0x00\n    /* \"#utility.yul\":526:527   */\n  dup1\n    /* \"#utility.yul\":519:531   */\n  revert\n    /* \"#utility.yul\":470:533   */\ntag_24:\n    /* \"#utility.yul\":417:539   */\n  pop\n  jump\t// out\n    /* \"#utility.yul\":545:688   */\ntag_12:\n    /* \"#utility.yul\":602:607   */\n  0x00\n    /* \"#utility.yul\":633:639   */\n  dup2\n    /* \"#utility.yul\":627:640   */\n  mload\n    /* \"#utility.yul\":618:640   */\n  swap1\n  pop\n    /* \"#utility.yul\":649:682   */\n  tag_26\n    /* \"#utility.yul\":676:681   */\n  dup2\n    /* \"#utility.yul\":649:682   */\n  tag_11\n  jump\t// in\ntag_26:\n    /* \"#utility.yul\":545:688   */\n  swap3\n  swap2\n  pop\n  pop\n  jump\t// out\n    /* \"#utility.yul\":694:820   */\ntag_13:\n    /* \"#utility.yul\":731:738   */\n  0x00\n    /* \"#utility.yul\":771:813   */\n  0xffffffffffffffffffffffffffffffffffffffff\n    /* \"#utility.yul\":764:769   */\n  dup3\n    /* \"#utility.yul\":760:814   */\n  and\n    /* \"#utility.yul\":749:814   */\n  swap1\n  pop\n    /* \"#utility.yul\":694:820   */\n  swap2\n  swap1\n  pop\n  jump\t// out\n    /* \"#utility.yul\":826:922   */\ntag_14:\n    /* \"#utility.yul\":863:870   */\n  0x00\n    /* \"#utility.yul\":892:916   */\n  tag_29\n    /* \"#utility.yul\":910:915   */\n  dup3\n    /* \"#utility.yul\":892:916   */\n  tag_13\n  jump\t// in\ntag_29:\n    /* \"#utility.yul\":881:916   */\n  swap1\n  pop\n    /* \"#utility.yul\":826:922   */\n  swap2\n  swap1\n  pop\n  jump\t// out\n    /* \"#utility.yul\":928:1050   */\ntag_15:\n    /* \"#utility.yul\":1001:1025   */\n  tag_31\n    /* \"#utility.yul\":1019:1024   */\n  dup2\n    /* \"#utility.yul\":1001:1025   */\n  tag_14\n  jump\t// in\ntag_31:\n    /* \"#utility.yul\":994:999   */\n  dup2\n    /* \"#utility.yul\":991:1026   */\n  eq\n    /* \"#utility.yul\":981:1044   */\n  tag_32\n  jumpi\n    /* \"#utility.yul\":1040:1041   */\n  0x00\n    /* \"#utility.yul\":1037:1038   */\n  dup1\n    /* \"#utility.yul\":1030:1042   */\n  revert\n    /* \"#utility.yul\":981:1044   */\ntag_32:\n    /* \"#utility.yul\":928:1050   */\n  pop\n  jump\t// out\n    /* \"#utility.yul\":1056:1199   */\ntag_16:\n    /* \"#utility.yul\":1113:1118   */\n  0x00\n    /* \"#utility.yul\":1144:1150   */\n  dup2\n    /* \"#utility.yul\":1138:1151   */\n  mload\n    /* \"#utility.yul\":1129:1151   */\n  swap1\n  pop\n    /* \"#utility.yul\":1160:1193   */\n  tag_34\n    /* \"#utility.yul\":1187:1192   */\n  dup2\n    /* \"#utility.yul\":1160:1193   */\n  tag_15\n  jump\t// in\ntag_34:\n    /* \"#utility.yul\":1056:1199   */\n  swap3\n  swap2\n  pop\n  pop\n  jump\t// out\n    /* \"#utility.yul\":1205:1712   */\ntag_3:\n    /* \"#utility.yul\":1284:1290   */\n  0x00\n    /* \"#utility.yul\":1292:1298   */\n  dup1\n    /* \"#utility.yul\":1341:1343   */\n  0x40\n    /* \"#utility.yul\":1329:1338   */\n  dup4\n    /* \"#utility.yul\":1320:1327   */\n  dup6\n    /* \"#utility.yul\":1316:1339   */\n  sub\n    /* \"#utility.yul\":1312:1344   */\n  slt\n    /* \"#utility.yul\":1309:1428   */\n  iszero\n  tag_36\n  jumpi\n    /* \"#utility.yul\":1347:1426   */\n  tag_37\n  tag_8\n  jump\t// in\ntag_37:\n    /* \"#utility.yul\":1309:1428   */\ntag_36:\n    /* \"#utility.yul\":1467:1468   */\n  0x00\n    /* \"#utility.yul\":1492:1556   */\n  tag_38\n    /* \"#utility.yul\":1548:1555   */\n  dup6\n    /* \"#utility.yul\":1539:1545   */\n  dup3\n    /* \"#utility.yul\":1528:1537   */\n  dup7\n    /* \"#utility.yul\":1524:1546   */\n  add\n    /* \"#utility.yul\":1492:1556   */\n  tag_12\n  jump\t// in\ntag_38:\n    /* \"#utility.yul\":1482:1556   */\n  swap3\n  pop\n    /* \"#utility.yul\":1438:1566   */\n  pop\n    /* \"#utility.yul\":1605:1607   */\n  0x20\n    /* \"#utility.yul\":1631:1695   */\n  tag_39\n    /* \"#utility.yul\":1687:1694   */\n  dup6\n    /* \"#utility.yul\":1678:1684   */\n  dup3\n    /* \"#utility.yul\":1667:1676   */\n  dup7\n    /* \"#utility.yul\":1663:1685   */\n  add\n    /* \"#utility.yul\":1631:1695   */\n  tag_16\n  jump\t// in\ntag_39:\n    /* \"#utility.yul\":1621:1695   */\n  swap2\n  pop\n    /* \"#utility.yul\":1576:1705   */\n  pop\n    /* \"#utility.yul\":1205:1712   */\n  swap3\n  pop\n  swap3\n  swap1\n  pop\n  jump\t// out\n    /* \"Campaign.sol\":505:3668  contract Campaign {... */\ntag_6:\n  dataSize(sub_0)\n  dup1\n  dataOffset(sub_0)\n  0x00\n  codecopy\n  0x00\n  return\nstop\n\nsub_0: assembly {\n        /* \"Campaign.sol\":505:3668  contract Campaign {... */\n      mstore(0x40, 0x80)\n      jumpi(tag_1, lt(calldatasize, 0x04))\n      shr(0xe0, calldataload(0x00))\n      dup1\n      0x81d12c58\n      gt\n      tag_13\n      jumpi\n      dup1\n      0x81d12c58\n      eq\n      tag_7\n      jumpi\n      dup1\n      0xb3468311\n      eq\n      tag_8\n      jumpi\n      dup1\n      0xc799a6bf\n      eq\n      tag_9\n      jumpi\n      dup1\n      0xc7b23105\n      eq\n      tag_10\n      jumpi\n      dup1\n      0xcca28958\n      eq\n      tag_11\n      jumpi\n      dup1\n      0xd7bb99ba\n      eq\n      tag_12\n      jumpi\n      jump(tag_1)\n    tag_13:\n      dup1\n      0x03ba79ee\n      eq\n      tag_2\n      jumpi\n      dup1\n      0x0c99d130\n      eq\n      tag_3\n      jumpi\n      dup1\n      0x1f6d4942\n      eq\n      tag_4\n      jumpi\n      dup1\n      0x481c6a75\n      eq\n      tag_5\n      jumpi\n      dup1\n      0x80e52d68\n      eq\n      tag_6\n      jumpi\n    tag_1:\n      0x00\n      dup1\n      revert\n        /* \"Campaign.sol\":3253:3547  function getsummary() public view returns (uint, uint, uint, uint, address) {... */\n    tag_2:\n      callvalue\n      dup1\n      iszero\n      tag_14\n      jumpi\n      0x00\n      dup1\n      revert\n    tag_14:\n      pop\n      tag_15\n      tag_16\n      jump\t// in\n    tag_15:\n      mload(0x40)\n      tag_17\n      swap6\n      swap5\n      swap4\n      swap3\n      swap2\n      swap1\n      tag_18\n      jump\t// in\n    tag_17:\n      mload(0x40)\n      dup1\n      swap2\n      sub\n      swap1\n      return\n        /* \"Campaign.sol\":2311:2628  function approve_request(uint index) public {... */\n    tag_3:\n      callvalue\n      dup1\n      iszero\n      tag_19\n      jumpi\n      0x00\n      dup1\n      revert\n    tag_19:\n      pop\n      tag_20\n      0x04\n      dup1\n      calldatasize\n      sub\n      dup2\n      add\n      swap1\n      tag_21\n      swap2\n      swap1\n      tag_22\n      jump\t// in\n    tag_21:\n      tag_23\n      jump\t// in\n    tag_20:\n      stop\n        /* \"Campaign.sol\":892:937  mapping (address => bool) public contributors */\n    tag_4:\n      callvalue\n      dup1\n      iszero\n      tag_24\n      jumpi\n      0x00\n      dup1\n      revert\n    tag_24:\n      pop\n      tag_25\n      0x04\n      dup1\n      calldatasize\n      sub\n      dup2\n      add\n      swap1\n      tag_26\n      swap2\n      swap1\n      tag_27\n      jump\t// in\n    tag_26:\n      tag_28\n      jump\t// in\n    tag_25:\n      mload(0x40)\n      tag_29\n      swap2\n      swap1\n      tag_30\n      jump\t// in\n    tag_29:\n      mload(0x40)\n      dup1\n      swap2\n      sub\n      swap1\n      return\n        /* \"Campaign.sol\":821:843  address public manager */\n    tag_5:\n      callvalue\n      dup1\n      iszero\n      tag_31\n      jumpi\n      0x00\n      dup1\n      revert\n    tag_31:\n      pop\n      tag_32\n      tag_33\n      jump\t// in\n    tag_32:\n      mload(0x40)\n      tag_34\n      swap2\n      swap1\n      tag_35\n      jump\t// in\n    tag_34:\n      mload(0x40)\n      dup1\n      swap2\n      sub\n      swap1\n      return\n        /* \"Campaign.sol\":854:881  uint public mincontribution */\n    tag_6:\n      callvalue\n      dup1\n      iszero\n      tag_36\n      jumpi\n      0x00\n      dup1\n      revert\n    tag_36:\n      pop\n      tag_37\n      tag_38\n      jump\t// in\n    tag_37:\n      mload(0x40)\n      tag_39\n      swap2\n      swap1\n      tag_40\n      jump\t// in\n    tag_39:\n      mload(0x40)\n      dup1\n      swap2\n      sub\n      swap1\n      return\n        /* \"Campaign.sol\":1010:1035  Request[] public requests */\n    tag_7:\n      callvalue\n      dup1\n      iszero\n      tag_41\n      jumpi\n      0x00\n      dup1\n      revert\n    tag_41:\n      pop\n      tag_42\n      0x04\n      dup1\n      calldatasize\n      sub\n      dup2\n      add\n      swap1\n      tag_43\n      swap2\n      swap1\n      tag_22\n      jump\t// in\n    tag_43:\n      tag_44\n      jump\t// in\n    tag_42:\n      mload(0x40)\n      tag_45\n      swap6\n      swap5\n      swap4\n      swap3\n      swap2\n      swap1\n      tag_46\n      jump\t// in\n    tag_45:\n      mload(0x40)\n      dup1\n      swap2\n      sub\n      swap1\n      return\n        /* \"Campaign.sol\":1810:2299  function create_request( string memory description, uint value, address recepient) public manager_only{... */\n    tag_8:\n      callvalue\n      dup1\n      iszero\n      tag_47\n      jumpi\n      0x00\n      dup1\n      revert\n    tag_47:\n      pop\n      tag_48\n      0x04\n      dup1\n      calldatasize\n      sub\n      dup2\n      add\n      swap1\n      tag_49\n      swap2\n      swap1\n      tag_50\n      jump\t// in\n    tag_49:\n      tag_51\n      jump\t// in\n    tag_48:\n      stop\n        /* \"Campaign.sol\":2640:3241  function finalize_request(uint index) public manager_only {... */\n    tag_9:\n      callvalue\n      dup1\n      iszero\n      tag_52\n      jumpi\n      0x00\n      dup1\n      revert\n    tag_52:\n      pop\n      tag_53\n      0x04\n      dup1\n      calldatasize\n      sub\n      dup2\n      add\n      swap1\n      tag_54\n      swap2\n      swap1\n      tag_22\n      jump\t// in\n    tag_54:\n      tag_55\n      jump\t// in\n    tag_53:\n      stop\n        /* \"Campaign.sol\":970:999  uint public contributorscount */\n    tag_10:\n      callvalue\n      dup1\n      iszero\n      tag_56\n      jumpi\n      0x00\n      dup1\n      revert\n    tag_56:\n      pop\n      tag_57\n      tag_58\n      jump\t// in\n    tag_57:\n      mload(0x40)\n      tag_59\n      swap2\n      swap1\n      tag_40\n      jump\t// in\n    tag_59:\n      mload(0x40)\n      dup1\n      swap2\n      sub\n      swap1\n      return\n        /* \"Campaign.sol\":3557:3661  function getrequestscount() public view returns (uint) {... */\n    tag_11:\n      callvalue\n      dup1\n      iszero\n      tag_60\n      jumpi\n      0x00\n      dup1\n      revert\n    tag_60:\n      pop\n      tag_61\n      tag_62\n      jump\t// in\n    tag_61:\n      mload(0x40)\n      tag_63\n      swap2\n      swap1\n      tag_40\n      jump\t// in\n    tag_63:\n      mload(0x40)\n      dup1\n      swap2\n      sub\n      swap1\n      return\n        /* \"Campaign.sol\":1467:1798  function contribute() public payable {... */\n    tag_12:\n      tag_64\n      tag_65\n      jump\t// in\n    tag_64:\n      stop\n        /* \"Campaign.sol\":3253:3547  function getsummary() public view returns (uint, uint, uint, uint, address) {... */\n    tag_16:\n        /* \"Campaign.sol\":3296:3300  uint */\n      0x00\n        /* \"Campaign.sol\":3302:3306  uint */\n      dup1\n        /* \"Campaign.sol\":3308:3312  uint */\n      0x00\n        /* \"Campaign.sol\":3314:3318  uint */\n      dup1\n        /* \"Campaign.sol\":3320:3327  address */\n      0x00\n        /* \"Campaign.sol\":3369:3384  mincontribution */\n      sload(0x01)\n        /* \"Campaign.sol\":3403:3424  address(this).balance */\n      selfbalance\n        /* \"Campaign.sol\":3443:3451  requests */\n      0x04\n        /* \"Campaign.sol\":3443:3458  requests.length */\n      dup1\n      sload\n      swap1\n      pop\n        /* \"Campaign.sol\":3477:3494  contributorscount */\n      sload(0x03)\n        /* \"Campaign.sol\":3513:3520  manager */\n      0x00\n      dup1\n      sload\n      swap1\n      0x0100\n      exp\n      swap1\n      div\n      0xffffffffffffffffffffffffffffffffffffffff\n      and\n        /* \"Campaign.sol\":3344:3535  return(... */\n      swap5\n      pop\n      swap5\n      pop\n      swap5\n      pop\n      swap5\n      pop\n      swap5\n      pop\n        /* \"Campaign.sol\":3253:3547  function getsummary() public view returns (uint, uint, uint, uint, address) {... */\n      swap1\n      swap2\n      swap3\n      swap4\n      swap5\n      jump\t// out\n        /* \"Campaign.sol\":2311:2628  function approve_request(uint index) public {... */\n    tag_23:\n        /* \"Campaign.sol\":2377:2389  contributors */\n      0x02\n        /* \"Campaign.sol\":2377:2401  contributors[msg.sender] */\n      0x00\n        /* \"Campaign.sol\":2390:2400  msg.sender */\n      caller\n        /* \"Campaign.sol\":2377:2401  contributors[msg.sender] */\n      0xffffffffffffffffffffffffffffffffffffffff\n      and\n      0xffffffffffffffffffffffffffffffffffffffff\n      and\n      dup2\n      mstore\n      0x20\n      add\n      swap1\n      dup2\n      mstore\n      0x20\n      add\n      0x00\n      keccak256\n      0x00\n      swap1\n      sload\n      swap1\n      0x0100\n      exp\n      swap1\n      div\n      0xff\n      and\n        /* \"Campaign.sol\":2370:2402  assert(contributors[msg.sender]) */\n      tag_68\n      jumpi\n      tag_69\n      tag_70\n      jump\t// in\n    tag_69:\n    tag_68:\n        /* \"Campaign.sol\":2447:2455  requests */\n      0x04\n        /* \"Campaign.sol\":2456:2461  index */\n      dup2\n        /* \"Campaign.sol\":2447:2462  requests[index] */\n      dup2\n      sload\n      dup2\n      lt\n      tag_71\n      jumpi\n      tag_72\n      tag_73\n      jump\t// in\n    tag_72:\n    tag_71:\n      swap1\n      0x00\n      mstore\n      keccak256(0x00, 0x20)\n      swap1\n      0x05\n      mul\n      add\n        /* \"Campaign.sol\":2447:2472  requests[index].approvals */\n      0x03\n      add\n        /* \"Campaign.sol\":2447:2484  requests[index].approvals[msg.sender] */\n      0x00\n        /* \"Campaign.sol\":2473:2483  msg.sender */\n      caller\n        /* \"Campaign.sol\":2447:2484  requests[index].approvals[msg.sender] */\n      0xffffffffffffffffffffffffffffffffffffffff\n      and\n      0xffffffffffffffffffffffffffffffffffffffff\n      and\n      dup2\n      mstore\n      0x20\n      add\n      swap1\n      dup2\n      mstore\n      0x20\n      add\n      0x00\n      keccak256\n      0x00\n      swap1\n      sload\n      swap1\n      0x0100\n      exp\n      swap1\n      div\n      0xff\n      and\n        /* \"Campaign.sol\":2446:2484  !requests[index].approvals[msg.sender] */\n      iszero\n        /* \"Campaign.sol\":2438:2485  require(!requests[index].approvals[msg.sender]) */\n      tag_75\n      jumpi\n      0x00\n      dup1\n      revert\n    tag_75:\n        /* \"Campaign.sol\":2566:2570  true */\n      0x01\n        /* \"Campaign.sol\":2526:2534  requests */\n      0x04\n        /* \"Campaign.sol\":2535:2540  index */\n      dup3\n        /* \"Campaign.sol\":2526:2541  requests[index] */\n      dup2\n      sload\n      dup2\n      lt\n      tag_76\n      jumpi\n      tag_77\n      tag_73\n      jump\t// in\n    tag_77:\n    tag_76:\n      swap1\n      0x00\n      mstore\n      keccak256(0x00, 0x20)\n      swap1\n      0x05\n      mul\n      add\n        /* \"Campaign.sol\":2526:2551  requests[index].approvals */\n      0x03\n      add\n        /* \"Campaign.sol\":2526:2563  requests[index].approvals[msg.sender] */\n      0x00\n        /* \"Campaign.sol\":2552:2562  msg.sender */\n      caller\n        /* \"Campaign.sol\":2526:2563  requests[index].approvals[msg.sender] */\n      0xffffffffffffffffffffffffffffffffffffffff\n      and\n      0xffffffffffffffffffffffffffffffffffffffff\n      and\n      dup2\n      mstore\n      0x20\n      add\n      swap1\n      dup2\n      mstore\n      0x20\n      add\n      0x00\n      keccak256\n      0x00\n        /* \"Campaign.sol\":2526:2570  requests[index].approvals[msg.sender] = true */\n      0x0100\n      exp\n      dup2\n      sload\n      dup2\n      0xff\n      mul\n      not\n      and\n      swap1\n      dup4\n      iszero\n      iszero\n      mul\n      or\n      swap1\n      sstore\n      pop\n        /* \"Campaign.sol\":2585:2593  requests */\n      0x04\n        /* \"Campaign.sol\":2594:2599  index */\n      dup2\n        /* \"Campaign.sol\":2585:2600  requests[index] */\n      dup2\n      sload\n      dup2\n      lt\n      tag_79\n      jumpi\n      tag_80\n      tag_73\n      jump\t// in\n    tag_80:\n    tag_79:\n      swap1\n      0x00\n      mstore\n      keccak256(0x00, 0x20)\n      swap1\n      0x05\n      mul\n      add\n        /* \"Campaign.sol\":2585:2614  requests[index].approvercount */\n      0x04\n      add\n      0x00\n        /* \"Campaign.sol\":2585:2616  requests[index].approvercount++ */\n      dup2\n      sload\n      dup1\n      swap3\n      swap2\n      swap1\n      tag_82\n      swap1\n      tag_83\n      jump\t// in\n    tag_82:\n      swap2\n      swap1\n      pop\n      sstore\n      pop\n        /* \"Campaign.sol\":2311:2628  function approve_request(uint index) public {... */\n      pop\n      jump\t// out\n        /* \"Campaign.sol\":892:937  mapping (address => bool) public contributors */\n    tag_28:\n      mstore(0x20, 0x02)\n      dup1\n      0x00\n      mstore\n      keccak256(0x00, 0x40)\n      0x00\n      swap2\n      pop\n      sload\n      swap1\n      0x0100\n      exp\n      swap1\n      div\n      0xff\n      and\n      dup2\n      jump\t// out\n        /* \"Campaign.sol\":821:843  address public manager */\n    tag_33:\n      0x00\n      dup1\n      sload\n      swap1\n      0x0100\n      exp\n      swap1\n      div\n      0xffffffffffffffffffffffffffffffffffffffff\n      and\n      dup2\n      jump\t// out\n        /* \"Campaign.sol\":854:881  uint public mincontribution */\n    tag_38:\n      sload(0x01)\n      dup2\n      jump\t// out\n        /* \"Campaign.sol\":1010:1035  Request[] public requests */\n    tag_44:\n      0x04\n      dup2\n      dup2\n      sload\n      dup2\n      lt\n      tag_84\n      jumpi\n      0x00\n      dup1\n      revert\n    tag_84:\n      swap1\n      0x00\n      mstore\n      keccak256(0x00, 0x20)\n      swap1\n      0x05\n      mul\n      add\n      0x00\n      swap2\n      pop\n      swap1\n      pop\n      dup1\n      0x00\n      add\n      dup1\n      sload\n      tag_86\n      swap1\n      tag_87\n      jump\t// in\n    tag_86:\n      dup1\n      0x1f\n      add\n      0x20\n      dup1\n      swap2\n      div\n      mul\n      0x20\n      add\n      mload(0x40)\n      swap1\n      dup2\n      add\n      0x40\n      mstore\n      dup1\n      swap3\n      swap2\n      swap1\n      dup2\n      dup2\n      mstore\n      0x20\n      add\n      dup3\n      dup1\n      sload\n      tag_88\n      swap1\n      tag_87\n      jump\t// in\n    tag_88:\n      dup1\n      iszero\n      tag_89\n      jumpi\n      dup1\n      0x1f\n      lt\n      tag_90\n      jumpi\n      0x0100\n      dup1\n      dup4\n      sload\n      div\n      mul\n      dup4\n      mstore\n      swap2\n      0x20\n      add\n      swap2\n      jump(tag_89)\n    tag_90:\n      dup3\n      add\n      swap2\n      swap1\n      0x00\n      mstore\n      keccak256(0x00, 0x20)\n      swap1\n    tag_91:\n      dup2\n      sload\n      dup2\n      mstore\n      swap1\n      0x01\n      add\n      swap1\n      0x20\n      add\n      dup1\n      dup4\n      gt\n      tag_91\n      jumpi\n      dup3\n      swap1\n      sub\n      0x1f\n      and\n      dup3\n      add\n      swap2\n    tag_89:\n      pop\n      pop\n      pop\n      pop\n      pop\n      swap1\n      dup1\n      0x01\n      add\n      sload\n      swap1\n      dup1\n      0x02\n      add\n      0x00\n      swap1\n      sload\n      swap1\n      0x0100\n      exp\n      swap1\n      div\n      0xffffffffffffffffffffffffffffffffffffffff\n      and\n      swap1\n      dup1\n      0x02\n      add\n      0x14\n      swap1\n      sload\n      swap1\n      0x0100\n      exp\n      swap1\n      div\n      0xff\n      and\n      swap1\n      dup1\n      0x04\n      add\n      sload\n      swap1\n      pop\n      dup6\n      jump\t// out\n        /* \"Campaign.sol\":1810:2299  function create_request( string memory description, uint value, address recepient) public manager_only{... */\n    tag_51:\n        /* \"Campaign.sol\":1155:1162  manager */\n      0x00\n      dup1\n      sload\n      swap1\n      0x0100\n      exp\n      swap1\n      div\n      0xffffffffffffffffffffffffffffffffffffffff\n      and\n        /* \"Campaign.sol\":1141:1162  msg.sender == manager */\n      0xffffffffffffffffffffffffffffffffffffffff\n      and\n        /* \"Campaign.sol\":1141:1151  msg.sender */\n      caller\n        /* \"Campaign.sol\":1141:1162  msg.sender == manager */\n      0xffffffffffffffffffffffffffffffffffffffff\n      and\n      eq\n        /* \"Campaign.sol\":1133:1163  require(msg.sender == manager) */\n      tag_93\n      jumpi\n      0x00\n      dup1\n      revert\n    tag_93:\n        /* \"Campaign.sol\":1927:1953  Request storage newrequest */\n      0x00\n        /* \"Campaign.sol\":1956:1964  requests */\n      0x04\n        /* \"Campaign.sol\":1956:1971  requests.push() */\n      0x01\n      dup2\n      0x01\n      dup2\n      sload\n      add\n      dup1\n      dup3\n      sstore\n      dup1\n      swap2\n      pop\n      pop\n      sub\n      swap1\n      0x00\n      mstore\n      keccak256(0x00, 0x20)\n      swap1\n      0x05\n      mul\n      add\n        /* \"Campaign.sol\":1927:1971  Request storage newrequest = requests.push() */\n      swap1\n      pop\n        /* \"Campaign.sol\":2095:2106  description */\n      dup4\n        /* \"Campaign.sol\":2070:2080  newrequest */\n      dup2\n        /* \"Campaign.sol\":2070:2092  newrequest.description */\n      0x00\n      add\n        /* \"Campaign.sol\":2070:2106  newrequest.description = description */\n      swap1\n      dup2\n      tag_96\n      swap2\n      swap1\n      tag_97\n      jump\t// in\n    tag_96:\n      pop\n        /* \"Campaign.sol\":2140:2145  value */\n      dup3\n        /* \"Campaign.sol\":2121:2131  newrequest */\n      dup2\n        /* \"Campaign.sol\":2121:2137  newrequest.value */\n      0x01\n      add\n        /* \"Campaign.sol\":2121:2145  newrequest.value = value */\n      dup2\n      swap1\n      sstore\n      pop\n        /* \"Campaign.sol\":2183:2192  recepient */\n      dup2\n        /* \"Campaign.sol\":2160:2170  newrequest */\n      dup2\n        /* \"Campaign.sol\":2160:2180  newrequest.recepient */\n      0x02\n      add\n      0x00\n        /* \"Campaign.sol\":2160:2192  newrequest.recepient = recepient */\n      0x0100\n      exp\n      dup2\n      sload\n      dup2\n      0xffffffffffffffffffffffffffffffffffffffff\n      mul\n      not\n      and\n      swap1\n      dup4\n      0xffffffffffffffffffffffffffffffffffffffff\n      and\n      mul\n      or\n      swap1\n      sstore\n      pop\n        /* \"Campaign.sol\":2227:2232  false */\n      0x00\n        /* \"Campaign.sol\":2207:2217  newrequest */\n      dup2\n        /* \"Campaign.sol\":2207:2224  newrequest.status */\n      0x02\n      add\n      0x14\n        /* \"Campaign.sol\":2207:2232  newrequest.status = false */\n      0x0100\n      exp\n      dup2\n      sload\n      dup2\n      0xff\n      mul\n      not\n      and\n      swap1\n      dup4\n      iszero\n      iszero\n      mul\n      or\n      swap1\n      sstore\n      pop\n        /* \"Campaign.sol\":2274:2275  0 */\n      0x00\n        /* \"Campaign.sol\":2247:2257  newrequest */\n      dup2\n        /* \"Campaign.sol\":2247:2271  newrequest.approvercount */\n      0x04\n      add\n        /* \"Campaign.sol\":2247:2275  newrequest.approvercount = 0 */\n      dup2\n      swap1\n      sstore\n      pop\n        /* \"Campaign.sol\":1912:2299  {... */\n      pop\n        /* \"Campaign.sol\":1810:2299  function create_request( string memory description, uint value, address recepient) public manager_only{... */\n      pop\n      pop\n      pop\n      jump\t// out\n        /* \"Campaign.sol\":2640:3241  function finalize_request(uint index) public manager_only {... */\n    tag_55:\n        /* \"Campaign.sol\":1155:1162  manager */\n      0x00\n      dup1\n      sload\n      swap1\n      0x0100\n      exp\n      swap1\n      div\n      0xffffffffffffffffffffffffffffffffffffffff\n      and\n        /* \"Campaign.sol\":1141:1162  msg.sender == manager */\n      0xffffffffffffffffffffffffffffffffffffffff\n      and\n        /* \"Campaign.sol\":1141:1151  msg.sender */\n      caller\n        /* \"Campaign.sol\":1141:1162  msg.sender == manager */\n      0xffffffffffffffffffffffffffffffffffffffff\n      and\n      eq\n        /* \"Campaign.sol\":1133:1163  require(msg.sender == manager) */\n      tag_99\n      jumpi\n      0x00\n      dup1\n      revert\n    tag_99:\n        /* \"Campaign.sol\":2722:2730  requests */\n      0x04\n        /* \"Campaign.sol\":2731:2736  index */\n      dup2\n        /* \"Campaign.sol\":2722:2737  requests[index] */\n      dup2\n      sload\n      dup2\n      lt\n      tag_101\n      jumpi\n      tag_102\n      tag_73\n      jump\t// in\n    tag_102:\n    tag_101:\n      swap1\n      0x00\n      mstore\n      keccak256(0x00, 0x20)\n      swap1\n      0x05\n      mul\n      add\n        /* \"Campaign.sol\":2722:2744  requests[index].status */\n      0x02\n      add\n      0x14\n      swap1\n      sload\n      swap1\n      0x0100\n      exp\n      swap1\n      div\n      0xff\n      and\n        /* \"Campaign.sol\":2721:2744  !requests[index].status */\n      iszero\n        /* \"Campaign.sol\":2713:2745  require(!requests[index].status) */\n      tag_104\n      jumpi\n      0x00\n      dup1\n      revert\n    tag_104:\n        /* \"Campaign.sol\":2862:2863  2 */\n      0x02\n        /* \"Campaign.sol\":2844:2861  contributorscount */\n      sload(0x03)\n        /* \"Campaign.sol\":2844:2863  contributorscount/2 */\n      tag_105\n      swap2\n      swap1\n      tag_106\n      jump\t// in\n    tag_105:\n        /* \"Campaign.sol\":2812:2820  requests */\n      0x04\n        /* \"Campaign.sol\":2821:2826  index */\n      dup3\n        /* \"Campaign.sol\":2812:2827  requests[index] */\n      dup2\n      sload\n      dup2\n      lt\n      tag_107\n      jumpi\n      tag_108\n      tag_73\n      jump\t// in\n    tag_108:\n    tag_107:\n      swap1\n      0x00\n      mstore\n      keccak256(0x00, 0x20)\n      swap1\n      0x05\n      mul\n      add\n        /* \"Campaign.sol\":2812:2841  requests[index].approvercount */\n      0x04\n      add\n      sload\n        /* \"Campaign.sol\":2812:2863  requests[index].approvercount > contributorscount/2 */\n      gt\n        /* \"Campaign.sol\":2804:2864  require(requests[index].approvercount > contributorscount/2) */\n      tag_110\n      jumpi\n      0x00\n      dup1\n      revert\n    tag_110:\n        /* \"Campaign.sol\":2904:2908  true */\n      0x01\n        /* \"Campaign.sol\":2879:2887  requests */\n      0x04\n        /* \"Campaign.sol\":2888:2893  index */\n      dup3\n        /* \"Campaign.sol\":2879:2894  requests[index] */\n      dup2\n      sload\n      dup2\n      lt\n      tag_111\n      jumpi\n      tag_112\n      tag_73\n      jump\t// in\n    tag_112:\n    tag_111:\n      swap1\n      0x00\n      mstore\n      keccak256(0x00, 0x20)\n      swap1\n      0x05\n      mul\n      add\n        /* \"Campaign.sol\":2879:2901  requests[index].status */\n      0x02\n      add\n      0x14\n        /* \"Campaign.sol\":2879:2908  requests[index].status = true */\n      0x0100\n      exp\n      dup2\n      sload\n      dup2\n      0xff\n      mul\n      not\n      and\n      swap1\n      dup4\n      iszero\n      iszero\n      mul\n      or\n      swap1\n      sstore\n      pop\n        /* \"Campaign.sol\":2950:2982  address payable recepientpayable */\n      0x00\n        /* \"Campaign.sol\":2993:3001  requests */\n      0x04\n        /* \"Campaign.sol\":3002:3007  index */\n      dup3\n        /* \"Campaign.sol\":2993:3008  requests[index] */\n      dup2\n      sload\n      dup2\n      lt\n      tag_114\n      jumpi\n      tag_115\n      tag_73\n      jump\t// in\n    tag_115:\n    tag_114:\n      swap1\n      0x00\n      mstore\n      keccak256(0x00, 0x20)\n      swap1\n      0x05\n      mul\n      add\n        /* \"Campaign.sol\":2993:3018  requests[index].recepient */\n      0x02\n      add\n      0x00\n      swap1\n      sload\n      swap1\n      0x0100\n      exp\n      swap1\n      div\n      0xffffffffffffffffffffffffffffffffffffffff\n      and\n        /* \"Campaign.sol\":2950:3019  address payable recepientpayable = payable(requests[index].recepient) */\n      swap1\n      pop\n        /* \"Campaign.sol\":3152:3168  recepientpayable */\n      dup1\n        /* \"Campaign.sol\":3152:3177  recepientpayable.transfer */\n      0xffffffffffffffffffffffffffffffffffffffff\n      and\n        /* \"Campaign.sol\":3152:3200  recepientpayable.transfer(requests[index].value) */\n      0x08fc\n        /* \"Campaign.sol\":3178:3186  requests */\n      0x04\n        /* \"Campaign.sol\":3187:3192  index */\n      dup5\n        /* \"Campaign.sol\":3178:3193  requests[index] */\n      dup2\n      sload\n      dup2\n      lt\n      tag_117\n      jumpi\n      tag_118\n      tag_73\n      jump\t// in\n    tag_118:\n    tag_117:\n      swap1\n      0x00\n      mstore\n      keccak256(0x00, 0x20)\n      swap1\n      0x05\n      mul\n      add\n        /* \"Campaign.sol\":3178:3199  requests[index].value */\n      0x01\n      add\n      sload\n        /* \"Campaign.sol\":3152:3200  recepientpayable.transfer(requests[index].value) */\n      swap1\n      dup2\n      iszero\n      mul\n      swap1\n      mload(0x40)\n      0x00\n      mload(0x40)\n      dup1\n      dup4\n      sub\n      dup2\n      dup6\n      dup9\n      dup9\n      call\n      swap4\n      pop\n      pop\n      pop\n      pop\n      iszero\n      dup1\n      iszero\n      tag_121\n      jumpi\n      returndatasize\n      0x00\n      dup1\n      returndatacopy\n      revert(0x00, returndatasize)\n    tag_121:\n      pop\n        /* \"Campaign.sol\":2698:3241  {... */\n      pop\n        /* \"Campaign.sol\":2640:3241  function finalize_request(uint index) public manager_only {... */\n      pop\n      jump\t// out\n        /* \"Campaign.sol\":970:999  uint public contributorscount */\n    tag_58:\n      sload(0x03)\n      dup2\n      jump\t// out\n        /* \"Campaign.sol\":3557:3661  function getrequestscount() public view returns (uint) {... */\n    tag_62:\n        /* \"Campaign.sol\":3606:3610  uint */\n      0x00\n        /* \"Campaign.sol\":3634:3642  requests */\n      0x04\n        /* \"Campaign.sol\":3634:3649  requests.length */\n      dup1\n      sload\n      swap1\n      pop\n        /* \"Campaign.sol\":3627:3649  return requests.length */\n      swap1\n      pop\n        /* \"Campaign.sol\":3557:3661  function getrequestscount() public view returns (uint) {... */\n      swap1\n      jump\t// out\n        /* \"Campaign.sol\":1467:1798  function contribute() public payable {... */\n    tag_65:\n        /* \"Campaign.sol\":1540:1555  mincontribution */\n      sload(0x01)\n        /* \"Campaign.sol\":1528:1537  msg.value */\n      callvalue\n        /* \"Campaign.sol\":1528:1555  msg.value > mincontribution */\n      gt\n        /* \"Campaign.sol\":1519:1557  require( msg.value > mincontribution ) */\n      tag_124\n      jumpi\n      0x00\n      dup1\n      revert\n    tag_124:\n        /* \"Campaign.sol\":1590:1602  contributors */\n      0x02\n        /* \"Campaign.sol\":1590:1614  contributors[msg.sender] */\n      0x00\n        /* \"Campaign.sol\":1603:1613  msg.sender */\n      caller\n        /* \"Campaign.sol\":1590:1614  contributors[msg.sender] */\n      0xffffffffffffffffffffffffffffffffffffffff\n      and\n      0xffffffffffffffffffffffffffffffffffffffff\n      and\n      dup2\n      mstore\n      0x20\n      add\n      swap1\n      dup2\n      mstore\n      0x20\n      add\n      0x00\n      keccak256\n      0x00\n      swap1\n      sload\n      swap1\n      0x0100\n      exp\n      swap1\n      div\n      0xff\n      and\n        /* \"Campaign.sol\":1589:1614  !contributors[msg.sender] */\n      iszero\n        /* \"Campaign.sol\":1581:1615  require(!contributors[msg.sender]) */\n      tag_125\n      jumpi\n      0x00\n      dup1\n      revert\n    tag_125:\n        /* \"Campaign.sol\":1658:1662  true */\n      0x01\n        /* \"Campaign.sol\":1631:1643  contributors */\n      0x02\n        /* \"Campaign.sol\":1631:1655  contributors[msg.sender] */\n      0x00\n        /* \"Campaign.sol\":1644:1654  msg.sender */\n      caller\n        /* \"Campaign.sol\":1631:1655  contributors[msg.sender] */\n      0xffffffffffffffffffffffffffffffffffffffff\n      and\n      0xffffffffffffffffffffffffffffffffffffffff\n      and\n      dup2\n      mstore\n      0x20\n      add\n      swap1\n      dup2\n      mstore\n      0x20\n      add\n      0x00\n      keccak256\n      0x00\n        /* \"Campaign.sol\":1631:1662  contributors[msg.sender] = true */\n      0x0100\n      exp\n      dup2\n      sload\n      dup2\n      0xff\n      mul\n      not\n      and\n      swap1\n      dup4\n      iszero\n      iszero\n      mul\n      or\n      swap1\n      sstore\n      pop\n        /* \"Campaign.sol\":1767:1784  contributorscount */\n      0x03\n      0x00\n        /* \"Campaign.sol\":1767:1786  contributorscount++ */\n      dup2\n      sload\n      dup1\n      swap3\n      swap2\n      swap1\n      tag_126\n      swap1\n      tag_83\n      jump\t// in\n    tag_126:\n      swap2\n      swap1\n      pop\n      sstore\n      pop\n        /* \"Campaign.sol\":1467:1798  function contribute() public payable {... */\n      jump\t// out\n        /* \"#utility.yul\":7:84   */\n    tag_127:\n        /* \"#utility.yul\":44:51   */\n      0x00\n        /* \"#utility.yul\":73:78   */\n      dup2\n        /* \"#utility.yul\":62:78   */\n      swap1\n      pop\n        /* \"#utility.yul\":7:84   */\n      swap2\n      swap1\n      pop\n      jump\t// out\n        /* \"#utility.yul\":90:208   */\n    tag_128:\n        /* \"#utility.yul\":177:201   */\n      tag_176\n        /* \"#utility.yul\":195:200   */\n      dup2\n        /* \"#utility.yul\":177:201   */\n      tag_127\n      jump\t// in\n    tag_176:\n        /* \"#utility.yul\":172:175   */\n      dup3\n        /* \"#utility.yul\":165:202   */\n      mstore\n        /* \"#utility.yul\":90:208   */\n      pop\n      pop\n      jump\t// out\n        /* \"#utility.yul\":214:340   */\n    tag_129:\n        /* \"#utility.yul\":251:258   */\n      0x00\n        /* \"#utility.yul\":291:333   */\n      0xffffffffffffffffffffffffffffffffffffffff\n        /* \"#utility.yul\":284:289   */\n      dup3\n        /* \"#utility.yul\":280:334   */\n      and\n        /* \"#utility.yul\":269:334   */\n      swap1\n      pop\n        /* \"#utility.yul\":214:340   */\n      swap2\n      swap1\n      pop\n      jump\t// out\n        /* \"#utility.yul\":346:442   */\n    tag_130:\n        /* \"#utility.yul\":383:390   */\n      0x00\n        /* \"#utility.yul\":412:436   */\n      tag_179\n        /* \"#utility.yul\":430:435   */\n      dup3\n        /* \"#utility.yul\":412:436   */\n      tag_129\n      jump\t// in\n    tag_179:\n        /* \"#utility.yul\":401:436   */\n      swap1\n      pop\n        /* \"#utility.yul\":346:442   */\n      swap2\n      swap1\n      pop\n      jump\t// out\n        /* \"#utility.yul\":448:566   */\n    tag_131:\n        /* \"#utility.yul\":535:559   */\n      tag_181\n        /* \"#utility.yul\":553:558   */\n      dup2\n        /* \"#utility.yul\":535:559   */\n      tag_130\n      jump\t// in\n    tag_181:\n        /* \"#utility.yul\":530:533   */\n      dup3\n        /* \"#utility.yul\":523:560   */\n      mstore\n        /* \"#utility.yul\":448:566   */\n      pop\n      pop\n      jump\t// out\n        /* \"#utility.yul\":572:1236   */\n    tag_18:\n        /* \"#utility.yul\":777:781   */\n      0x00\n        /* \"#utility.yul\":815:818   */\n      0xa0\n        /* \"#utility.yul\":804:813   */\n      dup3\n        /* \"#utility.yul\":800:819   */\n      add\n        /* \"#utility.yul\":792:819   */\n      swap1\n      pop\n        /* \"#utility.yul\":829:900   */\n      tag_183\n        /* \"#utility.yul\":897:898   */\n      0x00\n        /* \"#utility.yul\":886:895   */\n      dup4\n        /* \"#utility.yul\":882:899   */\n      add\n        /* \"#utility.yul\":873:879   */\n      dup9\n        /* \"#utility.yul\":829:900   */\n      tag_128\n      jump\t// in\n    tag_183:\n        /* \"#utility.yul\":910:982   */\n      tag_184\n        /* \"#utility.yul\":978:980   */\n      0x20\n        /* \"#utility.yul\":967:976   */\n      dup4\n        /* \"#utility.yul\":963:981   */\n      add\n        /* \"#utility.yul\":954:960   */\n      dup8\n        /* \"#utility.yul\":910:982   */\n      tag_128\n      jump\t// in\n    tag_184:\n        /* \"#utility.yul\":992:1064   */\n      tag_185\n        /* \"#utility.yul\":1060:1062   */\n      0x40\n        /* \"#utility.yul\":1049:1058   */\n      dup4\n        /* \"#utility.yul\":1045:1063   */\n      add\n        /* \"#utility.yul\":1036:1042   */\n      dup7\n        /* \"#utility.yul\":992:1064   */\n      tag_128\n      jump\t// in\n    tag_185:\n        /* \"#utility.yul\":1074:1146   */\n      tag_186\n        /* \"#utility.yul\":1142:1144   */\n      0x60\n        /* \"#utility.yul\":1131:1140   */\n      dup4\n        /* \"#utility.yul\":1127:1145   */\n      add\n        /* \"#utility.yul\":1118:1124   */\n      dup6\n        /* \"#utility.yul\":1074:1146   */\n      tag_128\n      jump\t// in\n    tag_186:\n        /* \"#utility.yul\":1156:1229   */\n      tag_187\n        /* \"#utility.yul\":1224:1227   */\n      0x80\n        /* \"#utility.yul\":1213:1222   */\n      dup4\n        /* \"#utility.yul\":1209:1228   */\n      add\n        /* \"#utility.yul\":1200:1206   */\n      dup5\n        /* \"#utility.yul\":1156:1229   */\n      tag_131\n      jump\t// in\n    tag_187:\n        /* \"#utility.yul\":572:1236   */\n      swap7\n      swap6\n      pop\n      pop\n      pop\n      pop\n      pop\n      pop\n      jump\t// out\n        /* \"#utility.yul\":1242:1317   */\n    tag_132:\n        /* \"#utility.yul\":1275:1281   */\n      0x00\n        /* \"#utility.yul\":1308:1310   */\n      0x40\n        /* \"#utility.yul\":1302:1311   */\n      mload\n        /* \"#utility.yul\":1292:1311   */\n      swap1\n      pop\n        /* \"#utility.yul\":1242:1317   */\n      swap1\n      jump\t// out\n        /* \"#utility.yul\":1323:1440   */\n    tag_133:\n        /* \"#utility.yul\":1432:1433   */\n      0x00\n        /* \"#utility.yul\":1429:1430   */\n      dup1\n        /* \"#utility.yul\":1422:1434   */\n      revert\n        /* \"#utility.yul\":1446:1563   */\n    tag_134:\n        /* \"#utility.yul\":1555:1556   */\n      0x00\n        /* \"#utility.yul\":1552:1553   */\n      dup1\n        /* \"#utility.yul\":1545:1557   */\n      revert\n        /* \"#utility.yul\":1569:1691   */\n    tag_135:\n        /* \"#utility.yul\":1642:1666   */\n      tag_192\n        /* \"#utility.yul\":1660:1665   */\n      dup2\n        /* \"#utility.yul\":1642:1666   */\n      tag_127\n      jump\t// in\n    tag_192:\n        /* \"#utility.yul\":1635:1640   */\n      dup2\n        /* \"#utility.yul\":1632:1667   */\n      eq\n        /* \"#utility.yul\":1622:1685   */\n      tag_193\n      jumpi\n        /* \"#utility.yul\":1681:1682   */\n      0x00\n        /* \"#utility.yul\":1678:1679   */\n      dup1\n        /* \"#utility.yul\":1671:1683   */\n      revert\n        /* \"#utility.yul\":1622:1685   */\n    tag_193:\n        /* \"#utility.yul\":1569:1691   */\n      pop\n      jump\t// out\n        /* \"#utility.yul\":1697:1836   */\n    tag_136:\n        /* \"#utility.yul\":1743:1748   */\n      0x00\n        /* \"#utility.yul\":1781:1787   */\n      dup2\n        /* \"#utility.yul\":1768:1788   */\n      calldataload\n        /* \"#utility.yul\":1759:1788   */\n      swap1\n      pop\n        /* \"#utility.yul\":1797:1830   */\n      tag_195\n        /* \"#utility.yul\":1824:1829   */\n      dup2\n        /* \"#utility.yul\":1797:1830   */\n      tag_135\n      jump\t// in\n    tag_195:\n        /* \"#utility.yul\":1697:1836   */\n      swap3\n      swap2\n      pop\n      pop\n      jump\t// out\n        /* \"#utility.yul\":1842:2171   */\n    tag_22:\n        /* \"#utility.yul\":1901:1907   */\n      0x00\n        /* \"#utility.yul\":1950:1952   */\n      0x20\n        /* \"#utility.yul\":1938:1947   */\n      dup3\n        /* \"#utility.yul\":1929:1936   */\n      dup5\n        /* \"#utility.yul\":1925:1948   */\n      sub\n        /* \"#utility.yul\":1921:1953   */\n      slt\n        /* \"#utility.yul\":1918:2037   */\n      iszero\n      tag_197\n      jumpi\n        /* \"#utility.yul\":1956:2035   */\n      tag_198\n      tag_133\n      jump\t// in\n    tag_198:\n        /* \"#utility.yul\":1918:2037   */\n    tag_197:\n        /* \"#utility.yul\":2076:2077   */\n      0x00\n        /* \"#utility.yul\":2101:2154   */\n      tag_199\n        /* \"#utility.yul\":2146:2153   */\n      dup5\n        /* \"#utility.yul\":2137:2143   */\n      dup3\n        /* \"#utility.yul\":2126:2135   */\n      dup6\n        /* \"#utility.yul\":2122:2144   */\n      add\n        /* \"#utility.yul\":2101:2154   */\n      tag_136\n      jump\t// in\n    tag_199:\n        /* \"#utility.yul\":2091:2154   */\n      swap2\n      pop\n        /* \"#utility.yul\":2047:2164   */\n      pop\n        /* \"#utility.yul\":1842:2171   */\n      swap3\n      swap2\n      pop\n      pop\n      jump\t// out\n        /* \"#utility.yul\":2177:2299   */\n    tag_137:\n        /* \"#utility.yul\":2250:2274   */\n      tag_201\n        /* \"#utility.yul\":2268:2273   */\n      dup2\n        /* \"#utility.yul\":2250:2274   */\n      tag_130\n      jump\t// in\n    tag_201:\n        /* \"#utility.yul\":2243:2248   */\n      dup2\n        /* \"#utility.yul\":2240:2275   */\n      eq\n        /* \"#utility.yul\":2230:2293   */\n      tag_202\n      jumpi\n        /* \"#utility.yul\":2289:2290   */\n      0x00\n        /* \"#utility.yul\":2286:2287   */\n      dup1\n        /* \"#utility.yul\":2279:2291   */\n      revert\n        /* \"#utility.yul\":2230:2293   */\n    tag_202:\n        /* \"#utility.yul\":2177:2299   */\n      pop\n      jump\t// out\n        /* \"#utility.yul\":2305:2444   */\n    tag_138:\n        /* \"#utility.yul\":2351:2356   */\n      0x00\n        /* \"#utility.yul\":2389:2395   */\n      dup2\n        /* \"#utility.yul\":2376:2396   */\n      calldataload\n        /* \"#utility.yul\":2367:2396   */\n      swap1\n      pop\n        /* \"#utility.yul\":2405:2438   */\n      tag_204\n        /* \"#utility.yul\":2432:2437   */\n      dup2\n        /* \"#utility.yul\":2405:2438   */\n      tag_137\n      jump\t// in\n    tag_204:\n        /* \"#utility.yul\":2305:2444   */\n      swap3\n      swap2\n      pop\n      pop\n      jump\t// out\n        /* \"#utility.yul\":2450:2779   */\n    tag_27:\n        /* \"#utility.yul\":2509:2515   */\n      0x00\n        /* \"#utility.yul\":2558:2560   */\n      0x20\n        /* \"#utility.yul\":2546:2555   */\n      dup3\n        /* \"#utility.yul\":2537:2544   */\n      dup5\n        /* \"#utility.yul\":2533:2556   */\n      sub\n        /* \"#utility.yul\":2529:2561   */\n      slt\n        /* \"#utility.yul\":2526:2645   */\n      iszero\n      tag_206\n      jumpi\n        /* \"#utility.yul\":2564:2643   */\n      tag_207\n      tag_133\n      jump\t// in\n    tag_207:\n        /* \"#utility.yul\":2526:2645   */\n    tag_206:\n        /* \"#utility.yul\":2684:2685   */\n      0x00\n        /* \"#utility.yul\":2709:2762   */\n      tag_208\n        /* \"#utility.yul\":2754:2761   */\n      dup5\n        /* \"#utility.yul\":2745:2751   */\n      dup3\n        /* \"#utility.yul\":2734:2743   */\n      dup6\n        /* \"#utility.yul\":2730:2752   */\n      add\n        /* \"#utility.yul\":2709:2762   */\n      tag_138\n      jump\t// in\n    tag_208:\n        /* \"#utility.yul\":2699:2762   */\n      swap2\n      pop\n        /* \"#utility.yul\":2655:2772   */\n      pop\n        /* \"#utility.yul\":2450:2779   */\n      swap3\n      swap2\n      pop\n      pop\n      jump\t// out\n        /* \"#utility.yul\":2785:2875   */\n    tag_139:\n        /* \"#utility.yul\":2819:2826   */\n      0x00\n        /* \"#utility.yul\":2862:2867   */\n      dup2\n        /* \"#utility.yul\":2855:2868   */\n      iszero\n        /* \"#utility.yul\":2848:2869   */\n      iszero\n        /* \"#utility.yul\":2837:2869   */\n      swap1\n      pop\n        /* \"#utility.yul\":2785:2875   */\n      swap2\n      swap1\n      pop\n      jump\t// out\n        /* \"#utility.yul\":2881:2990   */\n    tag_140:\n        /* \"#utility.yul\":2962:2983   */\n      tag_211\n        /* \"#utility.yul\":2977:2982   */\n      dup2\n        /* \"#utility.yul\":2962:2983   */\n      tag_139\n      jump\t// in\n    tag_211:\n        /* \"#utility.yul\":2957:2960   */\n      dup3\n        /* \"#utility.yul\":2950:2984   */\n      mstore\n        /* \"#utility.yul\":2881:2990   */\n      pop\n      pop\n      jump\t// out\n        /* \"#utility.yul\":2996:3206   */\n    tag_30:\n        /* \"#utility.yul\":3083:3087   */\n      0x00\n        /* \"#utility.yul\":3121:3123   */\n      0x20\n        /* \"#utility.yul\":3110:3119   */\n      dup3\n        /* \"#utility.yul\":3106:3124   */\n      add\n        /* \"#utility.yul\":3098:3124   */\n      swap1\n      pop\n        /* \"#utility.yul\":3134:3199   */\n      tag_213\n        /* \"#utility.yul\":3196:3197   */\n      0x00\n        /* \"#utility.yul\":3185:3194   */\n      dup4\n        /* \"#utility.yul\":3181:3198   */\n      add\n        /* \"#utility.yul\":3172:3178   */\n      dup5\n        /* \"#utility.yul\":3134:3199   */\n      tag_140\n      jump\t// in\n    tag_213:\n        /* \"#utility.yul\":2996:3206   */\n      swap3\n      swap2\n      pop\n      pop\n      jump\t// out\n        /* \"#utility.yul\":3212:3434   */\n    tag_35:\n        /* \"#utility.yul\":3305:3309   */\n      0x00\n        /* \"#utility.yul\":3343:3345   */\n      0x20\n        /* \"#utility.yul\":3332:3341   */\n      dup3\n        /* \"#utility.yul\":3328:3346   */\n      add\n        /* \"#utility.yul\":3320:3346   */\n      swap1\n      pop\n        /* \"#utility.yul\":3356:3427   */\n      tag_215\n        /* \"#utility.yul\":3424:3425   */\n      0x00\n        /* \"#utility.yul\":3413:3422   */\n      dup4\n        /* \"#utility.yul\":3409:3426   */\n      add\n        /* \"#utility.yul\":3400:3406   */\n      dup5\n        /* \"#utility.yul\":3356:3427   */\n      tag_131\n      jump\t// in\n    tag_215:\n        /* \"#utility.yul\":3212:3434   */\n      swap3\n      swap2\n      pop\n      pop\n      jump\t// out\n        /* \"#utility.yul\":3440:3662   */\n    tag_40:\n        /* \"#utility.yul\":3533:3537   */\n      0x00\n        /* \"#utility.yul\":3571:3573   */\n      0x20\n        /* \"#utility.yul\":3560:3569   */\n      dup3\n        /* \"#utility.yul\":3556:3574   */\n      add\n        /* \"#utility.yul\":3548:3574   */\n      swap1\n      pop\n        /* \"#utility.yul\":3584:3655   */\n      tag_217\n        /* \"#utility.yul\":3652:3653   */\n      0x00\n        /* \"#utility.yul\":3641:3650   */\n      dup4\n        /* \"#utility.yul\":3637:3654   */\n      add\n        /* \"#utility.yul\":3628:3634   */\n      dup5\n        /* \"#utility.yul\":3584:3655   */\n      tag_128\n      jump\t// in\n    tag_217:\n        /* \"#utility.yul\":3440:3662   */\n      swap3\n      swap2\n      pop\n      pop\n      jump\t// out\n        /* \"#utility.yul\":3668:3767   */\n    tag_141:\n        /* \"#utility.yul\":3720:3726   */\n      0x00\n        /* \"#utility.yul\":3754:3759   */\n      dup2\n        /* \"#utility.yul\":3748:3760   */\n      mload\n        /* \"#utility.yul\":3738:3760   */\n      swap1\n      pop\n        /* \"#utility.yul\":3668:3767   */\n      swap2\n      swap1\n      pop\n      jump\t// out\n        /* \"#utility.yul\":3773:3942   */\n    tag_142:\n        /* \"#utility.yul\":3857:3868   */\n      0x00\n        /* \"#utility.yul\":3891:3897   */\n      dup3\n        /* \"#utility.yul\":3886:3889   */\n      dup3\n        /* \"#utility.yul\":3879:3898   */\n      mstore\n        /* \"#utility.yul\":3931:3935   */\n      0x20\n        /* \"#utility.yul\":3926:3929   */\n      dup3\n        /* \"#utility.yul\":3922:3936   */\n      add\n        /* \"#utility.yul\":3907:3936   */\n      swap1\n      pop\n        /* \"#utility.yul\":3773:3942   */\n      swap3\n      swap2\n      pop\n      pop\n      jump\t// out\n        /* \"#utility.yul\":3948:4255   */\n    tag_143:\n        /* \"#utility.yul\":4016:4017   */\n      0x00\n        /* \"#utility.yul\":4026:4139   */\n    tag_221:\n        /* \"#utility.yul\":4040:4046   */\n      dup4\n        /* \"#utility.yul\":4037:4038   */\n      dup2\n        /* \"#utility.yul\":4034:4047   */\n      lt\n        /* \"#utility.yul\":4026:4139   */\n      iszero\n      tag_223\n      jumpi\n        /* \"#utility.yul\":4125:4126   */\n      dup1\n        /* \"#utility.yul\":4120:4123   */\n      dup3\n        /* \"#utility.yul\":4116:4127   */\n      add\n        /* \"#utility.yul\":4110:4128   */\n      mload\n        /* \"#utility.yul\":4106:4107   */\n      dup2\n        /* \"#utility.yul\":4101:4104   */\n      dup5\n        /* \"#utility.yul\":4097:4108   */\n      add\n        /* \"#utility.yul\":4090:4129   */\n      mstore\n        /* \"#utility.yul\":4062:4064   */\n      0x20\n        /* \"#utility.yul\":4059:4060   */\n      dup2\n        /* \"#utility.yul\":4055:4065   */\n      add\n        /* \"#utility.yul\":4050:4065   */\n      swap1\n      pop\n        /* \"#utility.yul\":4026:4139   */\n      jump(tag_221)\n    tag_223:\n        /* \"#utility.yul\":4157:4163   */\n      dup4\n        /* \"#utility.yul\":4154:4155   */\n      dup2\n        /* \"#utility.yul\":4151:4164   */\n      gt\n        /* \"#utility.yul\":4148:4249   */\n      iszero\n      tag_224\n      jumpi\n        /* \"#utility.yul\":4237:4238   */\n      0x00\n        /* \"#utility.yul\":4228:4234   */\n      dup5\n        /* \"#utility.yul\":4223:4226   */\n      dup5\n        /* \"#utility.yul\":4219:4235   */\n      add\n        /* \"#utility.yul\":4212:4239   */\n      mstore\n        /* \"#utility.yul\":4148:4249   */\n    tag_224:\n        /* \"#utility.yul\":3997:4255   */\n      pop\n        /* \"#utility.yul\":3948:4255   */\n      pop\n      pop\n      pop\n      jump\t// out\n        /* \"#utility.yul\":4261:4363   */\n    tag_144:\n        /* \"#utility.yul\":4302:4308   */\n      0x00\n        /* \"#utility.yul\":4353:4355   */\n      0x1f\n        /* \"#utility.yul\":4349:4356   */\n      not\n        /* \"#utility.yul\":4344:4346   */\n      0x1f\n        /* \"#utility.yul\":4337:4342   */\n      dup4\n        /* \"#utility.yul\":4333:4347   */\n      add\n        /* \"#utility.yul\":4329:4357   */\n      and\n        /* \"#utility.yul\":4319:4357   */\n      swap1\n      pop\n        /* \"#utility.yul\":4261:4363   */\n      swap2\n      swap1\n      pop\n      jump\t// out\n        /* \"#utility.yul\":4369:4733   */\n    tag_145:\n        /* \"#utility.yul\":4457:4460   */\n      0x00\n        /* \"#utility.yul\":4485:4524   */\n      tag_227\n        /* \"#utility.yul\":4518:4523   */\n      dup3\n        /* \"#utility.yul\":4485:4524   */\n      tag_141\n      jump\t// in\n    tag_227:\n        /* \"#utility.yul\":4540:4611   */\n      tag_228\n        /* \"#utility.yul\":4604:4610   */\n      dup2\n        /* \"#utility.yul\":4599:4602   */\n      dup6\n        /* \"#utility.yul\":4540:4611   */\n      tag_142\n      jump\t// in\n    tag_228:\n        /* \"#utility.yul\":4533:4611   */\n      swap4\n      pop\n        /* \"#utility.yul\":4620:4672   */\n      tag_229\n        /* \"#utility.yul\":4665:4671   */\n      dup2\n        /* \"#utility.yul\":4660:4663   */\n      dup6\n        /* \"#utility.yul\":4653:4657   */\n      0x20\n        /* \"#utility.yul\":4646:4651   */\n      dup7\n        /* \"#utility.yul\":4642:4658   */\n      add\n        /* \"#utility.yul\":4620:4672   */\n      tag_143\n      jump\t// in\n    tag_229:\n        /* \"#utility.yul\":4697:4726   */\n      tag_230\n        /* \"#utility.yul\":4719:4725   */\n      dup2\n        /* \"#utility.yul\":4697:4726   */\n      tag_144\n      jump\t// in\n    tag_230:\n        /* \"#utility.yul\":4692:4695   */\n      dup5\n        /* \"#utility.yul\":4688:4727   */\n      add\n        /* \"#utility.yul\":4681:4727   */\n      swap2\n      pop\n        /* \"#utility.yul\":4461:4733   */\n      pop\n        /* \"#utility.yul\":4369:4733   */\n      swap3\n      swap2\n      pop\n      pop\n      jump\t// out\n        /* \"#utility.yul\":4739:5482   */\n    tag_46:\n        /* \"#utility.yul\":4958:4962   */\n      0x00\n        /* \"#utility.yul\":4996:4999   */\n      0xa0\n        /* \"#utility.yul\":4985:4994   */\n      dup3\n        /* \"#utility.yul\":4981:5000   */\n      add\n        /* \"#utility.yul\":4973:5000   */\n      swap1\n      pop\n        /* \"#utility.yul\":5046:5055   */\n      dup2\n        /* \"#utility.yul\":5040:5044   */\n      dup2\n        /* \"#utility.yul\":5036:5056   */\n      sub\n        /* \"#utility.yul\":5032:5033   */\n      0x00\n        /* \"#utility.yul\":5021:5030   */\n      dup4\n        /* \"#utility.yul\":5017:5034   */\n      add\n        /* \"#utility.yul\":5010:5057   */\n      mstore\n        /* \"#utility.yul\":5074:5152   */\n      tag_232\n        /* \"#utility.yul\":5147:5151   */\n      dup2\n        /* \"#utility.yul\":5138:5144   */\n      dup9\n        /* \"#utility.yul\":5074:5152   */\n      tag_145\n      jump\t// in\n    tag_232:\n        /* \"#utility.yul\":5066:5152   */\n      swap1\n      pop\n        /* \"#utility.yul\":5162:5234   */\n      tag_233\n        /* \"#utility.yul\":5230:5232   */\n      0x20\n        /* \"#utility.yul\":5219:5228   */\n      dup4\n        /* \"#utility.yul\":5215:5233   */\n      add\n        /* \"#utility.yul\":5206:5212   */\n      dup8\n        /* \"#utility.yul\":5162:5234   */\n      tag_128\n      jump\t// in\n    tag_233:\n        /* \"#utility.yul\":5244:5316   */\n      tag_234\n        /* \"#utility.yul\":5312:5314   */\n      0x40\n        /* \"#utility.yul\":5301:5310   */\n      dup4\n        /* \"#utility.yul\":5297:5315   */\n      add\n        /* \"#utility.yul\":5288:5294   */\n      dup7\n        /* \"#utility.yul\":5244:5316   */\n      tag_131\n      jump\t// in\n    tag_234:\n        /* \"#utility.yul\":5326:5392   */\n      tag_235\n        /* \"#utility.yul\":5388:5390   */\n      0x60\n        /* \"#utility.yul\":5377:5386   */\n      dup4\n        /* \"#utility.yul\":5373:5391   */\n      add\n        /* \"#utility.yul\":5364:5370   */\n      dup6\n        /* \"#utility.yul\":5326:5392   */\n      tag_140\n      jump\t// in\n    tag_235:\n        /* \"#utility.yul\":5402:5475   */\n      tag_236\n        /* \"#utility.yul\":5470:5473   */\n      0x80\n        /* \"#utility.yul\":5459:5468   */\n      dup4\n        /* \"#utility.yul\":5455:5474   */\n      add\n        /* \"#utility.yul\":5446:5452   */\n      dup5\n        /* \"#utility.yul\":5402:5475   */\n      tag_128\n      jump\t// in\n    tag_236:\n        /* \"#utility.yul\":4739:5482   */\n      swap7\n      swap6\n      pop\n      pop\n      pop\n      pop\n      pop\n      pop\n      jump\t// out\n        /* \"#utility.yul\":5488:5605   */\n    tag_146:\n        /* \"#utility.yul\":5597:5598   */\n      0x00\n        /* \"#utility.yul\":5594:5595   */\n      dup1\n        /* \"#utility.yul\":5587:5599   */\n      revert\n        /* \"#utility.yul\":5611:5728   */\n    tag_147:\n        /* \"#utility.yul\":5720:5721   */\n      0x00\n        /* \"#utility.yul\":5717:5718   */\n      dup1\n        /* \"#utility.yul\":5710:5722   */\n      revert\n        /* \"#utility.yul\":5734:5914   */\n    tag_148:\n        /* \"#utility.yul\":5782:5859   */\n      0x4e487b7100000000000000000000000000000000000000000000000000000000\n        /* \"#utility.yul\":5779:5780   */\n      0x00\n        /* \"#utility.yul\":5772:5860   */\n      mstore\n        /* \"#utility.yul\":5879:5883   */\n      0x41\n        /* \"#utility.yul\":5876:5877   */\n      0x04\n        /* \"#utility.yul\":5869:5884   */\n      mstore\n        /* \"#utility.yul\":5903:5907   */\n      0x24\n        /* \"#utility.yul\":5900:5901   */\n      0x00\n        /* \"#utility.yul\":5893:5908   */\n      revert\n        /* \"#utility.yul\":5920:6201   */\n    tag_149:\n        /* \"#utility.yul\":6003:6030   */\n      tag_241\n        /* \"#utility.yul\":6025:6029   */\n      dup3\n        /* \"#utility.yul\":6003:6030   */\n      tag_144\n      jump\t// in\n    tag_241:\n        /* \"#utility.yul\":5995:6001   */\n      dup2\n        /* \"#utility.yul\":5991:6031   */\n      add\n        /* \"#utility.yul\":6133:6139   */\n      dup2\n        /* \"#utility.yul\":6121:6131   */\n      dup2\n        /* \"#utility.yul\":6118:6140   */\n      lt\n        /* \"#utility.yul\":6097:6115   */\n      0xffffffffffffffff\n        /* \"#utility.yul\":6085:6095   */\n      dup3\n        /* \"#utility.yul\":6082:6116   */\n      gt\n        /* \"#utility.yul\":6079:6141   */\n      or\n        /* \"#utility.yul\":6076:6164   */\n      iszero\n      tag_242\n      jumpi\n        /* \"#utility.yul\":6144:6162   */\n      tag_243\n      tag_148\n      jump\t// in\n    tag_243:\n        /* \"#utility.yul\":6076:6164   */\n    tag_242:\n        /* \"#utility.yul\":6184:6194   */\n      dup1\n        /* \"#utility.yul\":6180:6182   */\n      0x40\n        /* \"#utility.yul\":6173:6195   */\n      mstore\n        /* \"#utility.yul\":5963:6201   */\n      pop\n        /* \"#utility.yul\":5920:6201   */\n      pop\n      pop\n      jump\t// out\n        /* \"#utility.yul\":6207:6336   */\n    tag_150:\n        /* \"#utility.yul\":6241:6247   */\n      0x00\n        /* \"#utility.yul\":6268:6288   */\n      tag_245\n      tag_132\n      jump\t// in\n    tag_245:\n        /* \"#utility.yul\":6258:6288   */\n      swap1\n      pop\n        /* \"#utility.yul\":6297:6330   */\n      tag_246\n        /* \"#utility.yul\":6325:6329   */\n      dup3\n        /* \"#utility.yul\":6317:6323   */\n      dup3\n        /* \"#utility.yul\":6297:6330   */\n      tag_149\n      jump\t// in\n    tag_246:\n        /* \"#utility.yul\":6207:6336   */\n      swap2\n      swap1\n      pop\n      jump\t// out\n        /* \"#utility.yul\":6342:6650   */\n    tag_151:\n        /* \"#utility.yul\":6404:6408   */\n      0x00\n        /* \"#utility.yul\":6494:6512   */\n      0xffffffffffffffff\n        /* \"#utility.yul\":6486:6492   */\n      dup3\n        /* \"#utility.yul\":6483:6513   */\n      gt\n        /* \"#utility.yul\":6480:6536   */\n      iszero\n      tag_248\n      jumpi\n        /* \"#utility.yul\":6516:6534   */\n      tag_249\n      tag_148\n      jump\t// in\n    tag_249:\n        /* \"#utility.yul\":6480:6536   */\n    tag_248:\n        /* \"#utility.yul\":6554:6583   */\n      tag_250\n        /* \"#utility.yul\":6576:6582   */\n      dup3\n        /* \"#utility.yul\":6554:6583   */\n      tag_144\n      jump\t// in\n    tag_250:\n        /* \"#utility.yul\":6546:6583   */\n      swap1\n      pop\n        /* \"#utility.yul\":6638:6642   */\n      0x20\n        /* \"#utility.yul\":6632:6636   */\n      dup2\n        /* \"#utility.yul\":6628:6643   */\n      add\n        /* \"#utility.yul\":6620:6643   */\n      swap1\n      pop\n        /* \"#utility.yul\":6342:6650   */\n      swap2\n      swap1\n      pop\n      jump\t// out\n        /* \"#utility.yul\":6656:6810   */\n    tag_152:\n        /* \"#utility.yul\":6740:6746   */\n      dup3\n        /* \"#utility.yul\":6735:6738   */\n      dup2\n        /* \"#utility.yul\":6730:6733   */\n      dup4\n        /* \"#utility.yul\":6717:6747   */\n      calldatacopy\n        /* \"#utility.yul\":6802:6803   */\n      0x00\n        /* \"#utility.yul\":6793:6799   */\n      dup4\n        /* \"#utility.yul\":6788:6791   */\n      dup4\n        /* \"#utility.yul\":6784:6800   */\n      add\n        /* \"#utility.yul\":6777:6804   */\n      mstore\n        /* \"#utility.yul\":6656:6810   */\n      pop\n      pop\n      pop\n      jump\t// out\n        /* \"#utility.yul\":6816:7228   */\n    tag_153:\n        /* \"#utility.yul\":6894:6899   */\n      0x00\n        /* \"#utility.yul\":6919:6985   */\n      tag_253\n        /* \"#utility.yul\":6935:6984   */\n      tag_254\n        /* \"#utility.yul\":6977:6983   */\n      dup5\n        /* \"#utility.yul\":6935:6984   */\n      tag_151\n      jump\t// in\n    tag_254:\n        /* \"#utility.yul\":6919:6985   */\n      tag_150\n      jump\t// in\n    tag_253:\n        /* \"#utility.yul\":6910:6985   */\n      swap1\n      pop\n        /* \"#utility.yul\":7008:7014   */\n      dup3\n        /* \"#utility.yul\":7001:7006   */\n      dup2\n        /* \"#utility.yul\":6994:7015   */\n      mstore\n        /* \"#utility.yul\":7046:7050   */\n      0x20\n        /* \"#utility.yul\":7039:7044   */\n      dup2\n        /* \"#utility.yul\":7035:7051   */\n      add\n        /* \"#utility.yul\":7084:7087   */\n      dup5\n        /* \"#utility.yul\":7075:7081   */\n      dup5\n        /* \"#utility.yul\":7070:7073   */\n      dup5\n        /* \"#utility.yul\":7066:7082   */\n      add\n        /* \"#utility.yul\":7063:7088   */\n      gt\n        /* \"#utility.yul\":7060:7172   */\n      iszero\n      tag_255\n      jumpi\n        /* \"#utility.yul\":7091:7170   */\n      tag_256\n      tag_147\n      jump\t// in\n    tag_256:\n        /* \"#utility.yul\":7060:7172   */\n    tag_255:\n        /* \"#utility.yul\":7181:7222   */\n      tag_257\n        /* \"#utility.yul\":7215:7221   */\n      dup5\n        /* \"#utility.yul\":7210:7213   */\n      dup3\n        /* \"#utility.yul\":7205:7208   */\n      dup6\n        /* \"#utility.yul\":7181:7222   */\n      tag_152\n      jump\t// in\n    tag_257:\n        /* \"#utility.yul\":6900:7228   */\n      pop\n        /* \"#utility.yul\":6816:7228   */\n      swap4\n      swap3\n      pop\n      pop\n      pop\n      jump\t// out\n        /* \"#utility.yul\":7248:7588   */\n    tag_154:\n        /* \"#utility.yul\":7304:7309   */\n      0x00\n        /* \"#utility.yul\":7353:7356   */\n      dup3\n        /* \"#utility.yul\":7346:7350   */\n      0x1f\n        /* \"#utility.yul\":7338:7344   */\n      dup4\n        /* \"#utility.yul\":7334:7351   */\n      add\n        /* \"#utility.yul\":7330:7357   */\n      slt\n        /* \"#utility.yul\":7320:7442   */\n      tag_259\n      jumpi\n        /* \"#utility.yul\":7361:7440   */\n      tag_260\n      tag_146\n      jump\t// in\n    tag_260:\n        /* \"#utility.yul\":7320:7442   */\n    tag_259:\n        /* \"#utility.yul\":7478:7484   */\n      dup2\n        /* \"#utility.yul\":7465:7485   */\n      calldataload\n        /* \"#utility.yul\":7503:7582   */\n      tag_261\n        /* \"#utility.yul\":7578:7581   */\n      dup5\n        /* \"#utility.yul\":7570:7576   */\n      dup3\n        /* \"#utility.yul\":7563:7567   */\n      0x20\n        /* \"#utility.yul\":7555:7561   */\n      dup7\n        /* \"#utility.yul\":7551:7568   */\n      add\n        /* \"#utility.yul\":7503:7582   */\n      tag_153\n      jump\t// in\n    tag_261:\n        /* \"#utility.yul\":7494:7582   */\n      swap2\n      pop\n        /* \"#utility.yul\":7310:7588   */\n      pop\n        /* \"#utility.yul\":7248:7588   */\n      swap3\n      swap2\n      pop\n      pop\n      jump\t// out\n        /* \"#utility.yul\":7594:8393   */\n    tag_50:\n        /* \"#utility.yul\":7681:7687   */\n      0x00\n        /* \"#utility.yul\":7689:7695   */\n      dup1\n        /* \"#utility.yul\":7697:7703   */\n      0x00\n        /* \"#utility.yul\":7746:7748   */\n      0x60\n        /* \"#utility.yul\":7734:7743   */\n      dup5\n        /* \"#utility.yul\":7725:7732   */\n      dup7\n        /* \"#utility.yul\":7721:7744   */\n      sub\n        /* \"#utility.yul\":7717:7749   */\n      slt\n        /* \"#utility.yul\":7714:7833   */\n      iszero\n      tag_263\n      jumpi\n        /* \"#utility.yul\":7752:7831   */\n      tag_264\n      tag_133\n      jump\t// in\n    tag_264:\n        /* \"#utility.yul\":7714:7833   */\n    tag_263:\n        /* \"#utility.yul\":7900:7901   */\n      0x00\n        /* \"#utility.yul\":7889:7898   */\n      dup5\n        /* \"#utility.yul\":7885:7902   */\n      add\n        /* \"#utility.yul\":7872:7903   */\n      calldataload\n        /* \"#utility.yul\":7930:7948   */\n      0xffffffffffffffff\n        /* \"#utility.yul\":7922:7928   */\n      dup2\n        /* \"#utility.yul\":7919:7949   */\n      gt\n        /* \"#utility.yul\":7916:8033   */\n      iszero\n      tag_265\n      jumpi\n        /* \"#utility.yul\":7952:8031   */\n      tag_266\n      tag_134\n      jump\t// in\n    tag_266:\n        /* \"#utility.yul\":7916:8033   */\n    tag_265:\n        /* \"#utility.yul\":8057:8120   */\n      tag_267\n        /* \"#utility.yul\":8112:8119   */\n      dup7\n        /* \"#utility.yul\":8103:8109   */\n      dup3\n        /* \"#utility.yul\":8092:8101   */\n      dup8\n        /* \"#utility.yul\":8088:8110   */\n      add\n        /* \"#utility.yul\":8057:8120   */\n      tag_154\n      jump\t// in\n    tag_267:\n        /* \"#utility.yul\":8047:8120   */\n      swap4\n      pop\n        /* \"#utility.yul\":7843:8130   */\n      pop\n        /* \"#utility.yul\":8169:8171   */\n      0x20\n        /* \"#utility.yul\":8195:8248   */\n      tag_268\n        /* \"#utility.yul\":8240:8247   */\n      dup7\n        /* \"#utility.yul\":8231:8237   */\n      dup3\n        /* \"#utility.yul\":8220:8229   */\n      dup8\n        /* \"#utility.yul\":8216:8238   */\n      add\n        /* \"#utility.yul\":8195:8248   */\n      tag_136\n      jump\t// in\n    tag_268:\n        /* \"#utility.yul\":8185:8248   */\n      swap3\n      pop\n        /* \"#utility.yul\":8140:8258   */\n      pop\n        /* \"#utility.yul\":8297:8299   */\n      0x40\n        /* \"#utility.yul\":8323:8376   */\n      tag_269\n        /* \"#utility.yul\":8368:8375   */\n      dup7\n        /* \"#utility.yul\":8359:8365   */\n      dup3\n        /* \"#utility.yul\":8348:8357   */\n      dup8\n        /* \"#utility.yul\":8344:8366   */\n      add\n        /* \"#utility.yul\":8323:8376   */\n      tag_138\n      jump\t// in\n    tag_269:\n        /* \"#utility.yul\":8313:8376   */\n      swap2\n      pop\n        /* \"#utility.yul\":8268:8386   */\n      pop\n        /* \"#utility.yul\":7594:8393   */\n      swap3\n      pop\n      swap3\n      pop\n      swap3\n      jump\t// out\n        /* \"#utility.yul\":8399:8579   */\n    tag_70:\n        /* \"#utility.yul\":8447:8524   */\n      0x4e487b7100000000000000000000000000000000000000000000000000000000\n        /* \"#utility.yul\":8444:8445   */\n      0x00\n        /* \"#utility.yul\":8437:8525   */\n      mstore\n        /* \"#utility.yul\":8544:8548   */\n      0x01\n        /* \"#utility.yul\":8541:8542   */\n      0x04\n        /* \"#utility.yul\":8534:8549   */\n      mstore\n        /* \"#utility.yul\":8568:8572   */\n      0x24\n        /* \"#utility.yul\":8565:8566   */\n      0x00\n        /* \"#utility.yul\":8558:8573   */\n      revert\n        /* \"#utility.yul\":8585:8765   */\n    tag_73:\n        /* \"#utility.yul\":8633:8710   */\n      0x4e487b7100000000000000000000000000000000000000000000000000000000\n        /* \"#utility.yul\":8630:8631   */\n      0x00\n        /* \"#utility.yul\":8623:8711   */\n      mstore\n        /* \"#utility.yul\":8730:8734   */\n      0x32\n        /* \"#utility.yul\":8727:8728   */\n      0x04\n        /* \"#utility.yul\":8720:8735   */\n      mstore\n        /* \"#utility.yul\":8754:8758   */\n      0x24\n        /* \"#utility.yul\":8751:8752   */\n      0x00\n        /* \"#utility.yul\":8744:8759   */\n      revert\n        /* \"#utility.yul\":8771:8951   */\n    tag_155:\n        /* \"#utility.yul\":8819:8896   */\n      0x4e487b7100000000000000000000000000000000000000000000000000000000\n        /* \"#utility.yul\":8816:8817   */\n      0x00\n        /* \"#utility.yul\":8809:8897   */\n      mstore\n        /* \"#utility.yul\":8916:8920   */\n      0x11\n        /* \"#utility.yul\":8913:8914   */\n      0x04\n        /* \"#utility.yul\":8906:8921   */\n      mstore\n        /* \"#utility.yul\":8940:8944   */\n      0x24\n        /* \"#utility.yul\":8937:8938   */\n      0x00\n        /* \"#utility.yul\":8930:8945   */\n      revert\n        /* \"#utility.yul\":8957:9190   */\n    tag_83:\n        /* \"#utility.yul\":8996:8999   */\n      0x00\n        /* \"#utility.yul\":9019:9043   */\n      tag_274\n        /* \"#utility.yul\":9037:9042   */\n      dup3\n        /* \"#utility.yul\":9019:9043   */\n      tag_127\n      jump\t// in\n    tag_274:\n        /* \"#utility.yul\":9010:9043   */\n      swap2\n      pop\n        /* \"#utility.yul\":9065:9131   */\n      0xffffffffffffffffffffffffffffffffffffffffffffffffffffffffffffffff\n        /* \"#utility.yul\":9058:9063   */\n      dup3\n        /* \"#utility.yul\":9055:9132   */\n      sub\n        /* \"#utility.yul\":9052:9155   */\n      tag_275\n      jumpi\n        /* \"#utility.yul\":9135:9153   */\n      tag_276\n      tag_155\n      jump\t// in\n    tag_276:\n        /* \"#utility.yul\":9052:9155   */\n    tag_275:\n        /* \"#utility.yul\":9182:9183   */\n      0x01\n        /* \"#utility.yul\":9175:9180   */\n      dup3\n        /* \"#utility.yul\":9171:9184   */\n      add\n        /* \"#utility.yul\":9164:9184   */\n      swap1\n      pop\n        /* \"#utility.yul\":8957:9190   */\n      swap2\n      swap1\n      pop\n      jump\t// out\n        /* \"#utility.yul\":9196:9376   */\n    tag_156:\n        /* \"#utility.yul\":9244:9321   */\n      0x4e487b7100000000000000000000000000000000000000000000000000000000\n        /* \"#utility.yul\":9241:9242   */\n      0x00\n        /* \"#utility.yul\":9234:9322   */\n      mstore\n        /* \"#utility.yul\":9341:9345   */\n      0x22\n        /* \"#utility.yul\":9338:9339   */\n      0x04\n        /* \"#utility.yul\":9331:9346   */\n      mstore\n        /* \"#utility.yul\":9365:9369   */\n      0x24\n        /* \"#utility.yul\":9362:9363   */\n      0x00\n        /* \"#utility.yul\":9355:9370   */\n      revert\n        /* \"#utility.yul\":9382:9702   */\n    tag_87:\n        /* \"#utility.yul\":9426:9432   */\n      0x00\n        /* \"#utility.yul\":9463:9464   */\n      0x02\n        /* \"#utility.yul\":9457:9461   */\n      dup3\n        /* \"#utility.yul\":9453:9465   */\n      div\n        /* \"#utility.yul\":9443:9465   */\n      swap1\n      pop\n        /* \"#utility.yul\":9510:9511   */\n      0x01\n        /* \"#utility.yul\":9504:9508   */\n      dup3\n        /* \"#utility.yul\":9500:9512   */\n      and\n        /* \"#utility.yul\":9531:9549   */\n      dup1\n        /* \"#utility.yul\":9521:9602   */\n      tag_279\n      jumpi\n        /* \"#utility.yul\":9587:9591   */\n      0x7f\n        /* \"#utility.yul\":9579:9585   */\n      dup3\n        /* \"#utility.yul\":9575:9592   */\n      and\n        /* \"#utility.yul\":9565:9592   */\n      swap2\n      pop\n        /* \"#utility.yul\":9521:9602   */\n    tag_279:\n        /* \"#utility.yul\":9649:9651   */\n      0x20\n        /* \"#utility.yul\":9641:9647   */\n      dup3\n        /* \"#utility.yul\":9638:9652   */\n      lt\n        /* \"#utility.yul\":9618:9636   */\n      dup2\n        /* \"#utility.yul\":9615:9653   */\n      sub\n        /* \"#utility.yul\":9612:9696   */\n      tag_280\n      jumpi\n        /* \"#utility.yul\":9668:9686   */\n      tag_281\n      tag_156\n      jump\t// in\n    tag_281:\n        /* \"#utility.yul\":9612:9696   */\n    tag_280:\n        /* \"#utility.yul\":9433:9702   */\n      pop\n        /* \"#utility.yul\":9382:9702   */\n      swap2\n      swap1\n      pop\n      jump\t// out\n        /* \"#utility.yul\":9708:9849   */\n    tag_157:\n        /* \"#utility.yul\":9757:9761   */\n      0x00\n        /* \"#utility.yul\":9780:9783   */\n      dup2\n        /* \"#utility.yul\":9772:9783   */\n      swap1\n      pop\n        /* \"#utility.yul\":9803:9806   */\n      dup2\n        /* \"#utility.yul\":9800:9801   */\n      0x00\n        /* \"#utility.yul\":9793:9807   */\n      mstore\n        /* \"#utility.yul\":9837:9841   */\n      0x20\n        /* \"#utility.yul\":9834:9835   */\n      0x00\n        /* \"#utility.yul\":9824:9842   */\n      keccak256\n        /* \"#utility.yul\":9816:9842   */\n      swap1\n      pop\n        /* \"#utility.yul\":9708:9849   */\n      swap2\n      swap1\n      pop\n      jump\t// out\n        /* \"#utility.yul\":9855:9948   */\n    tag_158:\n        /* \"#utility.yul\":9892:9898   */\n      0x00\n        /* \"#utility.yul\":9939:9941   */\n      0x20\n        /* \"#utility.yul\":9934:9936   */\n      0x1f\n        /* \"#utility.yul\":9927:9932   */\n      dup4\n        /* \"#utility.yul\":9923:9937   */\n      add\n        /* \"#utility.yul\":9919:9942   */\n      div\n        /* \"#utility.yul\":9909:9942   */\n      swap1\n      pop\n        /* \"#utility.yul\":9855:9948   */\n      swap2\n      swap1\n      pop\n      jump\t// out\n        /* \"#utility.yul\":9954:10061   */\n    tag_159:\n        /* \"#utility.yul\":9998:10006   */\n      0x00\n        /* \"#utility.yul\":10048:10053   */\n      dup3\n        /* \"#utility.yul\":10042:10046   */\n      dup3\n        /* \"#utility.yul\":10038:10054   */\n      shl\n        /* \"#utility.yul\":10017:10054   */\n      swap1\n      pop\n        /* \"#utility.yul\":9954:10061   */\n      swap3\n      swap2\n      pop\n      pop\n      jump\t// out\n        /* \"#utility.yul\":10067:10460   */\n    tag_160:\n        /* \"#utility.yul\":10136:10142   */\n      0x00\n        /* \"#utility.yul\":10186:10187   */\n      0x08\n        /* \"#utility.yul\":10174:10184   */\n      dup4\n        /* \"#utility.yul\":10170:10188   */\n      mul\n        /* \"#utility.yul\":10209:10306   */\n      tag_286\n        /* \"#utility.yul\":10239:10305   */\n      0xffffffffffffffffffffffffffffffffffffffffffffffffffffffffffffffff\n        /* \"#utility.yul\":10228:10237   */\n      dup3\n        /* \"#utility.yul\":10209:10306   */\n      tag_159\n      jump\t// in\n    tag_286:\n        /* \"#utility.yul\":10327:10366   */\n      tag_287\n        /* \"#utility.yul\":10357:10365   */\n      dup7\n        /* \"#utility.yul\":10346:10355   */\n      dup4\n        /* \"#utility.yul\":10327:10366   */\n      tag_159\n      jump\t// in\n    tag_287:\n        /* \"#utility.yul\":10315:10366   */\n      swap6\n      pop\n        /* \"#utility.yul\":10399:10403   */\n      dup1\n        /* \"#utility.yul\":10395:10404   */\n      not\n        /* \"#utility.yul\":10388:10393   */\n      dup5\n        /* \"#utility.yul\":10384:10405   */\n      and\n        /* \"#utility.yul\":10375:10405   */\n      swap4\n      pop\n        /* \"#utility.yul\":10448:10452   */\n      dup1\n        /* \"#utility.yul\":10438:10446   */\n      dup7\n        /* \"#utility.yul\":10434:10453   */\n      and\n        /* \"#utility.yul\":10427:10432   */\n      dup5\n        /* \"#utility.yul\":10424:10454   */\n      or\n        /* \"#utility.yul\":10414:10454   */\n      swap3\n      pop\n        /* \"#utility.yul\":10143:10460   */\n      pop\n      pop\n        /* \"#utility.yul\":10067:10460   */\n      swap4\n      swap3\n      pop\n      pop\n      pop\n      jump\t// out\n        /* \"#utility.yul\":10466:10526   */\n    tag_161:\n        /* \"#utility.yul\":10494:10497   */\n      0x00\n        /* \"#utility.yul\":10515:10520   */\n      dup2\n        /* \"#utility.yul\":10508:10520   */\n      swap1\n      pop\n        /* \"#utility.yul\":10466:10526   */\n      swap2\n      swap1\n      pop\n      jump\t// out\n        /* \"#utility.yul\":10532:10674   */\n    tag_162:\n        /* \"#utility.yul\":10582:10591   */\n      0x00\n        /* \"#utility.yul\":10615:10668   */\n      tag_290\n        /* \"#utility.yul\":10633:10667   */\n      tag_291\n        /* \"#utility.yul\":10642:10666   */\n      tag_292\n        /* \"#utility.yul\":10660:10665   */\n      dup5\n        /* \"#utility.yul\":10642:10666   */\n      tag_127\n      jump\t// in\n    tag_292:\n        /* \"#utility.yul\":10633:10667   */\n      tag_161\n      jump\t// in\n    tag_291:\n        /* \"#utility.yul\":10615:10668   */\n      tag_127\n      jump\t// in\n    tag_290:\n        /* \"#utility.yul\":10602:10668   */\n      swap1\n      pop\n        /* \"#utility.yul\":10532:10674   */\n      swap2\n      swap1\n      pop\n      jump\t// out\n        /* \"#utility.yul\":10680:10755   */\n    tag_163:\n        /* \"#utility.yul\":10723:10726   */\n      0x00\n        /* \"#utility.yul\":10744:10749   */\n      dup2\n        /* \"#utility.yul\":10737:10749   */\n      swap1\n      pop\n        /* \"#utility.yul\":10680:10755   */\n      swap2\n      swap1\n      pop\n      jump\t// out\n        /* \"#utility.yul\":10761:11030   */\n    tag_164:\n        /* \"#utility.yul\":10871:10910   */\n      tag_295\n        /* \"#utility.yul\":10902:10909   */\n      dup4\n        /* \"#utility.yul\":10871:10910   */\n      tag_162\n      jump\t// in\n    tag_295:\n        /* \"#utility.yul\":10932:11023   */\n      tag_296\n        /* \"#utility.yul\":10981:11022   */\n      tag_297\n        /* \"#utility.yul\":11005:11021   */\n      dup3\n        /* \"#utility.yul\":10981:11022   */\n      tag_163\n      jump\t// in\n    tag_297:\n        /* \"#utility.yul\":10973:10979   */\n      dup5\n        /* \"#utility.yul\":10966:10970   */\n      dup5\n        /* \"#utility.yul\":10960:10971   */\n      sload\n        /* \"#utility.yul\":10932:11023   */\n      tag_160\n      jump\t// in\n    tag_296:\n        /* \"#utility.yul\":10926:10930   */\n      dup3\n        /* \"#utility.yul\":10919:11024   */\n      sstore\n        /* \"#utility.yul\":10837:11030   */\n      pop\n        /* \"#utility.yul\":10761:11030   */\n      pop\n      pop\n      pop\n      jump\t// out\n        /* \"#utility.yul\":11036:11109   */\n    tag_165:\n        /* \"#utility.yul\":11081:11084   */\n      0x00\n        /* \"#utility.yul\":11036:11109   */\n      swap1\n      jump\t// out\n        /* \"#utility.yul\":11115:11304   */\n    tag_166:\n        /* \"#utility.yul\":11192:11224   */\n      tag_300\n      tag_165\n      jump\t// in\n    tag_300:\n        /* \"#utility.yul\":11233:11298   */\n      tag_301\n        /* \"#utility.yul\":11291:11297   */\n      dup2\n        /* \"#utility.yul\":11283:11289   */\n      dup5\n        /* \"#utility.yul\":11277:11281   */\n      dup5\n        /* \"#utility.yul\":11233:11298   */\n      tag_164\n      jump\t// in\n    tag_301:\n        /* \"#utility.yul\":11168:11304   */\n      pop\n        /* \"#utility.yul\":11115:11304   */\n      pop\n      pop\n      jump\t// out\n        /* \"#utility.yul\":11310:11496   */\n    tag_167:\n        /* \"#utility.yul\":11370:11490   */\n    tag_303:\n        /* \"#utility.yul\":11387:11390   */\n      dup2\n        /* \"#utility.yul\":11380:11385   */\n      dup2\n        /* \"#utility.yul\":11377:11391   */\n      lt\n        /* \"#utility.yul\":11370:11490   */\n      iszero\n      tag_305\n      jumpi\n        /* \"#utility.yul\":11441:11480   */\n      tag_306\n        /* \"#utility.yul\":11478:11479   */\n      0x00\n        /* \"#utility.yul\":11471:11476   */\n      dup3\n        /* \"#utility.yul\":11441:11480   */\n      tag_166\n      jump\t// in\n    tag_306:\n        /* \"#utility.yul\":11414:11415   */\n      0x01\n        /* \"#utility.yul\":11407:11412   */\n      dup2\n        /* \"#utility.yul\":11403:11416   */\n      add\n        /* \"#utility.yul\":11394:11416   */\n      swap1\n      pop\n        /* \"#utility.yul\":11370:11490   */\n      jump(tag_303)\n    tag_305:\n        /* \"#utility.yul\":11310:11496   */\n      pop\n      pop\n      jump\t// out\n        /* \"#utility.yul\":11502:12045   */\n    tag_168:\n        /* \"#utility.yul\":11603:11605   */\n      0x1f\n        /* \"#utility.yul\":11598:11601   */\n      dup3\n        /* \"#utility.yul\":11595:11606   */\n      gt\n        /* \"#utility.yul\":11592:12038   */\n      iszero\n      tag_308\n      jumpi\n        /* \"#utility.yul\":11637:11675   */\n      tag_309\n        /* \"#utility.yul\":11669:11674   */\n      dup2\n        /* \"#utility.yul\":11637:11675   */\n      tag_157\n      jump\t// in\n    tag_309:\n        /* \"#utility.yul\":11721:11750   */\n      tag_310\n        /* \"#utility.yul\":11739:11749   */\n      dup5\n        /* \"#utility.yul\":11721:11750   */\n      tag_158\n      jump\t// in\n    tag_310:\n        /* \"#utility.yul\":11711:11719   */\n      dup2\n        /* \"#utility.yul\":11707:11751   */\n      add\n        /* \"#utility.yul\":11904:11906   */\n      0x20\n        /* \"#utility.yul\":11892:11902   */\n      dup6\n        /* \"#utility.yul\":11889:11907   */\n      lt\n        /* \"#utility.yul\":11886:11935   */\n      iszero\n      tag_311\n      jumpi\n        /* \"#utility.yul\":11925:11933   */\n      dup2\n        /* \"#utility.yul\":11910:11933   */\n      swap1\n      pop\n        /* \"#utility.yul\":11886:11935   */\n    tag_311:\n        /* \"#utility.yul\":11948:12028   */\n      tag_312\n        /* \"#utility.yul\":12004:12026   */\n      tag_313\n        /* \"#utility.yul\":12022:12025   */\n      dup6\n        /* \"#utility.yul\":12004:12026   */\n      tag_158\n      jump\t// in\n    tag_313:\n        /* \"#utility.yul\":11994:12002   */\n      dup4\n        /* \"#utility.yul\":11990:12027   */\n      add\n        /* \"#utility.yul\":11977:11988   */\n      dup3\n        /* \"#utility.yul\":11948:12028   */\n      tag_167\n      jump\t// in\n    tag_312:\n        /* \"#utility.yul\":11607:12038   */\n      pop\n      pop\n        /* \"#utility.yul\":11592:12038   */\n    tag_308:\n        /* \"#utility.yul\":11502:12045   */\n      pop\n      pop\n      pop\n      jump\t// out\n        /* \"#utility.yul\":12051:12168   */\n    tag_169:\n        /* \"#utility.yul\":12105:12113   */\n      0x00\n        /* \"#utility.yul\":12155:12160   */\n      dup3\n        /* \"#utility.yul\":12149:12153   */\n      dup3\n        /* \"#utility.yul\":12145:12161   */\n      shr\n        /* \"#utility.yul\":12124:12161   */\n      swap1\n      pop\n        /* \"#utility.yul\":12051:12168   */\n      swap3\n      swap2\n      pop\n      pop\n      jump\t// out\n        /* \"#utility.yul\":12174:12343   */\n    tag_170:\n        /* \"#utility.yul\":12218:12224   */\n      0x00\n        /* \"#utility.yul\":12251:12302   */\n      tag_316\n        /* \"#utility.yul\":12299:12300   */\n      0x00\n        /* \"#utility.yul\":12295:12301   */\n      not\n        /* \"#utility.yul\":12287:12292   */\n      dup5\n        /* \"#utility.yul\":12284:12285   */\n      0x08\n        /* \"#utility.yul\":12280:12293   */\n      mul\n        /* \"#utility.yul\":12251:12302   */\n      tag_169\n      jump\t// in\n    tag_316:\n        /* \"#utility.yul\":12247:12303   */\n      not\n        /* \"#utility.yul\":12332:12336   */\n      dup1\n        /* \"#utility.yul\":12326:12330   */\n      dup4\n        /* \"#utility.yul\":12322:12337   */\n      and\n        /* \"#utility.yul\":12312:12337   */\n      swap2\n      pop\n        /* \"#utility.yul\":12225:12343   */\n      pop\n        /* \"#utility.yul\":12174:12343   */\n      swap3\n      swap2\n      pop\n      pop\n      jump\t// out\n        /* \"#utility.yul\":12348:12643   */\n    tag_171:\n        /* \"#utility.yul\":12424:12428   */\n      0x00\n        /* \"#utility.yul\":12570:12599   */\n      tag_318\n        /* \"#utility.yul\":12595:12598   */\n      dup4\n        /* \"#utility.yul\":12589:12593   */\n      dup4\n        /* \"#utility.yul\":12570:12599   */\n      tag_170\n      jump\t// in\n    tag_318:\n        /* \"#utility.yul\":12562:12599   */\n      swap2\n      pop\n        /* \"#utility.yul\":12632:12635   */\n      dup3\n        /* \"#utility.yul\":12629:12630   */\n      0x02\n        /* \"#utility.yul\":12625:12636   */\n      mul\n        /* \"#utility.yul\":12619:12623   */\n      dup3\n        /* \"#utility.yul\":12616:12637   */\n      or\n        /* \"#utility.yul\":12608:12637   */\n      swap1\n      pop\n        /* \"#utility.yul\":12348:12643   */\n      swap3\n      swap2\n      pop\n      pop\n      jump\t// out\n        /* \"#utility.yul\":12648:14043   */\n    tag_97:\n        /* \"#utility.yul\":12765:12802   */\n      tag_320\n        /* \"#utility.yul\":12798:12801   */\n      dup3\n        /* \"#utility.yul\":12765:12802   */\n      tag_141\n      jump\t// in\n    tag_320:\n        /* \"#utility.yul\":12867:12885   */\n      0xffffffffffffffff\n        /* \"#utility.yul\":12859:12865   */\n      dup2\n        /* \"#utility.yul\":12856:12886   */\n      gt\n        /* \"#utility.yul\":12853:12909   */\n      iszero\n      tag_321\n      jumpi\n        /* \"#utility.yul\":12889:12907   */\n      tag_322\n      tag_148\n      jump\t// in\n    tag_322:\n        /* \"#utility.yul\":12853:12909   */\n    tag_321:\n        /* \"#utility.yul\":12933:12971   */\n      tag_323\n        /* \"#utility.yul\":12965:12969   */\n      dup3\n        /* \"#utility.yul\":12959:12970   */\n      sload\n        /* \"#utility.yul\":12933:12971   */\n      tag_87\n      jump\t// in\n    tag_323:\n        /* \"#utility.yul\":13018:13085   */\n      tag_324\n        /* \"#utility.yul\":13078:13084   */\n      dup3\n        /* \"#utility.yul\":13070:13076   */\n      dup3\n        /* \"#utility.yul\":13064:13068   */\n      dup6\n        /* \"#utility.yul\":13018:13085   */\n      tag_168\n      jump\t// in\n    tag_324:\n        /* \"#utility.yul\":13112:13113   */\n      0x00\n        /* \"#utility.yul\":13136:13140   */\n      0x20\n        /* \"#utility.yul\":13123:13140   */\n      swap1\n      pop\n        /* \"#utility.yul\":13168:13170   */\n      0x1f\n        /* \"#utility.yul\":13160:13166   */\n      dup4\n        /* \"#utility.yul\":13157:13171   */\n      gt\n        /* \"#utility.yul\":13185:13186   */\n      0x01\n        /* \"#utility.yul\":13180:13798   */\n      dup2\n      eq\n      tag_326\n      jumpi\n        /* \"#utility.yul\":13842:13843   */\n      0x00\n        /* \"#utility.yul\":13859:13865   */\n      dup5\n        /* \"#utility.yul\":13856:13933   */\n      iszero\n      tag_327\n      jumpi\n        /* \"#utility.yul\":13908:13917   */\n      dup3\n        /* \"#utility.yul\":13903:13906   */\n      dup8\n        /* \"#utility.yul\":13899:13918   */\n      add\n        /* \"#utility.yul\":13893:13919   */\n      mload\n        /* \"#utility.yul\":13884:13919   */\n      swap1\n      pop\n        /* \"#utility.yul\":13856:13933   */\n    tag_327:\n        /* \"#utility.yul\":13959:14026   */\n      tag_328\n        /* \"#utility.yul\":14019:14025   */\n      dup6\n        /* \"#utility.yul\":14012:14017   */\n      dup3\n        /* \"#utility.yul\":13959:14026   */\n      tag_171\n      jump\t// in\n    tag_328:\n        /* \"#utility.yul\":13953:13957   */\n      dup7\n        /* \"#utility.yul\":13946:14027   */\n      sstore\n        /* \"#utility.yul\":13815:14037   */\n      pop\n        /* \"#utility.yul\":13150:14037   */\n      jump(tag_325)\n        /* \"#utility.yul\":13180:13798   */\n    tag_326:\n        /* \"#utility.yul\":13232:13236   */\n      0x1f\n        /* \"#utility.yul\":13228:13237   */\n      not\n        /* \"#utility.yul\":13220:13226   */\n      dup5\n        /* \"#utility.yul\":13216:13238   */\n      and\n        /* \"#utility.yul\":13266:13303   */\n      tag_329\n        /* \"#utility.yul\":13298:13302   */\n      dup7\n        /* \"#utility.yul\":13266:13303   */\n      tag_157\n      jump\t// in\n    tag_329:\n        /* \"#utility.yul\":13325:13326   */\n      0x00\n        /* \"#utility.yul\":13339:13547   */\n    tag_330:\n        /* \"#utility.yul\":13353:13360   */\n      dup3\n        /* \"#utility.yul\":13350:13351   */\n      dup2\n        /* \"#utility.yul\":13347:13361   */\n      lt\n        /* \"#utility.yul\":13339:13547   */\n      iszero\n      tag_332\n      jumpi\n        /* \"#utility.yul\":13432:13441   */\n      dup5\n        /* \"#utility.yul\":13427:13430   */\n      dup10\n        /* \"#utility.yul\":13423:13442   */\n      add\n        /* \"#utility.yul\":13417:13443   */\n      mload\n        /* \"#utility.yul\":13409:13415   */\n      dup3\n        /* \"#utility.yul\":13402:13444   */\n      sstore\n        /* \"#utility.yul\":13483:13484   */\n      0x01\n        /* \"#utility.yul\":13475:13481   */\n      dup3\n        /* \"#utility.yul\":13471:13485   */\n      add\n        /* \"#utility.yul\":13461:13485   */\n      swap2\n      pop\n        /* \"#utility.yul\":13530:13532   */\n      0x20\n        /* \"#utility.yul\":13519:13528   */\n      dup6\n        /* \"#utility.yul\":13515:13533   */\n      add\n        /* \"#utility.yul\":13502:13533   */\n      swap5\n      pop\n        /* \"#utility.yul\":13376:13380   */\n      0x20\n        /* \"#utility.yul\":13373:13374   */\n      dup2\n        /* \"#utility.yul\":13369:13381   */\n      add\n        /* \"#utility.yul\":13364:13381   */\n      swap1\n      pop\n        /* \"#utility.yul\":13339:13547   */\n      jump(tag_330)\n    tag_332:\n        /* \"#utility.yul\":13575:13581   */\n      dup7\n        /* \"#utility.yul\":13566:13573   */\n      dup4\n        /* \"#utility.yul\":13563:13582   */\n      lt\n        /* \"#utility.yul\":13560:13739   */\n      iszero\n      tag_333\n      jumpi\n        /* \"#utility.yul\":13633:13642   */\n      dup5\n        /* \"#utility.yul\":13628:13631   */\n      dup10\n        /* \"#utility.yul\":13624:13643   */\n      add\n        /* \"#utility.yul\":13618:13644   */\n      mload\n        /* \"#utility.yul\":13676:13724   */\n      tag_334\n        /* \"#utility.yul\":13718:13722   */\n      0x1f\n        /* \"#utility.yul\":13710:13716   */\n      dup10\n        /* \"#utility.yul\":13706:13723   */\n      and\n        /* \"#utility.yul\":13695:13704   */\n      dup3\n        /* \"#utility.yul\":13676:13724   */\n      tag_170\n      jump\t// in\n    tag_334:\n        /* \"#utility.yul\":13668:13674   */\n      dup4\n        /* \"#utility.yul\":13661:13725   */\n      sstore\n        /* \"#utility.yul\":13583:13739   */\n      pop\n        /* \"#utility.yul\":13560:13739   */\n    tag_333:\n        /* \"#utility.yul\":13785:13786   */\n      0x01\n        /* \"#utility.yul\":13781:13782   */\n      0x02\n        /* \"#utility.yul\":13773:13779   */\n      dup9\n        /* \"#utility.yul\":13769:13783   */\n      mul\n        /* \"#utility.yul\":13765:13787   */\n      add\n        /* \"#utility.yul\":13759:13763   */\n      dup9\n        /* \"#utility.yul\":13752:13788   */\n      sstore\n        /* \"#utility.yul\":13187:13798   */\n      pop\n      pop\n      pop\n        /* \"#utility.yul\":13150:14037   */\n    tag_325:\n      pop\n        /* \"#utility.yul\":12740:14043   */\n      pop\n      pop\n      pop\n        /* \"#utility.yul\":12648:14043   */\n      pop\n      pop\n      jump\t// out\n        /* \"#utility.yul\":14049:14229   */\n    tag_172:\n        /* \"#utility.yul\":14097:14174   */\n      0x4e487b7100000000000000000000000000000000000000000000000000000000\n        /* \"#utility.yul\":14094:14095   */\n      0x00\n        /* \"#utility.yul\":14087:14175   */\n      mstore\n        /* \"#utility.yul\":14194:14198   */\n      0x12\n        /* \"#utility.yul\":14191:14192   */\n      0x04\n        /* \"#utility.yul\":14184:14199   */\n      mstore\n        /* \"#utility.yul\":14218:14222   */\n      0x24\n        /* \"#utility.yul\":14215:14216   */\n      0x00\n        /* \"#utility.yul\":14208:14223   */\n      revert\n        /* \"#utility.yul\":14235:14420   */\n    tag_106:\n        /* \"#utility.yul\":14275:14276   */\n      0x00\n        /* \"#utility.yul\":14292:14312   */\n      tag_337\n        /* \"#utility.yul\":14310:14311   */\n      dup3\n        /* \"#utility.yul\":14292:14312   */\n      tag_127\n      jump\t// in\n    tag_337:\n        /* \"#utility.yul\":14287:14312   */\n      swap2\n      pop\n        /* \"#utility.yul\":14326:14346   */\n      tag_338\n        /* \"#utility.yul\":14344:14345   */\n      dup4\n        /* \"#utility.yul\":14326:14346   */\n      tag_127\n      jump\t// in\n    tag_338:\n        /* \"#utility.yul\":14321:14346   */\n      swap3\n      pop\n        /* \"#utility.yul\":14365:14366   */\n      dup3\n        /* \"#utility.yul\":14355:14390   */\n      tag_339\n      jumpi\n        /* \"#utility.yul\":14370:14388   */\n      tag_340\n      tag_172\n      jump\t// in\n    tag_340:\n        /* \"#utility.yul\":14355:14390   */\n    tag_339:\n        /* \"#utility.yul\":14412:14413   */\n      dup3\n        /* \"#utility.yul\":14409:14410   */\n      dup3\n        /* \"#utility.yul\":14405:14414   */\n      div\n        /* \"#utility.yul\":14400:14414   */\n      swap1\n      pop\n        /* \"#utility.yul\":14235:14420   */\n      swap3\n      swap2\n      pop\n      pop\n      jump\t// out\n\n    auxdata: 0xa2646970667358221220356f23fcfebbfe868714b67a5ebe1277f24e72cc8b121ddba26e8b4020f0f13464736f6c634300080f0033\n}\n","bytecode":{"linkReferences":{},"object":"60806040523480156200001157600080fd5b50604051620013963803806200139683398181016040528101906200003791906200012b565b806000806101000a81548173ffffffffffffffffffffffffffffffffffffffff021916908373ffffffffffffffffffffffffffffffffffffffff16021790555081600181905550505062000172565b600080fd5b6000819050919050565b620000a0816200008b565b8114620000ac57600080fd5b50565b600081519050620000c08162000095565b92915050565b600073ffffffffffffffffffffffffffffffffffffffff82169050919050565b6000620000f382620000c6565b9050919050565b6200010581620000e6565b81146200011157600080fd5b50565b6000815190506200012581620000fa565b92915050565b6000806040838503121562000145576200014462000086565b5b60006200015585828601620000af565b9250506020620001688582860162000114565b9150509250929050565b61121480620001826000396000f3fe60806040526004361061009c5760003560e01c806381d12c581161006457806381d12c581461018c578063b3468311146101cd578063c799a6bf146101f6578063c7b231051461021f578063cca289581461024a578063d7bb99ba146102755761009c565b806303ba79ee146100a15780630c99d130146100d05780631f6d4942146100f9578063481c6a751461013657806380e52d6814610161575b600080fd5b3480156100ad57600080fd5b506100b661027f565b6040516100c79594939291906109af565b60405180910390f35b3480156100dc57600080fd5b506100f760048036038101906100f29190610a42565b6102c6565b005b34801561010557600080fd5b50610120600480360381019061011b9190610a9b565b610453565b60405161012d9190610ae3565b60405180910390f35b34801561014257600080fd5b5061014b610473565b6040516101589190610afe565b60405180910390f35b34801561016d57600080fd5b50610176610497565b6040516101839190610b19565b60405180910390f35b34801561019857600080fd5b506101b360048036038101906101ae9190610a42565b61049d565b6040516101c4959493929190610bcd565b60405180910390f35b3480156101d957600080fd5b506101f460048036038101906101ef9190610d5c565b610598565b005b34801561020257600080fd5b5061021d60048036038101906102189190610a42565b61069f565b005b34801561022b57600080fd5b5061023461086b565b6040516102419190610b19565b60405180910390f35b34801561025657600080fd5b5061025f610871565b60405161026c9190610b19565b60405180910390f35b61027d61087e565b005b60008060008060006001544760048054905060035460008054906101000a900473ffffffffffffffffffffffffffffffffffffffff16945094509450945094509091929394565b600260003373ffffffffffffffffffffffffffffffffffffffff1673ffffffffffffffffffffffffffffffffffffffff16815260200190815260200160002060009054906101000a900460ff166103205761031f610dcb565b5b6004818154811061033457610333610dfa565b5b906000526020600020906005020160030160003373ffffffffffffffffffffffffffffffffffffffff1673ffffffffffffffffffffffffffffffffffffffff16815260200190815260200160002060009054906101000a900460ff161561039a57600080fd5b6001600482815481106103b0576103af610dfa565b5b906000526020600020906005020160030160003373ffffffffffffffffffffffffffffffffffffffff1673ffffffffffffffffffffffffffffffffffffffff16815260200190815260200160002060006101000a81548160ff0219169083151502179055506004818154811061042957610428610dfa565b5b9060005260206000209060050201600401600081548092919061044b90610e58565b919050555050565b60026020528060005260406000206000915054906101000a900460ff1681565b60008054906101000a900473ffffffffffffffffffffffffffffffffffffffff1681565b60015481565b600481815481106104ad57600080fd5b90600052602060002090600502016000915090508060000180546104d090610ecf565b80601f01602080910402602001604051908101604052809291908181526020018280546104fc90610ecf565b80156105495780601f1061051e57610100808354040283529160200191610549565b820191906000526020600020905b81548152906001019060200180831161052c57829003601f168201915b5050505050908060010154908060020160009054906101000a900473ffffffffffffffffffffffffffffffffffffffff16908060020160149054906101000a900460ff16908060040154905085565b60008054906101000a900473ffffffffffffffffffffffffffffffffffffffff1673ffffffffffffffffffffffffffffffffffffffff163373ffffffffffffffffffffffffffffffffffffffff16146105f057600080fd5b6000600460018160018154018082558091505003906000526020600020906005020190508381600001908161062591906110ac565b50828160010181905550818160020160006101000a81548173ffffffffffffffffffffffffffffffffffffffff021916908373ffffffffffffffffffffffffffffffffffffffff16021790555060008160020160146101000a81548160ff0219169083151502179055506000816004018190555050505050565b60008054906101000a900473ffffffffffffffffffffffffffffffffffffffff1673ffffffffffffffffffffffffffffffffffffffff163373ffffffffffffffffffffffffffffffffffffffff16146106f757600080fd5b6004818154811061070b5761070a610dfa565b5b906000526020600020906005020160020160149054906101000a900460ff161561073457600080fd5b600260035461074391906111ad565b6004828154811061075757610756610dfa565b5b9060005260206000209060050201600401541161077357600080fd5b60016004828154811061078957610788610dfa565b5b906000526020600020906005020160020160146101000a81548160ff0219169083151502179055506000600482815481106107c7576107c6610dfa565b5b906000526020600020906005020160020160009054906101000a900473ffffffffffffffffffffffffffffffffffffffff1690508073ffffffffffffffffffffffffffffffffffffffff166108fc6004848154811061082957610828610dfa565b5b9060005260206000209060050201600101549081150290604051600060405180830381858888f19350505050158015610866573d6000803e3d6000fd5b505050565b60035481565b6000600480549050905090565b600154341161088c57600080fd5b600260003373ffffffffffffffffffffffffffffffffffffffff1673ffffffffffffffffffffffffffffffffffffffff16815260200190815260200160002060009054906101000a900460ff16156108e357600080fd5b6001600260003373ffffffffffffffffffffffffffffffffffffffff1673ffffffffffffffffffffffffffffffffffffffff16815260200190815260200160002060006101000a81548160ff0219169083151502179055506003600081548092919061094e90610e58565b9190505550565b6000819050919050565b61096881610955565b82525050565b600073ffffffffffffffffffffffffffffffffffffffff82169050919050565b60006109998261096e565b9050919050565b6109a98161098e565b82525050565b600060a0820190506109c4600083018861095f565b6109d1602083018761095f565b6109de604083018661095f565b6109eb606083018561095f565b6109f860808301846109a0565b9695505050505050565b6000604051905090565b600080fd5b600080fd5b610a1f81610955565b8114610a2a57600080fd5b50565b600081359050610a3c81610a16565b92915050565b600060208284031215610a5857610a57610a0c565b5b6000610a6684828501610a2d565b91505092915050565b610a788161098e565b8114610a8357600080fd5b50565b600081359050610a9581610a6f565b92915050565b600060208284031215610ab157610ab0610a0c565b5b6000610abf84828501610a86565b91505092915050565b60008115159050919050565b610add81610ac8565b82525050565b6000602082019050610af86000830184610ad4565b92915050565b6000602082019050610b1360008301846109a0565b92915050565b6000602082019050610b2e600083018461095f565b92915050565b600081519050919050565b600082825260208201905092915050565b60005b83811015610b6e578082015181840152602081019050610b53565b83811115610b7d576000848401525b50505050565b6000601f19601f8301169050919050565b6000610b9f82610b34565b610ba98185610b3f565b9350610bb9818560208601610b50565b610bc281610b83565b840191505092915050565b600060a0820190508181036000830152610be78188610b94565b9050610bf6602083018761095f565b610c0360408301866109a0565b610c106060830185610ad4565b610c1d608083018461095f565b9695505050505050565b600080fd5b600080fd5b7f4e487b7100000000000000000000000000000000000000000000000000000000600052604160045260246000fd5b610c6982610b83565b810181811067ffffffffffffffff82111715610c8857610c87610c31565b5b80604052505050565b6000610c9b610a02565b9050610ca78282610c60565b919050565b600067ffffffffffffffff821115610cc757610cc6610c31565b5b610cd082610b83565b9050602081019050919050565b82818337600083830152505050565b6000610cff610cfa84610cac565b610c91565b905082815260208101848484011115610d1b57610d1a610c2c565b5b610d26848285610cdd565b509392505050565b600082601f830112610d4357610d42610c27565b5b8135610d53848260208601610cec565b91505092915050565b600080600060608486031215610d7557610d74610a0c565b5b600084013567ffffffffffffffff811115610d9357610d92610a11565b5b610d9f86828701610d2e565b9350506020610db086828701610a2d565b9250506040610dc186828701610a86565b9150509250925092565b7f4e487b7100000000000000000000000000000000000000000000000000000000600052600160045260246000fd5b7f4e487b7100000000000000000000000000000000000000000000000000000000600052603260045260246000fd5b7f4e487b7100000000000000000000000000000000000000000000000000000000600052601160045260246000fd5b6000610e6382610955565b91507fffffffffffffffffffffffffffffffffffffffffffffffffffffffffffffffff8203610e9557610e94610e29565b5b600182019050919050565b7f4e487b7100000000000000000000000000000000000000000000000000000000600052602260045260246000fd5b60006002820490506001821680610ee757607f821691505b602082108103610efa57610ef9610ea0565b5b50919050565b60008190508160005260206000209050919050565b60006020601f8301049050919050565b600082821b905092915050565b600060088302610f627fffffffffffffffffffffffffffffffffffffffffffffffffffffffffffffffff82610f25565b610f6c8683610f25565b95508019841693508086168417925050509392505050565b6000819050919050565b6000610fa9610fa4610f9f84610955565b610f84565b610955565b9050919050565b6000819050919050565b610fc383610f8e565b610fd7610fcf82610fb0565b848454610f32565b825550505050565b600090565b610fec610fdf565b610ff7818484610fba565b505050565b5b8181101561101b57611010600082610fe4565b600181019050610ffd565b5050565b601f8211156110605761103181610f00565b61103a84610f15565b81016020851015611049578190505b61105d61105585610f15565b830182610ffc565b50505b505050565b600082821c905092915050565b600061108360001984600802611065565b1980831691505092915050565b600061109c8383611072565b9150826002028217905092915050565b6110b582610b34565b67ffffffffffffffff8111156110ce576110cd610c31565b5b6110d88254610ecf565b6110e382828561101f565b600060209050601f8311600181146111165760008415611104578287015190505b61110e8582611090565b865550611176565b601f19841661112486610f00565b60005b8281101561114c57848901518255600182019150602085019450602081019050611127565b868310156111695784890151611165601f891682611072565b8355505b6001600288020188555050505b505050505050565b7f4e487b7100000000000000000000000000000000000000000000000000000000600052601260045260246000fd5b60006111b882610955565b91506111c383610955565b9250826111d3576111d261117e565b5b82820490509291505056fea2646970667358221220356f23fcfebbfe868714b67a5ebe1277f24e72cc8b121ddba26e8b4020f0f13464736f6c634300080f0033","opcodes":"PUSH1 0x80 PUSH1 0x40 MSTORE CALLVALUE DUP1 ISZERO PUSH3 0x11 JUMPI PUSH1 0x0 DUP1 REVERT JUMPDEST POP PUSH1 0x40 MLOAD PUSH3 0x1396 CODESIZE SUB DUP1 PUSH3 0x1396 DUP4 CODECOPY DUP2 DUP2 ADD PUSH1 0x40 MSTORE DUP2 ADD SWAP1 PUSH3 0x37 SWAP2 SWAP1 PUSH3 0x12B JUMP JUMPDEST DUP1 PUSH1 0x0 DUP1 PUSH2 0x100 EXP DUP2 SLOAD DUP2 PUSH20 0xFFFFFFFFFFFFFFFFFFFFFFFFFFFFFFFFFFFFFFFF MUL NOT AND SWAP1 DUP4 PUSH20 0xFFFFFFFFFFFFFFFFFFFFFFFFFFFFFFFFFFFFFFFF AND MUL OR SWAP1 SSTORE POP DUP2 PUSH1 0x1 DUP2 SWAP1 SSTORE POP POP POP PUSH3 0x172 JUMP JUMPDEST PUSH1 0x0 DUP1 REVERT JUMPDEST PUSH1 0x0 DUP2 SWAP1 POP SWAP2 SWAP1 POP JUMP JUMPDEST PUSH3 0xA0 DUP2 PUSH3 0x8B JUMP JUMPDEST DUP2 EQ PUSH3 0xAC JUMPI PUSH1 0x0 DUP1 REVERT JUMPDEST POP JUMP JUMPDEST PUSH1 0x0 DUP2 MLOAD SWAP1 POP PUSH3 0xC0 DUP2 PUSH3 0x95 JUMP JUMPDEST SWAP3 SWAP2 POP POP JUMP JUMPDEST PUSH1 0x0 PUSH20 0xFFFFFFFFFFFFFFFFFFFFFFFFFFFFFFFFFFFFFFFF DUP3 AND SWAP1 POP SWAP2 SWAP1 POP JUMP JUMPDEST PUSH1 0x0 PUSH3 0xF3 DUP3 PUSH3 0xC6 JUMP JUMPDEST SWAP1 POP SWAP2 SWAP1 POP JUMP JUMPDEST PUSH3 0x105 DUP2 PUSH3 0xE6 JUMP JUMPDEST DUP2 EQ PUSH3 0x111 JUMPI PUSH1 0x0 DUP1 REVERT JUMPDEST POP JUMP JUMPDEST PUSH1 0x0 DUP2 MLOAD SWAP1 POP PUSH3 0x125 DUP2 PUSH3 0xFA JUMP JUMPDEST SWAP3 SWAP2 POP POP JUMP JUMPDEST PUSH1 0x0 DUP1 PUSH1 0x40 DUP4 DUP6 SUB SLT ISZERO PUSH3 0x145 JUMPI PUSH3 0x144 PUSH3 0x86 JUMP JUMPDEST JUMPDEST PUSH1 0x0 PUSH3 0x155 DUP6 DUP3 DUP7 ADD PUSH3 0xAF JUMP JUMPDEST SWAP3 POP POP PUSH1 0x20 PUSH3 0x168 DUP6 DUP3 DUP7 ADD PUSH3 0x114 JUMP JUMPDEST SWAP2 POP POP SWAP3 POP SWAP3 SWAP1 POP JUMP JUMPDEST PUSH2 0x1214 DUP1 PUSH3 0x182 PUSH1 0x0 CODECOPY PUSH1 0x0 RETURN INVALID PUSH1 0x80 PUSH1 0x40 MSTORE PUSH1 0x4 CALLDATASIZE LT PUSH2 0x9C JUMPI PUSH1 0x0 CALLDATALOAD PUSH1 0xE0 SHR DUP1 PUSH4 0x81D12C58 GT PUSH2 0x64 JUMPI DUP1 PUSH4 0x81D12C58 EQ PUSH2 0x18C JUMPI DUP1 PUSH4 0xB3468311 EQ PUSH2 0x1CD JUMPI DUP1 PUSH4 0xC799A6BF EQ PUSH2 0x1F6 JUMPI DUP1 PUSH4 0xC7B23105 EQ PUSH2 0x21F JUMPI DUP1 PUSH4 0xCCA28958 EQ PUSH2 0x24A JUMPI DUP1 PUSH4 0xD7BB99BA EQ PUSH2 0x275 JUMPI PUSH2 0x9C JUMP JUMPDEST DUP1 PUSH4 0x3BA79EE EQ PUSH2 0xA1 JUMPI DUP1 PUSH4 0xC99D130 EQ PUSH2 0xD0 JUMPI DUP1 PUSH4 0x1F6D4942 EQ PUSH2 0xF9 JUMPI DUP1 PUSH4 0x481C6A75 EQ PUSH2 0x136 JUMPI DUP1 PUSH4 0x80E52D68 EQ PUSH2 0x161 JUMPI JUMPDEST PUSH1 0x0 DUP1 REVERT JUMPDEST CALLVALUE DUP1 ISZERO PUSH2 0xAD JUMPI PUSH1 0x0 DUP1 REVERT JUMPDEST POP PUSH2 0xB6 PUSH2 0x27F JUMP JUMPDEST PUSH1 0x40 MLOAD PUSH2 0xC7 SWAP6 SWAP5 SWAP4 SWAP3 SWAP2 SWAP1 PUSH2 0x9AF JUMP JUMPDEST PUSH1 0x40 MLOAD DUP1 SWAP2 SUB SWAP1 RETURN JUMPDEST CALLVALUE DUP1 ISZERO PUSH2 0xDC JUMPI PUSH1 0x0 DUP1 REVERT JUMPDEST POP PUSH2 0xF7 PUSH1 0x4 DUP1 CALLDATASIZE SUB DUP2 ADD SWAP1 PUSH2 0xF2 SWAP2 SWAP1 PUSH2 0xA42 JUMP JUMPDEST PUSH2 0x2C6 JUMP JUMPDEST STOP JUMPDEST CALLVALUE DUP1 ISZERO PUSH2 0x105 JUMPI PUSH1 0x0 DUP1 REVERT JUMPDEST POP PUSH2 0x120 PUSH1 0x4 DUP1 CALLDATASIZE SUB DUP2 ADD SWAP1 PUSH2 0x11B SWAP2 SWAP1 PUSH2 0xA9B JUMP JUMPDEST PUSH2 0x453 JUMP JUMPDEST PUSH1 0x40 MLOAD PUSH2 0x12D SWAP2 SWAP1 PUSH2 0xAE3 JUMP JUMPDEST PUSH1 0x40 MLOAD DUP1 SWAP2 SUB SWAP1 RETURN JUMPDEST CALLVALUE DUP1 ISZERO PUSH2 0x142 JUMPI PUSH1 0x0 DUP1 REVERT JUMPDEST POP PUSH2 0x14B PUSH2 0x473 JUMP JUMPDEST PUSH1 0x40 MLOAD PUSH2 0x158 SWAP2 SWAP1 PUSH2 0xAFE JUMP JUMPDEST PUSH1 0x40 MLOAD DUP1 SWAP2 SUB SWAP1 RETURN JUMPDEST CALLVALUE DUP1 ISZERO PUSH2 0x16D JUMPI PUSH1 0x0 DUP1 REVERT JUMPDEST POP PUSH2 0x176 PUSH2 0x497 JUMP JUMPDEST PUSH1 0x40 MLOAD PUSH2 0x183 SWAP2 SWAP1 PUSH2 0xB19 JUMP JUMPDEST PUSH1 0x40 MLOAD DUP1 SWAP2 SUB SWAP1 RETURN JUMPDEST CALLVALUE DUP1 ISZERO PUSH2 0x198 JUMPI PUSH1 0x0 DUP1 REVERT JUMPDEST POP PUSH2 0x1B3 PUSH1 0x4 DUP1 CALLDATASIZE SUB DUP2 ADD SWAP1 PUSH2 0x1AE SWAP2 SWAP1 PUSH2 0xA42 JUMP JUMPDEST PUSH2 0x49D JUMP JUMPDEST PUSH1 0x40 MLOAD PUSH2 0x1C4 SWAP6 SWAP5 SWAP4 SWAP3 SWAP2 SWAP1 PUSH2 0xBCD JUMP JUMPDEST PUSH1 0x40 MLOAD DUP1 SWAP2 SUB SWAP1 RETURN JUMPDEST CALLVALUE DUP1 ISZERO PUSH2 0x1D9 JUMPI PUSH1 0x0 DUP1 REVERT JUMPDEST POP PUSH2 0x1F4 PUSH1 0x4 DUP1 CALLDATASIZE SUB DUP2 ADD SWAP1 PUSH2 0x1EF SWAP2 SWAP1 PUSH2 0xD5C JUMP JUMPDEST PUSH2 0x598 JUMP JUMPDEST STOP JUMPDEST CALLVALUE DUP1 ISZERO PUSH2 0x202 JUMPI PUSH1 0x0 DUP1 REVERT JUMPDEST POP PUSH2 0x21D PUSH1 0x4 DUP1 CALLDATASIZE SUB DUP2 ADD SWAP1 PUSH2 0x218 SWAP2 SWAP1 PUSH2 0xA42 JUMP JUMPDEST PUSH2 0x69F JUMP JUMPDEST STOP JUMPDEST CALLVALUE DUP1 ISZERO PUSH2 0x22B JUMPI PUSH1 0x0 DUP1 REVERT JUMPDEST POP PUSH2 0x234 PUSH2 0x86B JUMP JUMPDEST PUSH1 0x40 MLOAD PUSH2 0x241 SWAP2 SWAP1 PUSH2 0xB19 JUMP JUMPDEST PUSH1 0x40 MLOAD DUP1 SWAP2 SUB SWAP1 RETURN JUMPDEST CALLVALUE DUP1 ISZERO PUSH2 0x256 JUMPI PUSH1 0x0 DUP1 REVERT JUMPDEST POP PUSH2 0x25F PUSH2 0x871 JUMP JUMPDEST PUSH1 0x40 MLOAD PUSH2 0x26C SWAP2 SWAP1 PUSH2 0xB19 JUMP JUMPDEST PUSH1 0x40 MLOAD DUP1 SWAP2 SUB SWAP1 RETURN JUMPDEST PUSH2 0x27D PUSH2 0x87E JUMP JUMPDEST STOP JUMPDEST PUSH1 0x0 DUP1 PUSH1 0x0 DUP1 PUSH1 0x0 PUSH1 0x1 SLOAD SELFBALANCE PUSH1 0x4 DUP1 SLOAD SWAP1 POP PUSH1 0x3 SLOAD PUSH1 0x0 DUP1 SLOAD SWAP1 PUSH2 0x100 EXP SWAP1 DIV PUSH20 0xFFFFFFFFFFFFFFFFFFFFFFFFFFFFFFFFFFFFFFFF AND SWAP5 POP SWAP5 POP SWAP5 POP SWAP5 POP SWAP5 POP SWAP1 SWAP2 SWAP3 SWAP4 SWAP5 JUMP JUMPDEST PUSH1 0x2 PUSH1 0x0 CALLER PUSH20 0xFFFFFFFFFFFFFFFFFFFFFFFFFFFFFFFFFFFFFFFF AND PUSH20 0xFFFFFFFFFFFFFFFFFFFFFFFFFFFFFFFFFFFFFFFF AND DUP2 MSTORE PUSH1 0x20 ADD SWAP1 DUP2 MSTORE PUSH1 0x20 ADD PUSH1 0x0 KECCAK256 PUSH1 0x0 SWAP1 SLOAD SWAP1 PUSH2 0x100 EXP SWAP1 DIV PUSH1 0xFF AND PUSH2 0x320 JUMPI PUSH2 0x31F PUSH2 0xDCB JUMP JUMPDEST JUMPDEST PUSH1 0x4 DUP2 DUP2 SLOAD DUP2 LT PUSH2 0x334 JUMPI PUSH2 0x333 PUSH2 0xDFA JUMP JUMPDEST JUMPDEST SWAP1 PUSH1 0x0 MSTORE PUSH1 0x20 PUSH1 0x0 KECCAK256 SWAP1 PUSH1 0x5 MUL ADD PUSH1 0x3 ADD PUSH1 0x0 CALLER PUSH20 0xFFFFFFFFFFFFFFFFFFFFFFFFFFFFFFFFFFFFFFFF AND PUSH20 0xFFFFFFFFFFFFFFFFFFFFFFFFFFFFFFFFFFFFFFFF AND DUP2 MSTORE PUSH1 0x20 ADD SWAP1 DUP2 MSTORE PUSH1 0x20 ADD PUSH1 0x0 KECCAK256 PUSH1 0x0 SWAP1 SLOAD SWAP1 PUSH2 0x100 EXP SWAP1 DIV PUSH1 0xFF AND ISZERO PUSH2 0x39A JUMPI PUSH1 0x0 DUP1 REVERT JUMPDEST PUSH1 0x1 PUSH1 0x4 DUP3 DUP2 SLOAD DUP2 LT PUSH2 0x3B0 JUMPI PUSH2 0x3AF PUSH2 0xDFA JUMP JUMPDEST JUMPDEST SWAP1 PUSH1 0x0 MSTORE PUSH1 0x20 PUSH1 0x0 KECCAK256 SWAP1 PUSH1 0x5 MUL ADD PUSH1 0x3 ADD PUSH1 0x0 CALLER PUSH20 0xFFFFFFFFFFFFFFFFFFFFFFFFFFFFFFFFFFFFFFFF AND PUSH20 0xFFFFFFFFFFFFFFFFFFFFFFFFFFFFFFFFFFFFFFFF AND DUP2 MSTORE PUSH1 0x20 ADD SWAP1 DUP2 MSTORE PUSH1 0x20 ADD PUSH1 0x0 KECCAK256 PUSH1 0x0 PUSH2 0x100 EXP DUP2 SLOAD DUP2 PUSH1 0xFF MUL NOT AND SWAP1 DUP4 ISZERO ISZERO MUL OR SWAP1 SSTORE POP PUSH1 0x4 DUP2 DUP2 SLOAD DUP2 LT PUSH2 0x429 JUMPI PUSH2 0x428 PUSH2 0xDFA JUMP JUMPDEST JUMPDEST SWAP1 PUSH1 0x0 MSTORE PUSH1 0x20 PUSH1 0x0 KECCAK256 SWAP1 PUSH1 0x5 MUL ADD PUSH1 0x4 ADD PUSH1 0x0 DUP2 SLOAD DUP1 SWAP3 SWAP2 SWAP1 PUSH2 0x44B SWAP1 PUSH2 0xE58 JUMP JUMPDEST SWAP2 SWAP1 POP SSTORE POP POP JUMP JUMPDEST PUSH1 0x2 PUSH1 0x20 MSTORE DUP1 PUSH1 0x0 MSTORE PUSH1 0x40 PUSH1 0x0 KECCAK256 PUSH1 0x0 SWAP2 POP SLOAD SWAP1 PUSH2 0x100 EXP SWAP1 DIV PUSH1 0xFF AND DUP2 JUMP JUMPDEST PUSH1 0x0 DUP1 SLOAD SWAP1 PUSH2 0x100 EXP SWAP1 DIV PUSH20 0xFFFFFFFFFFFFFFFFFFFFFFFFFFFFFFFFFFFFFFFF AND DUP2 JUMP JUMPDEST PUSH1 0x1 SLOAD DUP2 JUMP JUMPDEST PUSH1 0x4 DUP2 DUP2 SLOAD DUP2 LT PUSH2 0x4AD JUMPI PUSH1 0x0 DUP1 REVERT JUMPDEST SWAP1 PUSH1 0x0 MSTORE PUSH1 0x20 PUSH1 0x0 KECCAK256 SWAP1 PUSH1 0x5 MUL ADD PUSH1 0x0 SWAP2 POP SWAP1 POP DUP1 PUSH1 0x0 ADD DUP1 SLOAD PUSH2 0x4D0 SWAP1 PUSH2 0xECF JUMP JUMPDEST DUP1 PUSH1 0x1F ADD PUSH1 0x20 DUP1 SWAP2 DIV MUL PUSH1 0x20 ADD PUSH1 0x40 MLOAD SWAP1 DUP2 ADD PUSH1 0x40 MSTORE DUP1 SWAP3 SWAP2 SWAP1 DUP2 DUP2 MSTORE PUSH1 0x20 ADD DUP3 DUP1 SLOAD PUSH2 0x4FC SWAP1 PUSH2 0xECF JUMP JUMPDEST DUP1 ISZERO PUSH2 0x549 JUMPI DUP1 PUSH1 0x1F LT PUSH2 0x51E JUMPI PUSH2 0x100 DUP1 DUP4 SLOAD DIV MUL DUP4 MSTORE SWAP2 PUSH1 0x20 ADD SWAP2 PUSH2 0x549 JUMP JUMPDEST DUP3 ADD SWAP2 SWAP1 PUSH1 0x0 MSTORE PUSH1 0x20 PUSH1 0x0 KECCAK256 SWAP1 JUMPDEST DUP2 SLOAD DUP2 MSTORE SWAP1 PUSH1 0x1 ADD SWAP1 PUSH1 0x20 ADD DUP1 DUP4 GT PUSH2 0x52C JUMPI DUP3 SWAP1 SUB PUSH1 0x1F AND DUP3 ADD SWAP2 JUMPDEST POP POP POP POP POP SWAP1 DUP1 PUSH1 0x1 ADD SLOAD SWAP1 DUP1 PUSH1 0x2 ADD PUSH1 0x0 SWAP1 SLOAD SWAP1 PUSH2 0x100 EXP SWAP1 DIV PUSH20 0xFFFFFFFFFFFFFFFFFFFFFFFFFFFFFFFFFFFFFFFF AND SWAP1 DUP1 PUSH1 0x2 ADD PUSH1 0x14 SWAP1 SLOAD SWAP1 PUSH2 0x100 EXP SWAP1 DIV PUSH1 0xFF AND SWAP1 DUP1 PUSH1 0x4 ADD SLOAD SWAP1 POP DUP6 JUMP JUMPDEST PUSH1 0x0 DUP1 SLOAD SWAP1 PUSH2 0x100 EXP SWAP1 DIV PUSH20 0xFFFFFFFFFFFFFFFFFFFFFFFFFFFFFFFFFFFFFFFF AND PUSH20 0xFFFFFFFFFFFFFFFFFFFFFFFFFFFFFFFFFFFFFFFF AND CALLER PUSH20 0xFFFFFFFFFFFFFFFFFFFFFFFFFFFFFFFFFFFFFFFF AND EQ PUSH2 0x5F0 JUMPI PUSH1 0x0 DUP1 REVERT JUMPDEST PUSH1 0x0 PUSH1 0x4 PUSH1 0x1 DUP2 PUSH1 0x1 DUP2 SLOAD ADD DUP1 DUP3 SSTORE DUP1 SWAP2 POP POP SUB SWAP1 PUSH1 0x0 MSTORE PUSH1 0x20 PUSH1 0x0 KECCAK256 SWAP1 PUSH1 0x5 MUL ADD SWAP1 POP DUP4 DUP2 PUSH1 0x0 ADD SWAP1 DUP2 PUSH2 0x625 SWAP2 SWAP1 PUSH2 0x10AC JUMP JUMPDEST POP DUP3 DUP2 PUSH1 0x1 ADD DUP2 SWAP1 SSTORE POP DUP2 DUP2 PUSH1 0x2 ADD PUSH1 0x0 PUSH2 0x100 EXP DUP2 SLOAD DUP2 PUSH20 0xFFFFFFFFFFFFFFFFFFFFFFFFFFFFFFFFFFFFFFFF MUL NOT AND SWAP1 DUP4 PUSH20 0xFFFFFFFFFFFFFFFFFFFFFFFFFFFFFFFFFFFFFFFF AND MUL OR SWAP1 SSTORE POP PUSH1 0x0 DUP2 PUSH1 0x2 ADD PUSH1 0x14 PUSH2 0x100 EXP DUP2 SLOAD DUP2 PUSH1 0xFF MUL NOT AND SWAP1 DUP4 ISZERO ISZERO MUL OR SWAP1 SSTORE POP PUSH1 0x0 DUP2 PUSH1 0x4 ADD DUP2 SWAP1 SSTORE POP POP POP POP POP JUMP JUMPDEST PUSH1 0x0 DUP1 SLOAD SWAP1 PUSH2 0x100 EXP SWAP1 DIV PUSH20 0xFFFFFFFFFFFFFFFFFFFFFFFFFFFFFFFFFFFFFFFF AND PUSH20 0xFFFFFFFFFFFFFFFFFFFFFFFFFFFFFFFFFFFFFFFF AND CALLER PUSH20 0xFFFFFFFFFFFFFFFFFFFFFFFFFFFFFFFFFFFFFFFF AND EQ PUSH2 0x6F7 JUMPI PUSH1 0x0 DUP1 REVERT JUMPDEST PUSH1 0x4 DUP2 DUP2 SLOAD DUP2 LT PUSH2 0x70B JUMPI PUSH2 0x70A PUSH2 0xDFA JUMP JUMPDEST JUMPDEST SWAP1 PUSH1 0x0 MSTORE PUSH1 0x20 PUSH1 0x0 KECCAK256 SWAP1 PUSH1 0x5 MUL ADD PUSH1 0x2 ADD PUSH1 0x14 SWAP1 SLOAD SWAP1 PUSH2 0x100 EXP SWAP1 DIV PUSH1 0xFF AND ISZERO PUSH2 0x734 JUMPI PUSH1 0x0 DUP1 REVERT JUMPDEST PUSH1 0x2 PUSH1 0x3 SLOAD PUSH2 0x743 SWAP2 SWAP1 PUSH2 0x11AD JUMP JUMPDEST PUSH1 0x4 DUP3 DUP2 SLOAD DUP2 LT PUSH2 0x757 JUMPI PUSH2 0x756 PUSH2 0xDFA JUMP JUMPDEST JUMPDEST SWAP1 PUSH1 0x0 MSTORE PUSH1 0x20 PUSH1 0x0 KECCAK256 SWAP1 PUSH1 0x5 MUL ADD PUSH1 0x4 ADD SLOAD GT PUSH2 0x773 JUMPI PUSH1 0x0 DUP1 REVERT JUMPDEST PUSH1 0x1 PUSH1 0x4 DUP3 DUP2 SLOAD DUP2 LT PUSH2 0x789 JUMPI PUSH2 0x788 PUSH2 0xDFA JUMP JUMPDEST JUMPDEST SWAP1 PUSH1 0x0 MSTORE PUSH1 0x20 PUSH1 0x0 KECCAK256 SWAP1 PUSH1 0x5 MUL ADD PUSH1 0x2 ADD PUSH1 0x14 PUSH2 0x100 EXP DUP2 SLOAD DUP2 PUSH1 0xFF MUL NOT AND SWAP1 DUP4 ISZERO ISZERO MUL OR SWAP1 SSTORE POP PUSH1 0x0 PUSH1 0x4 DUP3 DUP2 SLOAD DUP2 LT PUSH2 0x7C7 JUMPI PUSH2 0x7C6 PUSH2 0xDFA JUMP JUMPDEST JUMPDEST SWAP1 PUSH1 0x0 MSTORE PUSH1 0x20 PUSH1 0x0 KECCAK256 SWAP1 PUSH1 0x5 MUL ADD PUSH1 0x2 ADD PUSH1 0x0 SWAP1 SLOAD SWAP1 PUSH2 0x100 EXP SWAP1 DIV PUSH20 0xFFFFFFFFFFFFFFFFFFFFFFFFFFFFFFFFFFFFFFFF AND SWAP1 POP DUP1 PUSH20 0xFFFFFFFFFFFFFFFFFFFFFFFFFFFFFFFFFFFFFFFF AND PUSH2 0x8FC PUSH1 0x4 DUP5 DUP2 SLOAD DUP2 LT PUSH2 0x829 JUMPI PUSH2 0x828 PUSH2 0xDFA JUMP JUMPDEST JUMPDEST SWAP1 PUSH1 0x0 MSTORE PUSH1 0x20 PUSH1 0x0 KECCAK256 SWAP1 PUSH1 0x5 MUL ADD PUSH1 0x1 ADD SLOAD SWAP1 DUP2 ISZERO MUL SWAP1 PUSH1 0x40 MLOAD PUSH1 0x0 PUSH1 0x40 MLOAD DUP1 DUP4 SUB DUP2 DUP6 DUP9 DUP9 CALL SWAP4 POP POP POP POP ISZERO DUP1 ISZERO PUSH2 0x866 JUMPI RETURNDATASIZE PUSH1 0x0 DUP1 RETURNDATACOPY RETURNDATASIZE PUSH1 0x0 REVERT JUMPDEST POP POP POP JUMP JUMPDEST PUSH1 0x3 SLOAD DUP2 JUMP JUMPDEST PUSH1 0x0 PUSH1 0x4 DUP1 SLOAD SWAP1 POP SWAP1 POP SWAP1 JUMP JUMPDEST PUSH1 0x1 SLOAD CALLVALUE GT PUSH2 0x88C JUMPI PUSH1 0x0 DUP1 REVERT JUMPDEST PUSH1 0x2 PUSH1 0x0 CALLER PUSH20 0xFFFFFFFFFFFFFFFFFFFFFFFFFFFFFFFFFFFFFFFF AND PUSH20 0xFFFFFFFFFFFFFFFFFFFFFFFFFFFFFFFFFFFFFFFF AND DUP2 MSTORE PUSH1 0x20 ADD SWAP1 DUP2 MSTORE PUSH1 0x20 ADD PUSH1 0x0 KECCAK256 PUSH1 0x0 SWAP1 SLOAD SWAP1 PUSH2 0x100 EXP SWAP1 DIV PUSH1 0xFF AND ISZERO PUSH2 0x8E3 JUMPI PUSH1 0x0 DUP1 REVERT JUMPDEST PUSH1 0x1 PUSH1 0x2 PUSH1 0x0 CALLER PUSH20 0xFFFFFFFFFFFFFFFFFFFFFFFFFFFFFFFFFFFFFFFF AND PUSH20 0xFFFFFFFFFFFFFFFFFFFFFFFFFFFFFFFFFFFFFFFF AND DUP2 MSTORE PUSH1 0x20 ADD SWAP1 DUP2 MSTORE PUSH1 0x20 ADD PUSH1 0x0 KECCAK256 PUSH1 0x0 PUSH2 0x100 EXP DUP2 SLOAD DUP2 PUSH1 0xFF MUL NOT AND SWAP1 DUP4 ISZERO ISZERO MUL OR SWAP1 SSTORE POP PUSH1 0x3 PUSH1 0x0 DUP2 SLOAD DUP1 SWAP3 SWAP2 SWAP1 PUSH2 0x94E SWAP1 PUSH2 0xE58 JUMP JUMPDEST SWAP2 SWAP1 POP SSTORE POP JUMP JUMPDEST PUSH1 0x0 DUP2 SWAP1 POP SWAP2 SWAP1 POP JUMP JUMPDEST PUSH2 0x968 DUP2 PUSH2 0x955 JUMP JUMPDEST DUP3 MSTORE POP POP JUMP JUMPDEST PUSH1 0x0 PUSH20 0xFFFFFFFFFFFFFFFFFFFFFFFFFFFFFFFFFFFFFFFF DUP3 AND SWAP1 POP SWAP2 SWAP1 POP JUMP JUMPDEST PUSH1 0x0 PUSH2 0x999 DUP3 PUSH2 0x96E JUMP JUMPDEST SWAP1 POP SWAP2 SWAP1 POP JUMP JUMPDEST PUSH2 0x9A9 DUP2 PUSH2 0x98E JUMP JUMPDEST DUP3 MSTORE POP POP JUMP JUMPDEST PUSH1 0x0 PUSH1 0xA0 DUP3 ADD SWAP1 POP PUSH2 0x9C4 PUSH1 0x0 DUP4 ADD DUP9 PUSH2 0x95F JUMP JUMPDEST PUSH2 0x9D1 PUSH1 0x20 DUP4 ADD DUP8 PUSH2 0x95F JUMP JUMPDEST PUSH2 0x9DE PUSH1 0x40 DUP4 ADD DUP7 PUSH2 0x95F JUMP JUMPDEST PUSH2 0x9EB PUSH1 0x60 DUP4 ADD DUP6 PUSH2 0x95F JUMP JUMPDEST PUSH2 0x9F8 PUSH1 0x80 DUP4 ADD DUP5 PUSH2 0x9A0 JUMP JUMPDEST SWAP7 SWAP6 POP POP POP POP POP POP JUMP JUMPDEST PUSH1 0x0 PUSH1 0x40 MLOAD SWAP1 POP SWAP1 JUMP JUMPDEST PUSH1 0x0 DUP1 REVERT JUMPDEST PUSH1 0x0 DUP1 REVERT JUMPDEST PUSH2 0xA1F DUP2 PUSH2 0x955 JUMP JUMPDEST DUP2 EQ PUSH2 0xA2A JUMPI PUSH1 0x0 DUP1 REVERT JUMPDEST POP JUMP JUMPDEST PUSH1 0x0 DUP2 CALLDATALOAD SWAP1 POP PUSH2 0xA3C DUP2 PUSH2 0xA16 JUMP JUMPDEST SWAP3 SWAP2 POP POP JUMP JUMPDEST PUSH1 0x0 PUSH1 0x20 DUP3 DUP5 SUB SLT ISZERO PUSH2 0xA58 JUMPI PUSH2 0xA57 PUSH2 0xA0C JUMP JUMPDEST JUMPDEST PUSH1 0x0 PUSH2 0xA66 DUP5 DUP3 DUP6 ADD PUSH2 0xA2D JUMP JUMPDEST SWAP2 POP POP SWAP3 SWAP2 POP POP JUMP JUMPDEST PUSH2 0xA78 DUP2 PUSH2 0x98E JUMP JUMPDEST DUP2 EQ PUSH2 0xA83 JUMPI PUSH1 0x0 DUP1 REVERT JUMPDEST POP JUMP JUMPDEST PUSH1 0x0 DUP2 CALLDATALOAD SWAP1 POP PUSH2 0xA95 DUP2 PUSH2 0xA6F JUMP JUMPDEST SWAP3 SWAP2 POP POP JUMP JUMPDEST PUSH1 0x0 PUSH1 0x20 DUP3 DUP5 SUB SLT ISZERO PUSH2 0xAB1 JUMPI PUSH2 0xAB0 PUSH2 0xA0C JUMP JUMPDEST JUMPDEST PUSH1 0x0 PUSH2 0xABF DUP5 DUP3 DUP6 ADD PUSH2 0xA86 JUMP JUMPDEST SWAP2 POP POP SWAP3 SWAP2 POP POP JUMP JUMPDEST PUSH1 0x0 DUP2 ISZERO ISZERO SWAP1 POP SWAP2 SWAP1 POP JUMP JUMPDEST PUSH2 0xADD DUP2 PUSH2 0xAC8 JUMP JUMPDEST DUP3 MSTORE POP POP JUMP JUMPDEST PUSH1 0x0 PUSH1 0x20 DUP3 ADD SWAP1 POP PUSH2 0xAF8 PUSH1 0x0 DUP4 ADD DUP5 PUSH2 0xAD4 JUMP JUMPDEST SWAP3 SWAP2 POP POP JUMP JUMPDEST PUSH1 0x0 PUSH1 0x20 DUP3 ADD SWAP1 POP PUSH2 0xB13 PUSH1 0x0 DUP4 ADD DUP5 PUSH2 0x9A0 JUMP JUMPDEST SWAP3 SWAP2 POP POP JUMP JUMPDEST PUSH1 0x0 PUSH1 0x20 DUP3 ADD SWAP1 POP PUSH2 0xB2E PUSH1 0x0 DUP4 ADD DUP5 PUSH2 0x95F JUMP JUMPDEST SWAP3 SWAP2 POP POP JUMP JUMPDEST PUSH1 0x0 DUP2 MLOAD SWAP1 POP SWAP2 SWAP1 POP JUMP JUMPDEST PUSH1 0x0 DUP3 DUP3 MSTORE PUSH1 0x20 DUP3 ADD SWAP1 POP SWAP3 SWAP2 POP POP JUMP JUMPDEST PUSH1 0x0 JUMPDEST DUP4 DUP2 LT ISZERO PUSH2 0xB6E JUMPI DUP1 DUP3 ADD MLOAD DUP2 DUP5 ADD MSTORE PUSH1 0x20 DUP2 ADD SWAP1 POP PUSH2 0xB53 JUMP JUMPDEST DUP4 DUP2 GT ISZERO PUSH2 0xB7D JUMPI PUSH1 0x0 DUP5 DUP5 ADD MSTORE JUMPDEST POP POP POP POP JUMP JUMPDEST PUSH1 0x0 PUSH1 0x1F NOT PUSH1 0x1F DUP4 ADD AND SWAP1 POP SWAP2 SWAP1 POP JUMP JUMPDEST PUSH1 0x0 PUSH2 0xB9F DUP3 PUSH2 0xB34 JUMP JUMPDEST PUSH2 0xBA9 DUP2 DUP6 PUSH2 0xB3F JUMP JUMPDEST SWAP4 POP PUSH2 0xBB9 DUP2 DUP6 PUSH1 0x20 DUP7 ADD PUSH2 0xB50 JUMP JUMPDEST PUSH2 0xBC2 DUP2 PUSH2 0xB83 JUMP JUMPDEST DUP5 ADD SWAP2 POP POP SWAP3 SWAP2 POP POP JUMP JUMPDEST PUSH1 0x0 PUSH1 0xA0 DUP3 ADD SWAP1 POP DUP2 DUP2 SUB PUSH1 0x0 DUP4 ADD MSTORE PUSH2 0xBE7 DUP2 DUP9 PUSH2 0xB94 JUMP JUMPDEST SWAP1 POP PUSH2 0xBF6 PUSH1 0x20 DUP4 ADD DUP8 PUSH2 0x95F JUMP JUMPDEST PUSH2 0xC03 PUSH1 0x40 DUP4 ADD DUP7 PUSH2 0x9A0 JUMP JUMPDEST PUSH2 0xC10 PUSH1 0x60 DUP4 ADD DUP6 PUSH2 0xAD4 JUMP JUMPDEST PUSH2 0xC1D PUSH1 0x80 DUP4 ADD DUP5 PUSH2 0x95F JUMP JUMPDEST SWAP7 SWAP6 POP POP POP POP POP POP JUMP JUMPDEST PUSH1 0x0 DUP1 REVERT JUMPDEST PUSH1 0x0 DUP1 REVERT JUMPDEST PUSH32 0x4E487B7100000000000000000000000000000000000000000000000000000000 PUSH1 0x0 MSTORE PUSH1 0x41 PUSH1 0x4 MSTORE PUSH1 0x24 PUSH1 0x0 REVERT JUMPDEST PUSH2 0xC69 DUP3 PUSH2 0xB83 JUMP JUMPDEST DUP2 ADD DUP2 DUP2 LT PUSH8 0xFFFFFFFFFFFFFFFF DUP3 GT OR ISZERO PUSH2 0xC88 JUMPI PUSH2 0xC87 PUSH2 0xC31 JUMP JUMPDEST JUMPDEST DUP1 PUSH1 0x40 MSTORE POP POP POP JUMP JUMPDEST PUSH1 0x0 PUSH2 0xC9B PUSH2 0xA02 JUMP JUMPDEST SWAP1 POP PUSH2 0xCA7 DUP3 DUP3 PUSH2 0xC60 JUMP JUMPDEST SWAP2 SWAP1 POP JUMP JUMPDEST PUSH1 0x0 PUSH8 0xFFFFFFFFFFFFFFFF DUP3 GT ISZERO PUSH2 0xCC7 JUMPI PUSH2 0xCC6 PUSH2 0xC31 JUMP JUMPDEST JUMPDEST PUSH2 0xCD0 DUP3 PUSH2 0xB83 JUMP JUMPDEST SWAP1 POP PUSH1 0x20 DUP2 ADD SWAP1 POP SWAP2 SWAP1 POP JUMP JUMPDEST DUP3 DUP2 DUP4 CALLDATACOPY PUSH1 0x0 DUP4 DUP4 ADD MSTORE POP POP POP JUMP JUMPDEST PUSH1 0x0 PUSH2 0xCFF PUSH2 0xCFA DUP5 PUSH2 0xCAC JUMP JUMPDEST PUSH2 0xC91 JUMP JUMPDEST SWAP1 POP DUP3 DUP2 MSTORE PUSH1 0x20 DUP2 ADD DUP5 DUP5 DUP5 ADD GT ISZERO PUSH2 0xD1B JUMPI PUSH2 0xD1A PUSH2 0xC2C JUMP JUMPDEST JUMPDEST PUSH2 0xD26 DUP5 DUP3 DUP6 PUSH2 0xCDD JUMP JUMPDEST POP SWAP4 SWAP3 POP POP POP JUMP JUMPDEST PUSH1 0x0 DUP3 PUSH1 0x1F DUP4 ADD SLT PUSH2 0xD43 JUMPI PUSH2 0xD42 PUSH2 0xC27 JUMP JUMPDEST JUMPDEST DUP2 CALLDATALOAD PUSH2 0xD53 DUP5 DUP3 PUSH1 0x20 DUP7 ADD PUSH2 0xCEC JUMP JUMPDEST SWAP2 POP POP SWAP3 SWAP2 POP POP JUMP JUMPDEST PUSH1 0x0 DUP1 PUSH1 0x0 PUSH1 0x60 DUP5 DUP7 SUB SLT ISZERO PUSH2 0xD75 JUMPI PUSH2 0xD74 PUSH2 0xA0C JUMP JUMPDEST JUMPDEST PUSH1 0x0 DUP5 ADD CALLDATALOAD PUSH8 0xFFFFFFFFFFFFFFFF DUP2 GT ISZERO PUSH2 0xD93 JUMPI PUSH2 0xD92 PUSH2 0xA11 JUMP JUMPDEST JUMPDEST PUSH2 0xD9F DUP7 DUP3 DUP8 ADD PUSH2 0xD2E JUMP JUMPDEST SWAP4 POP POP PUSH1 0x20 PUSH2 0xDB0 DUP7 DUP3 DUP8 ADD PUSH2 0xA2D JUMP JUMPDEST SWAP3 POP POP PUSH1 0x40 PUSH2 0xDC1 DUP7 DUP3 DUP8 ADD PUSH2 0xA86 JUMP JUMPDEST SWAP2 POP POP SWAP3 POP SWAP3 POP SWAP3 JUMP JUMPDEST PUSH32 0x4E487B7100000000000000000000000000000000000000000000000000000000 PUSH1 0x0 MSTORE PUSH1 0x1 PUSH1 0x4 MSTORE PUSH1 0x24 PUSH1 0x0 REVERT JUMPDEST PUSH32 0x4E487B7100000000000000000000000000000000000000000000000000000000 PUSH1 0x0 MSTORE PUSH1 0x32 PUSH1 0x4 MSTORE PUSH1 0x24 PUSH1 0x0 REVERT JUMPDEST PUSH32 0x4E487B7100000000000000000000000000000000000000000000000000000000 PUSH1 0x0 MSTORE PUSH1 0x11 PUSH1 0x4 MSTORE PUSH1 0x24 PUSH1 0x0 REVERT JUMPDEST PUSH1 0x0 PUSH2 0xE63 DUP3 PUSH2 0x955 JUMP JUMPDEST SWAP2 POP PUSH32 0xFFFFFFFFFFFFFFFFFFFFFFFFFFFFFFFFFFFFFFFFFFFFFFFFFFFFFFFFFFFFFFFF DUP3 SUB PUSH2 0xE95 JUMPI PUSH2 0xE94 PUSH2 0xE29 JUMP JUMPDEST JUMPDEST PUSH1 0x1 DUP3 ADD SWAP1 POP SWAP2 SWAP1 POP JUMP JUMPDEST PUSH32 0x4E487B7100000000000000000000000000000000000000000000000000000000 PUSH1 0x0 MSTORE PUSH1 0x22 PUSH1 0x4 MSTORE PUSH1 0x24 PUSH1 0x0 REVERT JUMPDEST PUSH1 0x0 PUSH1 0x2 DUP3 DIV SWAP1 POP PUSH1 0x1 DUP3 AND DUP1 PUSH2 0xEE7 JUMPI PUSH1 0x7F DUP3 AND SWAP2 POP JUMPDEST PUSH1 0x20 DUP3 LT DUP2 SUB PUSH2 0xEFA JUMPI PUSH2 0xEF9 PUSH2 0xEA0 JUMP JUMPDEST JUMPDEST POP SWAP2 SWAP1 POP JUMP JUMPDEST PUSH1 0x0 DUP2 SWAP1 POP DUP2 PUSH1 0x0 MSTORE PUSH1 0x20 PUSH1 0x0 KECCAK256 SWAP1 POP SWAP2 SWAP1 POP JUMP JUMPDEST PUSH1 0x0 PUSH1 0x20 PUSH1 0x1F DUP4 ADD DIV SWAP1 POP SWAP2 SWAP1 POP JUMP JUMPDEST PUSH1 0x0 DUP3 DUP3 SHL SWAP1 POP SWAP3 SWAP2 POP POP JUMP JUMPDEST PUSH1 0x0 PUSH1 0x8 DUP4 MUL PUSH2 0xF62 PUSH32 0xFFFFFFFFFFFFFFFFFFFFFFFFFFFFFFFFFFFFFFFFFFFFFFFFFFFFFFFFFFFFFFFF DUP3 PUSH2 0xF25 JUMP JUMPDEST PUSH2 0xF6C DUP7 DUP4 PUSH2 0xF25 JUMP JUMPDEST SWAP6 POP DUP1 NOT DUP5 AND SWAP4 POP DUP1 DUP7 AND DUP5 OR SWAP3 POP POP POP SWAP4 SWAP3 POP POP POP JUMP JUMPDEST PUSH1 0x0 DUP2 SWAP1 POP SWAP2 SWAP1 POP JUMP JUMPDEST PUSH1 0x0 PUSH2 0xFA9 PUSH2 0xFA4 PUSH2 0xF9F DUP5 PUSH2 0x955 JUMP JUMPDEST PUSH2 0xF84 JUMP JUMPDEST PUSH2 0x955 JUMP JUMPDEST SWAP1 POP SWAP2 SWAP1 POP JUMP JUMPDEST PUSH1 0x0 DUP2 SWAP1 POP SWAP2 SWAP1 POP JUMP JUMPDEST PUSH2 0xFC3 DUP4 PUSH2 0xF8E JUMP JUMPDEST PUSH2 0xFD7 PUSH2 0xFCF DUP3 PUSH2 0xFB0 JUMP JUMPDEST DUP5 DUP5 SLOAD PUSH2 0xF32 JUMP JUMPDEST DUP3 SSTORE POP POP POP POP JUMP JUMPDEST PUSH1 0x0 SWAP1 JUMP JUMPDEST PUSH2 0xFEC PUSH2 0xFDF JUMP JUMPDEST PUSH2 0xFF7 DUP2 DUP5 DUP5 PUSH2 0xFBA JUMP JUMPDEST POP POP POP JUMP JUMPDEST JUMPDEST DUP2 DUP2 LT ISZERO PUSH2 0x101B JUMPI PUSH2 0x1010 PUSH1 0x0 DUP3 PUSH2 0xFE4 JUMP JUMPDEST PUSH1 0x1 DUP2 ADD SWAP1 POP PUSH2 0xFFD JUMP JUMPDEST POP POP JUMP JUMPDEST PUSH1 0x1F DUP3 GT ISZERO PUSH2 0x1060 JUMPI PUSH2 0x1031 DUP2 PUSH2 0xF00 JUMP JUMPDEST PUSH2 0x103A DUP5 PUSH2 0xF15 JUMP JUMPDEST DUP2 ADD PUSH1 0x20 DUP6 LT ISZERO PUSH2 0x1049 JUMPI DUP2 SWAP1 POP JUMPDEST PUSH2 0x105D PUSH2 0x1055 DUP6 PUSH2 0xF15 JUMP JUMPDEST DUP4 ADD DUP3 PUSH2 0xFFC JUMP JUMPDEST POP POP JUMPDEST POP POP POP JUMP JUMPDEST PUSH1 0x0 DUP3 DUP3 SHR SWAP1 POP SWAP3 SWAP2 POP POP JUMP JUMPDEST PUSH1 0x0 PUSH2 0x1083 PUSH1 0x0 NOT DUP5 PUSH1 0x8 MUL PUSH2 0x1065 JUMP JUMPDEST NOT DUP1 DUP4 AND SWAP2 POP POP SWAP3 SWAP2 POP POP JUMP JUMPDEST PUSH1 0x0 PUSH2 0x109C DUP4 DUP4 PUSH2 0x1072 JUMP JUMPDEST SWAP2 POP DUP3 PUSH1 0x2 MUL DUP3 OR SWAP1 POP SWAP3 SWAP2 POP POP JUMP JUMPDEST PUSH2 0x10B5 DUP3 PUSH2 0xB34 JUMP JUMPDEST PUSH8 0xFFFFFFFFFFFFFFFF DUP2 GT ISZERO PUSH2 0x10CE JUMPI PUSH2 0x10CD PUSH2 0xC31 JUMP JUMPDEST JUMPDEST PUSH2 0x10D8 DUP3 SLOAD PUSH2 0xECF JUMP JUMPDEST PUSH2 0x10E3 DUP3 DUP3 DUP6 PUSH2 0x101F JUMP JUMPDEST PUSH1 0x0 PUSH1 0x20 SWAP1 POP PUSH1 0x1F DUP4 GT PUSH1 0x1 DUP2 EQ PUSH2 0x1116 JUMPI PUSH1 0x0 DUP5 ISZERO PUSH2 0x1104 JUMPI DUP3 DUP8 ADD MLOAD SWAP1 POP JUMPDEST PUSH2 0x110E DUP6 DUP3 PUSH2 0x1090 JUMP JUMPDEST DUP7 SSTORE POP PUSH2 0x1176 JUMP JUMPDEST PUSH1 0x1F NOT DUP5 AND PUSH2 0x1124 DUP7 PUSH2 0xF00 JUMP JUMPDEST PUSH1 0x0 JUMPDEST DUP3 DUP2 LT ISZERO PUSH2 0x114C JUMPI DUP5 DUP10 ADD MLOAD DUP3 SSTORE PUSH1 0x1 DUP3 ADD SWAP2 POP PUSH1 0x20 DUP6 ADD SWAP5 POP PUSH1 0x20 DUP2 ADD SWAP1 POP PUSH2 0x1127 JUMP JUMPDEST DUP7 DUP4 LT ISZERO PUSH2 0x1169 JUMPI DUP5 DUP10 ADD MLOAD PUSH2 0x1165 PUSH1 0x1F DUP10 AND DUP3 PUSH2 0x1072 JUMP JUMPDEST DUP4 SSTORE POP JUMPDEST PUSH1 0x1 PUSH1 0x2 DUP9 MUL ADD DUP9 SSTORE POP POP POP JUMPDEST POP POP POP POP POP POP JUMP JUMPDEST PUSH32 0x4E487B7100000000000000000000000000000000000000000000000000000000 PUSH1 0x0 MSTORE PUSH1 0x12 PUSH1 0x4 MSTORE PUSH1 0x24 PUSH1 0x0 REVERT JUMPDEST PUSH1 0x0 PUSH2 0x11B8 DUP3 PUSH2 0x955 JUMP JUMPDEST SWAP2 POP PUSH2 0x11C3 DUP4 PUSH2 0x955 JUMP JUMPDEST SWAP3 POP DUP3 PUSH2 0x11D3 JUMPI PUSH2 0x11D2 PUSH2 0x117E JUMP JUMPDEST JUMPDEST DUP3 DUP3 DIV SWAP1 POP SWAP3 SWAP2 POP POP JUMP INVALID LOG2 PUSH5 0x6970667358 0x22 SLT KECCAK256 CALLDATALOAD PUSH16 0x23FCFEBBFE868714B67A5EBE1277F24E PUSH19 0xCC8B121DDBA26E8B4020F0F13464736F6C6343 STOP ADDMOD 0xF STOP CALLER "},"gasEstimates":{"creation":{"codeDepositCost":"925600","executionCost":"infinite","totalCost":"infinite"},"external":{"approve_request(uint256)":"infinite","contribute()":"53310","contributors(address)":"2890","contributorscount()":"2495","create_request(string,uint256,address)":"infinite","finalize_request(uint256)":"infinite","getrequestscount()":"2533","getsummary()":"infinite","manager()":"2578","mincontribution()":"2518","requests(uint256)":"infinite"}},"methodIdentifiers":{"approve_request(uint256)":"0c99d130","contribute()":"d7bb99ba","contributors(address)":"1f6d4942","contributorscount()":"c7b23105","create_request(string,uint256,address)":"b3468311","finalize_request(uint256)":"c799a6bf","getrequestscount()":"cca28958","getsummary()":"03ba79ee","manager()":"481c6a75","mincontribution()":"80e52d68","requests(uint256)":"81d12c58"}},"storageLayout":{"storage":[{"astId":56,"contract":"Campaign.sol:Campaign","label":"manager","offset":0,"slot":"0","type":"t_address"},{"astId":58,"contract":"Campaign.sol:Campaign","label":"mincontribution","offset":0,"slot":"1","type":"t_uint256"},{"astId":62,"contract":"Campaign.sol:Campaign","label":"contributors","offset":0,"slot":"2","type":"t_mapping(t_address,t_bool)"},{"astId":64,"contract":"Campaign.sol:Campaign","label":"contributorscount","offset":0,"slot":"3","type":"t_uint256"},{"astId":68,"contract":"Campaign.sol:Campaign","label":"requests","offset":0,"slot":"4","type":"t_array(t_struct(Request)54_storage)dyn_storage"}],"types":{"t_address":{"encoding":"inplace","label":"address","numberOfBytes":"20"},"t_array(t_struct(Request)54_storage)dyn_storage":{"base":"t_struct(Request)54_storage","encoding":"dynamic_array","label":"struct Campaign.Request[]","numberOfBytes":"32"},"t_bool":{"encoding":"inplace","label":"bool","numberOfBytes":"1"},"t_mapping(t_address,t_bool)":{"encoding":"mapping","key":"t_address","label":"mapping(address => bool)","numberOfBytes":"32","value":"t_bool"},"t_string_storage":{"encoding":"bytes","label":"string","numberOfBytes":"32"},"t_struct(Request)54_storage":{"encoding":"inplace","label":"struct Campaign.Request","members":[{"astId":41,"contract":"Campaign.sol:Campaign","label":"description","offset":0,"slot":"0","type":"t_string_storage"},{"astId":43,"contract":"Campaign.sol:Campaign","label":"value","offset":0,"slot":"1","type":"t_uint256"},{"astId":45,"contract":"Campaign.sol:Campaign","label":"recepient","offset":0,"slot":"2","type":"t_address"},{"astId":47,"contract":"Campaign.sol:Campaign","label":"status","offset":20,"slot":"2","type":"t_bool"},{"astId":51,"contract":"Campaign.sol:Campaign","label":"approvals","offset":0,"slot":"3","type":"t_mapping(t_address,t_bool)"},{"astId":53,"contract":"Campaign.sol:Campaign","label":"approvercount","offset":0,"slot":"4","type":"t_uint256"}],"numberOfBytes":"160"},"t_uint256":{"encoding":"inplace","label":"uint256","numberOfBytes":"32"}}},"userdoc":{"kind":"user","methods":{},"version":1}}