{"abi":[{"inputs":[{"internalType":"uint256","name":"mincontri","type":"uint256"}],"name":"create_campaign","outputs":[],"stateMutability":"nonpayable","type":"function"},{"inputs":[{"internalType":"uint256","name":"","type":"uint256"}],"name":"deployedcampaigns","outputs":[{"internalType":"address","name":"","type":"address"}],"stateMutability":"view","type":"function"},{"inputs":[],"name":"getdeployedcampaign","outputs":[{"internalType":"address[]","name":"","type":"address[]"}],"stateMutability":"view","type":"function"}],"devdoc":{"kind":"dev","methods":{},"version":1},"evm":{"assembly":"    /* \"Campaign.sol\":74:495  contract CampaignFactory{... */\n  mstore(0x40, 0x80)\n  callvalue\n  dup1\n  iszero\n  tag_1\n  jumpi\n  0x00\n  dup1\n  revert\ntag_1:\n  pop\n  dataSize(sub_0)\n  dup1\n  dataOffset(sub_0)\n  0x00\n  codecopy\n  0x00\n  return\nstop\n\nsub_0: assembly {\n        /* \"Campaign.sol\":74:495  contract CampaignFactory{... */\n      mstore(0x40, 0x80)\n      callvalue\n      dup1\n      iszero\n      tag_1\n      jumpi\n      0x00\n      dup1\n      revert\n    tag_1:\n      pop\n      jumpi(tag_2, lt(calldatasize, 0x04))\n      shr(0xe0, calldataload(0x00))\n      dup1\n      0x35c3109a\n      eq\n      tag_3\n      jumpi\n      dup1\n      0x6268503d\n      eq\n      tag_4\n      jumpi\n      dup1\n      0xe9217db2\n      eq\n      tag_5\n      jumpi\n    tag_2:\n      0x00\n      dup1\n      revert\n        /* \"Campaign.sol\":157:349  function create_campaign(uint mincontri) public{... */\n    tag_3:\n      tag_6\n      0x04\n      dup1\n      calldatasize\n      sub\n      dup2\n      add\n      swap1\n      tag_7\n      swap2\n      swap1\n      tag_8\n      jump\t// in\n    tag_7:\n      tag_9\n      jump\t// in\n    tag_6:\n      stop\n        /* \"Campaign.sol\":361:482  function getdeployedcampaign() public view returns( address[] memory ){... */\n    tag_4:\n      tag_10\n      tag_11\n      jump\t// in\n    tag_10:\n      mload(0x40)\n      tag_12\n      swap2\n      swap1\n      tag_13\n      jump\t// in\n    tag_12:\n      mload(0x40)\n      dup1\n      swap2\n      sub\n      swap1\n      return\n        /* \"Campaign.sol\":109:144  address [] public deployedcampaigns */\n    tag_5:\n      tag_14\n      0x04\n      dup1\n      calldatasize\n      sub\n      dup2\n      add\n      swap1\n      tag_15\n      swap2\n      swap1\n      tag_8\n      jump\t// in\n    tag_15:\n      tag_16\n      jump\t// in\n    tag_14:\n      mload(0x40)\n      tag_17\n      swap2\n      swap1\n      tag_18\n      jump\t// in\n    tag_17:\n      mload(0x40)\n      dup1\n      swap2\n      sub\n      swap1\n      return\n        /* \"Campaign.sol\":157:349  function create_campaign(uint mincontri) public{... */\n    tag_9:\n        /* \"Campaign.sol\":219:238  address newcampaign */\n      0x00\n        /* \"Campaign.sol\":263:272  mincontri */\n      dup2\n        /* \"Campaign.sol\":274:284  msg.sender */\n      caller\n        /* \"Campaign.sol\":249:286  new Campaign( mincontri, msg.sender ) */\n      mload(0x40)\n      tag_20\n      swap1\n      tag_21\n      jump\t// in\n    tag_20:\n      tag_22\n      swap3\n      swap2\n      swap1\n      tag_23\n      jump\t// in\n    tag_22:\n      mload(0x40)\n      dup1\n      swap2\n      sub\n      swap1\n      0x00\n      create\n      dup1\n      iszero\n      dup1\n      iszero\n      tag_24\n      jumpi\n      returndatasize\n      0x00\n      dup1\n      returndatacopy\n      revert(0x00, returndatasize)\n    tag_24:\n      pop\n        /* \"Campaign.sol\":219:287  address newcampaign = address(new Campaign( mincontri, msg.sender )) */\n      swap1\n      pop\n        /* \"Campaign.sol\":302:319  deployedcampaigns */\n      0x00\n        /* \"Campaign.sol\":325:336  newcampaign */\n      dup2\n        /* \"Campaign.sol\":302:337  deployedcampaigns.push(newcampaign) */\n      swap1\n      dup1\n      0x01\n      dup2\n      sload\n      add\n      dup1\n      dup3\n      sstore\n      dup1\n      swap2\n      pop\n      pop\n      0x01\n      swap1\n      sub\n      swap1\n      0x00\n      mstore\n      keccak256(0x00, 0x20)\n      add\n      0x00\n      swap1\n      swap2\n      swap1\n      swap2\n      swap1\n      swap2\n      0x0100\n      exp\n      dup2\n      sload\n      dup2\n      0xffffffffffffffffffffffffffffffffffffffff\n      mul\n      not\n      and\n      swap1\n      dup4\n      0xffffffffffffffffffffffffffffffffffffffff\n      and\n      mul\n      or\n      swap1\n      sstore\n      pop\n        /* \"Campaign.sol\":204:349  {... */\n      pop\n        /* \"Campaign.sol\":157:349  function create_campaign(uint mincontri) public{... */\n      pop\n      jump\t// out\n        /* \"Campaign.sol\":361:482  function getdeployedcampaign() public view returns( address[] memory ){... */\n    tag_11:\n        /* \"Campaign.sol\":413:429  address[] memory */\n      0x60\n        /* \"Campaign.sol\":453:470  deployedcampaigns */\n      0x00\n        /* \"Campaign.sol\":446:470  return deployedcampaigns */\n      dup1\n      sload\n      dup1\n      0x20\n      mul\n      0x20\n      add\n      mload(0x40)\n      swap1\n      dup2\n      add\n      0x40\n      mstore\n      dup1\n      swap3\n      swap2\n      swap1\n      dup2\n      dup2\n      mstore\n      0x20\n      add\n      dup3\n      dup1\n      sload\n      dup1\n      iszero\n      tag_27\n      jumpi\n      0x20\n      mul\n      dup3\n      add\n      swap2\n      swap1\n      0x00\n      mstore\n      keccak256(0x00, 0x20)\n      swap1\n    tag_28:\n      dup2\n      0x00\n      swap1\n      sload\n      swap1\n      0x0100\n      exp\n      swap1\n      div\n      0xffffffffffffffffffffffffffffffffffffffff\n      and\n      0xffffffffffffffffffffffffffffffffffffffff\n      and\n      dup2\n      mstore\n      0x20\n      add\n      swap1\n      0x01\n      add\n      swap1\n      dup1\n      dup4\n      gt\n      tag_28\n      jumpi\n    tag_27:\n      pop\n      pop\n      pop\n      pop\n      pop\n      swap1\n      pop\n        /* \"Campaign.sol\":361:482  function getdeployedcampaign() public view returns( address[] memory ){... */\n      swap1\n      jump\t// out\n        /* \"Campaign.sol\":109:144  address [] public deployedcampaigns */\n    tag_16:\n      0x00\n      dup2\n      dup2\n      sload\n      dup2\n      lt\n      tag_29\n      jumpi\n      0x00\n      dup1\n      revert\n    tag_29:\n      swap1\n      0x00\n      mstore\n      keccak256(0x00, 0x20)\n      add\n      0x00\n      swap2\n      pop\n      sload\n      swap1\n      0x0100\n      exp\n      swap1\n      div\n      0xffffffffffffffffffffffffffffffffffffffff\n      and\n      dup2\n      jump\t// out\n    tag_21:\n      dataSize(sub_0)\n      dup1\n      dataOffset(sub_0)\n      dup4\n      codecopy\n      add\n      swap1\n      jump\t// out\n        /* \"#utility.yul\":88:205   */\n    tag_32:\n        /* \"#utility.yul\":197:198   */\n      0x00\n        /* \"#utility.yul\":194:195   */\n      dup1\n        /* \"#utility.yul\":187:199   */\n      revert\n        /* \"#utility.yul\":334:411   */\n    tag_34:\n        /* \"#utility.yul\":371:378   */\n      0x00\n        /* \"#utility.yul\":400:405   */\n      dup2\n        /* \"#utility.yul\":389:405   */\n      swap1\n      pop\n        /* \"#utility.yul\":334:411   */\n      swap2\n      swap1\n      pop\n      jump\t// out\n        /* \"#utility.yul\":417:539   */\n    tag_35:\n        /* \"#utility.yul\":490:514   */\n      tag_54\n        /* \"#utility.yul\":508:513   */\n      dup2\n        /* \"#utility.yul\":490:514   */\n      tag_34\n      jump\t// in\n    tag_54:\n        /* \"#utility.yul\":483:488   */\n      dup2\n        /* \"#utility.yul\":480:515   */\n      eq\n        /* \"#utility.yul\":470:533   */\n      tag_55\n      jumpi\n        /* \"#utility.yul\":529:530   */\n      0x00\n        /* \"#utility.yul\":526:527   */\n      dup1\n        /* \"#utility.yul\":519:531   */\n      revert\n        /* \"#utility.yul\":470:533   */\n    tag_55:\n        /* \"#utility.yul\":417:539   */\n      pop\n      jump\t// out\n        /* \"#utility.yul\":545:684   */\n    tag_36:\n        /* \"#utility.yul\":591:596   */\n      0x00\n        /* \"#utility.yul\":629:635   */\n      dup2\n        /* \"#utility.yul\":616:636   */\n      calldataload\n        /* \"#utility.yul\":607:636   */\n      swap1\n      pop\n        /* \"#utility.yul\":645:678   */\n      tag_57\n        /* \"#utility.yul\":672:677   */\n      dup2\n        /* \"#utility.yul\":645:678   */\n      tag_35\n      jump\t// in\n    tag_57:\n        /* \"#utility.yul\":545:684   */\n      swap3\n      swap2\n      pop\n      pop\n      jump\t// out\n        /* \"#utility.yul\":690:1019   */\n    tag_8:\n        /* \"#utility.yul\":749:755   */\n      0x00\n        /* \"#utility.yul\":798:800   */\n      0x20\n        /* \"#utility.yul\":786:795   */\n      dup3\n        /* \"#utility.yul\":777:784   */\n      dup5\n        /* \"#utility.yul\":773:796   */\n      sub\n        /* \"#utility.yul\":769:801   */\n      slt\n        /* \"#utility.yul\":766:885   */\n      iszero\n      tag_59\n      jumpi\n        /* \"#utility.yul\":804:883   */\n      tag_60\n      tag_32\n      jump\t// in\n    tag_60:\n        /* \"#utility.yul\":766:885   */\n    tag_59:\n        /* \"#utility.yul\":924:925   */\n      0x00\n        /* \"#utility.yul\":949:1002   */\n      tag_61\n        /* \"#utility.yul\":994:1001   */\n      dup5\n        /* \"#utility.yul\":985:991   */\n      dup3\n        /* \"#utility.yul\":974:983   */\n      dup6\n        /* \"#utility.yul\":970:992   */\n      add\n        /* \"#utility.yul\":949:1002   */\n      tag_36\n      jump\t// in\n    tag_61:\n        /* \"#utility.yul\":939:1002   */\n      swap2\n      pop\n        /* \"#utility.yul\":895:1012   */\n      pop\n        /* \"#utility.yul\":690:1019   */\n      swap3\n      swap2\n      pop\n      pop\n      jump\t// out\n        /* \"#utility.yul\":1025:1139   */\n    tag_37:\n        /* \"#utility.yul\":1092:1098   */\n      0x00\n        /* \"#utility.yul\":1126:1131   */\n      dup2\n        /* \"#utility.yul\":1120:1132   */\n      mload\n        /* \"#utility.yul\":1110:1132   */\n      swap1\n      pop\n        /* \"#utility.yul\":1025:1139   */\n      swap2\n      swap1\n      pop\n      jump\t// out\n        /* \"#utility.yul\":1145:1329   */\n    tag_38:\n        /* \"#utility.yul\":1244:1255   */\n      0x00\n        /* \"#utility.yul\":1278:1284   */\n      dup3\n        /* \"#utility.yul\":1273:1276   */\n      dup3\n        /* \"#utility.yul\":1266:1285   */\n      mstore\n        /* \"#utility.yul\":1318:1322   */\n      0x20\n        /* \"#utility.yul\":1313:1316   */\n      dup3\n        /* \"#utility.yul\":1309:1323   */\n      add\n        /* \"#utility.yul\":1294:1323   */\n      swap1\n      pop\n        /* \"#utility.yul\":1145:1329   */\n      swap3\n      swap2\n      pop\n      pop\n      jump\t// out\n        /* \"#utility.yul\":1335:1467   */\n    tag_39:\n        /* \"#utility.yul\":1402:1406   */\n      0x00\n        /* \"#utility.yul\":1425:1428   */\n      dup2\n        /* \"#utility.yul\":1417:1428   */\n      swap1\n      pop\n        /* \"#utility.yul\":1455:1459   */\n      0x20\n        /* \"#utility.yul\":1450:1453   */\n      dup3\n        /* \"#utility.yul\":1446:1460   */\n      add\n        /* \"#utility.yul\":1438:1460   */\n      swap1\n      pop\n        /* \"#utility.yul\":1335:1467   */\n      swap2\n      swap1\n      pop\n      jump\t// out\n        /* \"#utility.yul\":1473:1599   */\n    tag_40:\n        /* \"#utility.yul\":1510:1517   */\n      0x00\n        /* \"#utility.yul\":1550:1592   */\n      0xffffffffffffffffffffffffffffffffffffffff\n        /* \"#utility.yul\":1543:1548   */\n      dup3\n        /* \"#utility.yul\":1539:1593   */\n      and\n        /* \"#utility.yul\":1528:1593   */\n      swap1\n      pop\n        /* \"#utility.yul\":1473:1599   */\n      swap2\n      swap1\n      pop\n      jump\t// out\n        /* \"#utility.yul\":1605:1701   */\n    tag_41:\n        /* \"#utility.yul\":1642:1649   */\n      0x00\n        /* \"#utility.yul\":1671:1695   */\n      tag_67\n        /* \"#utility.yul\":1689:1694   */\n      dup3\n        /* \"#utility.yul\":1671:1695   */\n      tag_40\n      jump\t// in\n    tag_67:\n        /* \"#utility.yul\":1660:1695   */\n      swap1\n      pop\n        /* \"#utility.yul\":1605:1701   */\n      swap2\n      swap1\n      pop\n      jump\t// out\n        /* \"#utility.yul\":1707:1815   */\n    tag_42:\n        /* \"#utility.yul\":1784:1808   */\n      tag_69\n        /* \"#utility.yul\":1802:1807   */\n      dup2\n        /* \"#utility.yul\":1784:1808   */\n      tag_41\n      jump\t// in\n    tag_69:\n        /* \"#utility.yul\":1779:1782   */\n      dup3\n        /* \"#utility.yul\":1772:1809   */\n      mstore\n        /* \"#utility.yul\":1707:1815   */\n      pop\n      pop\n      jump\t// out\n        /* \"#utility.yul\":1821:2000   */\n    tag_43:\n        /* \"#utility.yul\":1890:1900   */\n      0x00\n        /* \"#utility.yul\":1911:1957   */\n      tag_71\n        /* \"#utility.yul\":1953:1956   */\n      dup4\n        /* \"#utility.yul\":1945:1951   */\n      dup4\n        /* \"#utility.yul\":1911:1957   */\n      tag_42\n      jump\t// in\n    tag_71:\n        /* \"#utility.yul\":1989:1993   */\n      0x20\n        /* \"#utility.yul\":1984:1987   */\n      dup4\n        /* \"#utility.yul\":1980:1994   */\n      add\n        /* \"#utility.yul\":1966:1994   */\n      swap1\n      pop\n        /* \"#utility.yul\":1821:2000   */\n      swap3\n      swap2\n      pop\n      pop\n      jump\t// out\n        /* \"#utility.yul\":2006:2119   */\n    tag_44:\n        /* \"#utility.yul\":2076:2080   */\n      0x00\n        /* \"#utility.yul\":2108:2112   */\n      0x20\n        /* \"#utility.yul\":2103:2106   */\n      dup3\n        /* \"#utility.yul\":2099:2113   */\n      add\n        /* \"#utility.yul\":2091:2113   */\n      swap1\n      pop\n        /* \"#utility.yul\":2006:2119   */\n      swap2\n      swap1\n      pop\n      jump\t// out\n        /* \"#utility.yul\":2155:2887   */\n    tag_45:\n        /* \"#utility.yul\":2274:2277   */\n      0x00\n        /* \"#utility.yul\":2303:2357   */\n      tag_74\n        /* \"#utility.yul\":2351:2356   */\n      dup3\n        /* \"#utility.yul\":2303:2357   */\n      tag_37\n      jump\t// in\n    tag_74:\n        /* \"#utility.yul\":2373:2459   */\n      tag_75\n        /* \"#utility.yul\":2452:2458   */\n      dup2\n        /* \"#utility.yul\":2447:2450   */\n      dup6\n        /* \"#utility.yul\":2373:2459   */\n      tag_38\n      jump\t// in\n    tag_75:\n        /* \"#utility.yul\":2366:2459   */\n      swap4\n      pop\n        /* \"#utility.yul\":2483:2539   */\n      tag_76\n        /* \"#utility.yul\":2533:2538   */\n      dup4\n        /* \"#utility.yul\":2483:2539   */\n      tag_39\n      jump\t// in\n    tag_76:\n        /* \"#utility.yul\":2562:2569   */\n      dup1\n        /* \"#utility.yul\":2593:2594   */\n      0x00\n        /* \"#utility.yul\":2578:2862   */\n    tag_77:\n        /* \"#utility.yul\":2603:2609   */\n      dup4\n        /* \"#utility.yul\":2600:2601   */\n      dup2\n        /* \"#utility.yul\":2597:2610   */\n      lt\n        /* \"#utility.yul\":2578:2862   */\n      iszero\n      tag_79\n      jumpi\n        /* \"#utility.yul\":2679:2685   */\n      dup2\n        /* \"#utility.yul\":2673:2686   */\n      mload\n        /* \"#utility.yul\":2706:2769   */\n      tag_80\n        /* \"#utility.yul\":2765:2768   */\n      dup9\n        /* \"#utility.yul\":2750:2763   */\n      dup3\n        /* \"#utility.yul\":2706:2769   */\n      tag_43\n      jump\t// in\n    tag_80:\n        /* \"#utility.yul\":2699:2769   */\n      swap8\n      pop\n        /* \"#utility.yul\":2792:2852   */\n      tag_81\n        /* \"#utility.yul\":2845:2851   */\n      dup4\n        /* \"#utility.yul\":2792:2852   */\n      tag_44\n      jump\t// in\n    tag_81:\n        /* \"#utility.yul\":2782:2852   */\n      swap3\n      pop\n        /* \"#utility.yul\":2638:2862   */\n      pop\n        /* \"#utility.yul\":2625:2626   */\n      0x01\n        /* \"#utility.yul\":2622:2623   */\n      dup2\n        /* \"#utility.yul\":2618:2627   */\n      add\n        /* \"#utility.yul\":2613:2627   */\n      swap1\n      pop\n        /* \"#utility.yul\":2578:2862   */\n      jump(tag_77)\n    tag_79:\n        /* \"#utility.yul\":2582:2596   */\n      pop\n        /* \"#utility.yul\":2878:2881   */\n      dup6\n        /* \"#utility.yul\":2871:2881   */\n      swap4\n      pop\n        /* \"#utility.yul\":2279:2887   */\n      pop\n      pop\n      pop\n        /* \"#utility.yul\":2155:2887   */\n      swap3\n      swap2\n      pop\n      pop\n      jump\t// out\n        /* \"#utility.yul\":2893:3266   */\n    tag_13:\n        /* \"#utility.yul\":3036:3040   */\n      0x00\n        /* \"#utility.yul\":3074:3076   */\n      0x20\n        /* \"#utility.yul\":3063:3072   */\n      dup3\n        /* \"#utility.yul\":3059:3077   */\n      add\n        /* \"#utility.yul\":3051:3077   */\n      swap1\n      pop\n        /* \"#utility.yul\":3123:3132   */\n      dup2\n        /* \"#utility.yul\":3117:3121   */\n      dup2\n        /* \"#utility.yul\":3113:3133   */\n      sub\n        /* \"#utility.yul\":3109:3110   */\n      0x00\n        /* \"#utility.yul\":3098:3107   */\n      dup4\n        /* \"#utility.yul\":3094:3111   */\n      add\n        /* \"#utility.yul\":3087:3134   */\n      mstore\n        /* \"#utility.yul\":3151:3259   */\n      tag_83\n        /* \"#utility.yul\":3254:3258   */\n      dup2\n        /* \"#utility.yul\":3245:3251   */\n      dup5\n        /* \"#utility.yul\":3151:3259   */\n      tag_45\n      jump\t// in\n    tag_83:\n        /* \"#utility.yul\":3143:3259   */\n      swap1\n      pop\n        /* \"#utility.yul\":2893:3266   */\n      swap3\n      swap2\n      pop\n      pop\n      jump\t// out\n        /* \"#utility.yul\":3272:3390   */\n    tag_46:\n        /* \"#utility.yul\":3359:3383   */\n      tag_85\n        /* \"#utility.yul\":3377:3382   */\n      dup2\n        /* \"#utility.yul\":3359:3383   */\n      tag_41\n      jump\t// in\n    tag_85:\n        /* \"#utility.yul\":3354:3357   */\n      dup3\n        /* \"#utility.yul\":3347:3384   */\n      mstore\n        /* \"#utility.yul\":3272:3390   */\n      pop\n      pop\n      jump\t// out\n        /* \"#utility.yul\":3396:3618   */\n    tag_18:\n        /* \"#utility.yul\":3489:3493   */\n      0x00\n        /* \"#utility.yul\":3527:3529   */\n      0x20\n        /* \"#utility.yul\":3516:3525   */\n      dup3\n        /* \"#utility.yul\":3512:3530   */\n      add\n        /* \"#utility.yul\":3504:3530   */\n      swap1\n      pop\n        /* \"#utility.yul\":3540:3611   */\n      tag_87\n        /* \"#utility.yul\":3608:3609   */\n      0x00\n        /* \"#utility.yul\":3597:3606   */\n      dup4\n        /* \"#utility.yul\":3593:3610   */\n      add\n        /* \"#utility.yul\":3584:3590   */\n      dup5\n        /* \"#utility.yul\":3540:3611   */\n      tag_46\n      jump\t// in\n    tag_87:\n        /* \"#utility.yul\":3396:3618   */\n      swap3\n      swap2\n      pop\n      pop\n      jump\t// out\n        /* \"#utility.yul\":3624:3742   */\n    tag_47:\n        /* \"#utility.yul\":3711:3735   */\n      tag_89\n        /* \"#utility.yul\":3729:3734   */\n      dup2\n        /* \"#utility.yul\":3711:3735   */\n      tag_34\n      jump\t// in\n    tag_89:\n        /* \"#utility.yul\":3706:3709   */\n      dup3\n        /* \"#utility.yul\":3699:3736   */\n      mstore\n        /* \"#utility.yul\":3624:3742   */\n      pop\n      pop\n      jump\t// out\n        /* \"#utility.yul\":3748:4080   */\n    tag_23:\n        /* \"#utility.yul\":3869:3873   */\n      0x00\n        /* \"#utility.yul\":3907:3909   */\n      0x40\n        /* \"#utility.yul\":3896:3905   */\n      dup3\n        /* \"#utility.yul\":3892:3910   */\n      add\n        /* \"#utility.yul\":3884:3910   */\n      swap1\n      pop\n        /* \"#utility.yul\":3920:3991   */\n      tag_91\n        /* \"#utility.yul\":3988:3989   */\n      0x00\n        /* \"#utility.yul\":3977:3986   */\n      dup4\n        /* \"#utility.yul\":3973:3990   */\n      add\n        /* \"#utility.yul\":3964:3970   */\n      dup6\n        /* \"#utility.yul\":3920:3991   */\n      tag_47\n      jump\t// in\n    tag_91:\n        /* \"#utility.yul\":4001:4073   */\n      tag_92\n        /* \"#utility.yul\":4069:4071   */\n      0x20\n        /* \"#utility.yul\":4058:4067   */\n      dup4\n        /* \"#utility.yul\":4054:4072   */\n      add\n        /* \"#utility.yul\":4045:4051   */\n      dup5\n        /* \"#utility.yul\":4001:4073   */\n      tag_46\n      jump\t// in\n    tag_92:\n        /* \"#utility.yul\":3748:4080   */\n      swap4\n      swap3\n      pop\n      pop\n      pop\n      jump\t// out\n    stop\n\n    sub_0: assembly {\n            /* \"Campaign.sol\":505:3248  contract Campaign {... */\n          mstore(0x40, 0x80)\n            /* \"Campaign.sol\":1261:1455  constructor( uint mincontri, address creator) {... */\n          callvalue\n          dup1\n          iszero\n          tag_1\n          jumpi\n          0x00\n          dup1\n          revert\n        tag_1:\n          pop\n          mload(0x40)\n          sub(codesize, bytecodeSize)\n          dup1\n          bytecodeSize\n          dup4\n          codecopy\n          dup2\n          dup2\n          add\n          0x40\n          mstore\n          dup2\n          add\n          swap1\n          tag_2\n          swap2\n          swap1\n          tag_3\n          jump\t// in\n        tag_2:\n            /* \"Campaign.sol\":1332:1339  creator */\n          dup1\n            /* \"Campaign.sol\":1322:1329  manager */\n          0x00\n          dup1\n            /* \"Campaign.sol\":1322:1339  manager = creator */\n          0x0100\n          exp\n          dup2\n          sload\n          dup2\n          0xffffffffffffffffffffffffffffffffffffffff\n          mul\n          not\n          and\n          swap1\n          dup4\n          0xffffffffffffffffffffffffffffffffffffffff\n          and\n          mul\n          or\n          swap1\n          sstore\n          pop\n            /* \"Campaign.sol\":1372:1381  mincontri */\n          dup2\n            /* \"Campaign.sol\":1354:1369  mincontribution */\n          0x01\n            /* \"Campaign.sol\":1354:1381  mincontribution = mincontri */\n          dup2\n          swap1\n          sstore\n          pop\n            /* \"Campaign.sol\":1261:1455  constructor( uint mincontri, address creator) {... */\n          pop\n          pop\n            /* \"Campaign.sol\":505:3248  contract Campaign {... */\n          jump(tag_6)\n            /* \"#utility.yul\":88:205   */\n        tag_8:\n            /* \"#utility.yul\":197:198   */\n          0x00\n            /* \"#utility.yul\":194:195   */\n          dup1\n            /* \"#utility.yul\":187:199   */\n          revert\n            /* \"#utility.yul\":334:411   */\n        tag_10:\n            /* \"#utility.yul\":371:378   */\n          0x00\n            /* \"#utility.yul\":400:405   */\n          dup2\n            /* \"#utility.yul\":389:405   */\n          swap1\n          pop\n            /* \"#utility.yul\":334:411   */\n          swap2\n          swap1\n          pop\n          jump\t// out\n            /* \"#utility.yul\":417:539   */\n        tag_11:\n            /* \"#utility.yul\":490:514   */\n          tag_23\n            /* \"#utility.yul\":508:513   */\n          dup2\n            /* \"#utility.yul\":490:514   */\n          tag_10\n          jump\t// in\n        tag_23:\n            /* \"#utility.yul\":483:488   */\n          dup2\n            /* \"#utility.yul\":480:515   */\n          eq\n            /* \"#utility.yul\":470:533   */\n          tag_24\n          jumpi\n            /* \"#utility.yul\":529:530   */\n          0x00\n            /* \"#utility.yul\":526:527   */\n          dup1\n            /* \"#utility.yul\":519:531   */\n          revert\n            /* \"#utility.yul\":470:533   */\n        tag_24:\n            /* \"#utility.yul\":417:539   */\n          pop\n          jump\t// out\n            /* \"#utility.yul\":545:688   */\n        tag_12:\n            /* \"#utility.yul\":602:607   */\n          0x00\n            /* \"#utility.yul\":633:639   */\n          dup2\n            /* \"#utility.yul\":627:640   */\n          mload\n            /* \"#utility.yul\":618:640   */\n          swap1\n          pop\n            /* \"#utility.yul\":649:682   */\n          tag_26\n            /* \"#utility.yul\":676:681   */\n          dup2\n            /* \"#utility.yul\":649:682   */\n          tag_11\n          jump\t// in\n        tag_26:\n            /* \"#utility.yul\":545:688   */\n          swap3\n          swap2\n          pop\n          pop\n          jump\t// out\n            /* \"#utility.yul\":694:820   */\n        tag_13:\n            /* \"#utility.yul\":731:738   */\n          0x00\n            /* \"#utility.yul\":771:813   */\n          0xffffffffffffffffffffffffffffffffffffffff\n            /* \"#utility.yul\":764:769   */\n          dup3\n            /* \"#utility.yul\":760:814   */\n          and\n            /* \"#utility.yul\":749:814   */\n          swap1\n          pop\n            /* \"#utility.yul\":694:820   */\n          swap2\n          swap1\n          pop\n          jump\t// out\n            /* \"#utility.yul\":826:922   */\n        tag_14:\n            /* \"#utility.yul\":863:870   */\n          0x00\n            /* \"#utility.yul\":892:916   */\n          tag_29\n            /* \"#utility.yul\":910:915   */\n          dup3\n            /* \"#utility.yul\":892:916   */\n          tag_13\n          jump\t// in\n        tag_29:\n            /* \"#utility.yul\":881:916   */\n          swap1\n          pop\n            /* \"#utility.yul\":826:922   */\n          swap2\n          swap1\n          pop\n          jump\t// out\n            /* \"#utility.yul\":928:1050   */\n        tag_15:\n            /* \"#utility.yul\":1001:1025   */\n          tag_31\n            /* \"#utility.yul\":1019:1024   */\n          dup2\n            /* \"#utility.yul\":1001:1025   */\n          tag_14\n          jump\t// in\n        tag_31:\n            /* \"#utility.yul\":994:999   */\n          dup2\n            /* \"#utility.yul\":991:1026   */\n          eq\n            /* \"#utility.yul\":981:1044   */\n          tag_32\n          jumpi\n            /* \"#utility.yul\":1040:1041   */\n          0x00\n            /* \"#utility.yul\":1037:1038   */\n          dup1\n            /* \"#utility.yul\":1030:1042   */\n          revert\n            /* \"#utility.yul\":981:1044   */\n        tag_32:\n            /* \"#utility.yul\":928:1050   */\n          pop\n          jump\t// out\n            /* \"#utility.yul\":1056:1199   */\n        tag_16:\n            /* \"#utility.yul\":1113:1118   */\n          0x00\n            /* \"#utility.yul\":1144:1150   */\n          dup2\n            /* \"#utility.yul\":1138:1151   */\n          mload\n            /* \"#utility.yul\":1129:1151   */\n          swap1\n          pop\n            /* \"#utility.yul\":1160:1193   */\n          tag_34\n            /* \"#utility.yul\":1187:1192   */\n          dup2\n            /* \"#utility.yul\":1160:1193   */\n          tag_15\n          jump\t// in\n        tag_34:\n            /* \"#utility.yul\":1056:1199   */\n          swap3\n          swap2\n          pop\n          pop\n          jump\t// out\n            /* \"#utility.yul\":1205:1712   */\n        tag_3:\n            /* \"#utility.yul\":1284:1290   */\n          0x00\n            /* \"#utility.yul\":1292:1298   */\n          dup1\n            /* \"#utility.yul\":1341:1343   */\n          0x40\n            /* \"#utility.yul\":1329:1338   */\n          dup4\n            /* \"#utility.yul\":1320:1327   */\n          dup6\n            /* \"#utility.yul\":1316:1339   */\n          sub\n            /* \"#utility.yul\":1312:1344   */\n          slt\n            /* \"#utility.yul\":1309:1428   */\n          iszero\n          tag_36\n          jumpi\n            /* \"#utility.yul\":1347:1426   */\n          tag_37\n          tag_8\n          jump\t// in\n        tag_37:\n            /* \"#utility.yul\":1309:1428   */\n        tag_36:\n            /* \"#utility.yul\":1467:1468   */\n          0x00\n            /* \"#utility.yul\":1492:1556   */\n          tag_38\n            /* \"#utility.yul\":1548:1555   */\n          dup6\n            /* \"#utility.yul\":1539:1545   */\n          dup3\n            /* \"#utility.yul\":1528:1537   */\n          dup7\n            /* \"#utility.yul\":1524:1546   */\n          add\n            /* \"#utility.yul\":1492:1556   */\n          tag_12\n          jump\t// in\n        tag_38:\n            /* \"#utility.yul\":1482:1556   */\n          swap3\n          pop\n            /* \"#utility.yul\":1438:1566   */\n          pop\n            /* \"#utility.yul\":1605:1607   */\n          0x20\n            /* \"#utility.yul\":1631:1695   */\n          tag_39\n            /* \"#utility.yul\":1687:1694   */\n          dup6\n            /* \"#utility.yul\":1678:1684   */\n          dup3\n            /* \"#utility.yul\":1667:1676   */\n          dup7\n            /* \"#utility.yul\":1663:1685   */\n          add\n            /* \"#utility.yul\":1631:1695   */\n          tag_16\n          jump\t// in\n        tag_39:\n            /* \"#utility.yul\":1621:1695   */\n          swap2\n          pop\n            /* \"#utility.yul\":1576:1705   */\n          pop\n            /* \"#utility.yul\":1205:1712   */\n          swap3\n          pop\n          swap3\n          swap1\n          pop\n          jump\t// out\n            /* \"Campaign.sol\":505:3248  contract Campaign {... */\n        tag_6:\n          dataSize(sub_0)\n          dup1\n          dataOffset(sub_0)\n          0x00\n          codecopy\n          0x00\n          return\n        stop\n\n        sub_0: assembly {\n                /* \"Campaign.sol\":505:3248  contract Campaign {... */\n              mstore(0x40, 0x80)\n              jumpi(tag_1, lt(calldatasize, 0x04))\n              shr(0xe0, calldataload(0x00))\n              dup1\n              0x81d12c58\n              gt\n              tag_11\n              jumpi\n              dup1\n              0x81d12c58\n              eq\n              tag_6\n              jumpi\n              dup1\n              0xb3468311\n              eq\n              tag_7\n              jumpi\n              dup1\n              0xc799a6bf\n              eq\n              tag_8\n              jumpi\n              dup1\n              0xc7b23105\n              eq\n              tag_9\n              jumpi\n              dup1\n              0xd7bb99ba\n              eq\n              tag_10\n              jumpi\n              jump(tag_1)\n            tag_11:\n              dup1\n              0x0c99d130\n              eq\n              tag_2\n              jumpi\n              dup1\n              0x1f6d4942\n              eq\n              tag_3\n              jumpi\n              dup1\n              0x481c6a75\n              eq\n              tag_4\n              jumpi\n              dup1\n              0x80e52d68\n              eq\n              tag_5\n              jumpi\n            tag_1:\n              0x00\n              dup1\n              revert\n                /* \"Campaign.sol\":2311:2628  function approve_request(uint index) public {... */\n            tag_2:\n              callvalue\n              dup1\n              iszero\n              tag_12\n              jumpi\n              0x00\n              dup1\n              revert\n            tag_12:\n              pop\n              tag_13\n              0x04\n              dup1\n              calldatasize\n              sub\n              dup2\n              add\n              swap1\n              tag_14\n              swap2\n              swap1\n              tag_15\n              jump\t// in\n            tag_14:\n              tag_16\n              jump\t// in\n            tag_13:\n              stop\n                /* \"Campaign.sol\":892:937  mapping (address => bool) public contributors */\n            tag_3:\n              callvalue\n              dup1\n              iszero\n              tag_17\n              jumpi\n              0x00\n              dup1\n              revert\n            tag_17:\n              pop\n              tag_18\n              0x04\n              dup1\n              calldatasize\n              sub\n              dup2\n              add\n              swap1\n              tag_19\n              swap2\n              swap1\n              tag_20\n              jump\t// in\n            tag_19:\n              tag_21\n              jump\t// in\n            tag_18:\n              mload(0x40)\n              tag_22\n              swap2\n              swap1\n              tag_23\n              jump\t// in\n            tag_22:\n              mload(0x40)\n              dup1\n              swap2\n              sub\n              swap1\n              return\n                /* \"Campaign.sol\":821:843  address public manager */\n            tag_4:\n              callvalue\n              dup1\n              iszero\n              tag_24\n              jumpi\n              0x00\n              dup1\n              revert\n            tag_24:\n              pop\n              tag_25\n              tag_26\n              jump\t// in\n            tag_25:\n              mload(0x40)\n              tag_27\n              swap2\n              swap1\n              tag_28\n              jump\t// in\n            tag_27:\n              mload(0x40)\n              dup1\n              swap2\n              sub\n              swap1\n              return\n                /* \"Campaign.sol\":854:881  uint public mincontribution */\n            tag_5:\n              callvalue\n              dup1\n              iszero\n              tag_29\n              jumpi\n              0x00\n              dup1\n              revert\n            tag_29:\n              pop\n              tag_30\n              tag_31\n              jump\t// in\n            tag_30:\n              mload(0x40)\n              tag_32\n              swap2\n              swap1\n              tag_33\n              jump\t// in\n            tag_32:\n              mload(0x40)\n              dup1\n              swap2\n              sub\n              swap1\n              return\n                /* \"Campaign.sol\":1010:1035  Request[] public requests */\n            tag_6:\n              callvalue\n              dup1\n              iszero\n              tag_34\n              jumpi\n              0x00\n              dup1\n              revert\n            tag_34:\n              pop\n              tag_35\n              0x04\n              dup1\n              calldatasize\n              sub\n              dup2\n              add\n              swap1\n              tag_36\n              swap2\n              swap1\n              tag_15\n              jump\t// in\n            tag_36:\n              tag_37\n              jump\t// in\n            tag_35:\n              mload(0x40)\n              tag_38\n              swap6\n              swap5\n              swap4\n              swap3\n              swap2\n              swap1\n              tag_39\n              jump\t// in\n            tag_38:\n              mload(0x40)\n              dup1\n              swap2\n              sub\n              swap1\n              return\n                /* \"Campaign.sol\":1810:2299  function create_request( string memory description, uint value, address recepient) public manager_only{... */\n            tag_7:\n              callvalue\n              dup1\n              iszero\n              tag_40\n              jumpi\n              0x00\n              dup1\n              revert\n            tag_40:\n              pop\n              tag_41\n              0x04\n              dup1\n              calldatasize\n              sub\n              dup2\n              add\n              swap1\n              tag_42\n              swap2\n              swap1\n              tag_43\n              jump\t// in\n            tag_42:\n              tag_44\n              jump\t// in\n            tag_41:\n              stop\n                /* \"Campaign.sol\":2640:3241  function finalize_request(uint index) public manager_only {... */\n            tag_8:\n              callvalue\n              dup1\n              iszero\n              tag_45\n              jumpi\n              0x00\n              dup1\n              revert\n            tag_45:\n              pop\n              tag_46\n              0x04\n              dup1\n              calldatasize\n              sub\n              dup2\n              add\n              swap1\n              tag_47\n              swap2\n              swap1\n              tag_15\n              jump\t// in\n            tag_47:\n              tag_48\n              jump\t// in\n            tag_46:\n              stop\n                /* \"Campaign.sol\":970:999  uint public contributorscount */\n            tag_9:\n              callvalue\n              dup1\n              iszero\n              tag_49\n              jumpi\n              0x00\n              dup1\n              revert\n            tag_49:\n              pop\n              tag_50\n              tag_51\n              jump\t// in\n            tag_50:\n              mload(0x40)\n              tag_52\n              swap2\n              swap1\n              tag_33\n              jump\t// in\n            tag_52:\n              mload(0x40)\n              dup1\n              swap2\n              sub\n              swap1\n              return\n                /* \"Campaign.sol\":1467:1798  function contribute() public payable {... */\n            tag_10:\n              tag_53\n              tag_54\n              jump\t// in\n            tag_53:\n              stop\n                /* \"Campaign.sol\":2311:2628  function approve_request(uint index) public {... */\n            tag_16:\n                /* \"Campaign.sol\":2377:2389  contributors */\n              0x02\n                /* \"Campaign.sol\":2377:2401  contributors[msg.sender] */\n              0x00\n                /* \"Campaign.sol\":2390:2400  msg.sender */\n              caller\n                /* \"Campaign.sol\":2377:2401  contributors[msg.sender] */\n              0xffffffffffffffffffffffffffffffffffffffff\n              and\n              0xffffffffffffffffffffffffffffffffffffffff\n              and\n              dup2\n              mstore\n              0x20\n              add\n              swap1\n              dup2\n              mstore\n              0x20\n              add\n              0x00\n              keccak256\n              0x00\n              swap1\n              sload\n              swap1\n              0x0100\n              exp\n              swap1\n              div\n              0xff\n              and\n                /* \"Campaign.sol\":2370:2402  assert(contributors[msg.sender]) */\n              tag_56\n              jumpi\n              tag_57\n              tag_58\n              jump\t// in\n            tag_57:\n            tag_56:\n                /* \"Campaign.sol\":2447:2455  requests */\n              0x04\n                /* \"Campaign.sol\":2456:2461  index */\n              dup2\n                /* \"Campaign.sol\":2447:2462  requests[index] */\n              dup2\n              sload\n              dup2\n              lt\n              tag_59\n              jumpi\n              tag_60\n              tag_61\n              jump\t// in\n            tag_60:\n            tag_59:\n              swap1\n              0x00\n              mstore\n              keccak256(0x00, 0x20)\n              swap1\n              0x05\n              mul\n              add\n                /* \"Campaign.sol\":2447:2472  requests[index].approvals */\n              0x03\n              add\n                /* \"Campaign.sol\":2447:2484  requests[index].approvals[msg.sender] */\n              0x00\n                /* \"Campaign.sol\":2473:2483  msg.sender */\n              caller\n                /* \"Campaign.sol\":2447:2484  requests[index].approvals[msg.sender] */\n              0xffffffffffffffffffffffffffffffffffffffff\n              and\n              0xffffffffffffffffffffffffffffffffffffffff\n              and\n              dup2\n              mstore\n              0x20\n              add\n              swap1\n              dup2\n              mstore\n              0x20\n              add\n              0x00\n              keccak256\n              0x00\n              swap1\n              sload\n              swap1\n              0x0100\n              exp\n              swap1\n              div\n              0xff\n              and\n                /* \"Campaign.sol\":2446:2484  !requests[index].approvals[msg.sender] */\n              iszero\n                /* \"Campaign.sol\":2438:2485  require(!requests[index].approvals[msg.sender]) */\n              tag_63\n              jumpi\n              0x00\n              dup1\n              revert\n            tag_63:\n                /* \"Campaign.sol\":2566:2570  true */\n              0x01\n                /* \"Campaign.sol\":2526:2534  requests */\n              0x04\n                /* \"Campaign.sol\":2535:2540  index */\n              dup3\n                /* \"Campaign.sol\":2526:2541  requests[index] */\n              dup2\n              sload\n              dup2\n              lt\n              tag_64\n              jumpi\n              tag_65\n              tag_61\n              jump\t// in\n            tag_65:\n            tag_64:\n              swap1\n              0x00\n              mstore\n              keccak256(0x00, 0x20)\n              swap1\n              0x05\n              mul\n              add\n                /* \"Campaign.sol\":2526:2551  requests[index].approvals */\n              0x03\n              add\n                /* \"Campaign.sol\":2526:2563  requests[index].approvals[msg.sender] */\n              0x00\n                /* \"Campaign.sol\":2552:2562  msg.sender */\n              caller\n                /* \"Campaign.sol\":2526:2563  requests[index].approvals[msg.sender] */\n              0xffffffffffffffffffffffffffffffffffffffff\n              and\n              0xffffffffffffffffffffffffffffffffffffffff\n              and\n              dup2\n              mstore\n              0x20\n              add\n              swap1\n              dup2\n              mstore\n              0x20\n              add\n              0x00\n              keccak256\n              0x00\n                /* \"Campaign.sol\":2526:2570  requests[index].approvals[msg.sender] = true */\n              0x0100\n              exp\n              dup2\n              sload\n              dup2\n              0xff\n              mul\n              not\n              and\n              swap1\n              dup4\n              iszero\n              iszero\n              mul\n              or\n              swap1\n              sstore\n              pop\n                /* \"Campaign.sol\":2585:2593  requests */\n              0x04\n                /* \"Campaign.sol\":2594:2599  index */\n              dup2\n                /* \"Campaign.sol\":2585:2600  requests[index] */\n              dup2\n              sload\n              dup2\n              lt\n              tag_67\n              jumpi\n              tag_68\n              tag_61\n              jump\t// in\n            tag_68:\n            tag_67:\n              swap1\n              0x00\n              mstore\n              keccak256(0x00, 0x20)\n              swap1\n              0x05\n              mul\n              add\n                /* \"Campaign.sol\":2585:2614  requests[index].approvercount */\n              0x04\n              add\n              0x00\n                /* \"Campaign.sol\":2585:2616  requests[index].approvercount++ */\n              dup2\n              sload\n              dup1\n              swap3\n              swap2\n              swap1\n              tag_70\n              swap1\n              tag_71\n              jump\t// in\n            tag_70:\n              swap2\n              swap1\n              pop\n              sstore\n              pop\n                /* \"Campaign.sol\":2311:2628  function approve_request(uint index) public {... */\n              pop\n              jump\t// out\n                /* \"Campaign.sol\":892:937  mapping (address => bool) public contributors */\n            tag_21:\n              mstore(0x20, 0x02)\n              dup1\n              0x00\n              mstore\n              keccak256(0x00, 0x40)\n              0x00\n              swap2\n              pop\n              sload\n              swap1\n              0x0100\n              exp\n              swap1\n              div\n              0xff\n              and\n              dup2\n              jump\t// out\n                /* \"Campaign.sol\":821:843  address public manager */\n            tag_26:\n              0x00\n              dup1\n              sload\n              swap1\n              0x0100\n              exp\n              swap1\n              div\n              0xffffffffffffffffffffffffffffffffffffffff\n              and\n              dup2\n              jump\t// out\n                /* \"Campaign.sol\":854:881  uint public mincontribution */\n            tag_31:\n              sload(0x01)\n              dup2\n              jump\t// out\n                /* \"Campaign.sol\":1010:1035  Request[] public requests */\n            tag_37:\n              0x04\n              dup2\n              dup2\n              sload\n              dup2\n              lt\n              tag_72\n              jumpi\n              0x00\n              dup1\n              revert\n            tag_72:\n              swap1\n              0x00\n              mstore\n              keccak256(0x00, 0x20)\n              swap1\n              0x05\n              mul\n              add\n              0x00\n              swap2\n              pop\n              swap1\n              pop\n              dup1\n              0x00\n              add\n              dup1\n              sload\n              tag_74\n              swap1\n              tag_75\n              jump\t// in\n            tag_74:\n              dup1\n              0x1f\n              add\n              0x20\n              dup1\n              swap2\n              div\n              mul\n              0x20\n              add\n              mload(0x40)\n              swap1\n              dup2\n              add\n              0x40\n              mstore\n              dup1\n              swap3\n              swap2\n              swap1\n              dup2\n              dup2\n              mstore\n              0x20\n              add\n              dup3\n              dup1\n              sload\n              tag_76\n              swap1\n              tag_75\n              jump\t// in\n            tag_76:\n              dup1\n              iszero\n              tag_77\n              jumpi\n              dup1\n              0x1f\n              lt\n              tag_78\n              jumpi\n              0x0100\n              dup1\n              dup4\n              sload\n              div\n              mul\n              dup4\n              mstore\n              swap2\n              0x20\n              add\n              swap2\n              jump(tag_77)\n            tag_78:\n              dup3\n              add\n              swap2\n              swap1\n              0x00\n              mstore\n              keccak256(0x00, 0x20)\n              swap1\n            tag_79:\n              dup2\n              sload\n              dup2\n              mstore\n              swap1\n              0x01\n              add\n              swap1\n              0x20\n              add\n              dup1\n              dup4\n              gt\n              tag_79\n              jumpi\n              dup3\n              swap1\n              sub\n              0x1f\n              and\n              dup3\n              add\n              swap2\n            tag_77:\n              pop\n              pop\n              pop\n              pop\n              pop\n              swap1\n              dup1\n              0x01\n              add\n              sload\n              swap1\n              dup1\n              0x02\n              add\n              0x00\n              swap1\n              sload\n              swap1\n              0x0100\n              exp\n              swap1\n              div\n              0xffffffffffffffffffffffffffffffffffffffff\n              and\n              swap1\n              dup1\n              0x02\n              add\n              0x14\n              swap1\n              sload\n              swap1\n              0x0100\n              exp\n              swap1\n              div\n              0xff\n              and\n              swap1\n              dup1\n              0x04\n              add\n              sload\n              swap1\n              pop\n              dup6\n              jump\t// out\n                /* \"Campaign.sol\":1810:2299  function create_request( string memory description, uint value, address recepient) public manager_only{... */\n            tag_44:\n                /* \"Campaign.sol\":1155:1162  manager */\n              0x00\n              dup1\n              sload\n              swap1\n              0x0100\n              exp\n              swap1\n              div\n              0xffffffffffffffffffffffffffffffffffffffff\n              and\n                /* \"Campaign.sol\":1141:1162  msg.sender == manager */\n              0xffffffffffffffffffffffffffffffffffffffff\n              and\n                /* \"Campaign.sol\":1141:1151  msg.sender */\n              caller\n                /* \"Campaign.sol\":1141:1162  msg.sender == manager */\n              0xffffffffffffffffffffffffffffffffffffffff\n              and\n              eq\n                /* \"Campaign.sol\":1133:1163  require(msg.sender == manager) */\n              tag_81\n              jumpi\n              0x00\n              dup1\n              revert\n            tag_81:\n                /* \"Campaign.sol\":1927:1953  Request storage newrequest */\n              0x00\n                /* \"Campaign.sol\":1956:1964  requests */\n              0x04\n                /* \"Campaign.sol\":1956:1971  requests.push() */\n              0x01\n              dup2\n              0x01\n              dup2\n              sload\n              add\n              dup1\n              dup3\n              sstore\n              dup1\n              swap2\n              pop\n              pop\n              sub\n              swap1\n              0x00\n              mstore\n              keccak256(0x00, 0x20)\n              swap1\n              0x05\n              mul\n              add\n                /* \"Campaign.sol\":1927:1971  Request storage newrequest = requests.push() */\n              swap1\n              pop\n                /* \"Campaign.sol\":2095:2106  description */\n              dup4\n                /* \"Campaign.sol\":2070:2080  newrequest */\n              dup2\n                /* \"Campaign.sol\":2070:2092  newrequest.description */\n              0x00\n              add\n                /* \"Campaign.sol\":2070:2106  newrequest.description = description */\n              swap1\n              dup2\n              tag_84\n              swap2\n              swap1\n              tag_85\n              jump\t// in\n            tag_84:\n              pop\n                /* \"Campaign.sol\":2140:2145  value */\n              dup3\n                /* \"Campaign.sol\":2121:2131  newrequest */\n              dup2\n                /* \"Campaign.sol\":2121:2137  newrequest.value */\n              0x01\n              add\n                /* \"Campaign.sol\":2121:2145  newrequest.value = value */\n              dup2\n              swap1\n              sstore\n              pop\n                /* \"Campaign.sol\":2183:2192  recepient */\n              dup2\n                /* \"Campaign.sol\":2160:2170  newrequest */\n              dup2\n                /* \"Campaign.sol\":2160:2180  newrequest.recepient */\n              0x02\n              add\n              0x00\n                /* \"Campaign.sol\":2160:2192  newrequest.recepient = recepient */\n              0x0100\n              exp\n              dup2\n              sload\n              dup2\n              0xffffffffffffffffffffffffffffffffffffffff\n              mul\n              not\n              and\n              swap1\n              dup4\n              0xffffffffffffffffffffffffffffffffffffffff\n              and\n              mul\n              or\n              swap1\n              sstore\n              pop\n                /* \"Campaign.sol\":2227:2232  false */\n              0x00\n                /* \"Campaign.sol\":2207:2217  newrequest */\n              dup2\n                /* \"Campaign.sol\":2207:2224  newrequest.status */\n              0x02\n              add\n              0x14\n                /* \"Campaign.sol\":2207:2232  newrequest.status = false */\n              0x0100\n              exp\n              dup2\n              sload\n              dup2\n              0xff\n              mul\n              not\n              and\n              swap1\n              dup4\n              iszero\n              iszero\n              mul\n              or\n              swap1\n              sstore\n              pop\n                /* \"Campaign.sol\":2274:2275  0 */\n              0x00\n                /* \"Campaign.sol\":2247:2257  newrequest */\n              dup2\n                /* \"Campaign.sol\":2247:2271  newrequest.approvercount */\n              0x04\n              add\n                /* \"Campaign.sol\":2247:2275  newrequest.approvercount = 0 */\n              dup2\n              swap1\n              sstore\n              pop\n                /* \"Campaign.sol\":1912:2299  {... */\n              pop\n                /* \"Campaign.sol\":1810:2299  function create_request( string memory description, uint value, address recepient) public manager_only{... */\n              pop\n              pop\n              pop\n              jump\t// out\n                /* \"Campaign.sol\":2640:3241  function finalize_request(uint index) public manager_only {... */\n            tag_48:\n                /* \"Campaign.sol\":1155:1162  manager */\n              0x00\n              dup1\n              sload\n              swap1\n              0x0100\n              exp\n              swap1\n              div\n              0xffffffffffffffffffffffffffffffffffffffff\n              and\n                /* \"Campaign.sol\":1141:1162  msg.sender == manager */\n              0xffffffffffffffffffffffffffffffffffffffff\n              and\n                /* \"Campaign.sol\":1141:1151  msg.sender */\n              caller\n                /* \"Campaign.sol\":1141:1162  msg.sender == manager */\n              0xffffffffffffffffffffffffffffffffffffffff\n              and\n              eq\n                /* \"Campaign.sol\":1133:1163  require(msg.sender == manager) */\n              tag_87\n              jumpi\n              0x00\n              dup1\n              revert\n            tag_87:\n                /* \"Campaign.sol\":2722:2730  requests */\n              0x04\n                /* \"Campaign.sol\":2731:2736  index */\n              dup2\n                /* \"Campaign.sol\":2722:2737  requests[index] */\n              dup2\n              sload\n              dup2\n              lt\n              tag_89\n              jumpi\n              tag_90\n              tag_61\n              jump\t// in\n            tag_90:\n            tag_89:\n              swap1\n              0x00\n              mstore\n              keccak256(0x00, 0x20)\n              swap1\n              0x05\n              mul\n              add\n                /* \"Campaign.sol\":2722:2744  requests[index].status */\n              0x02\n              add\n              0x14\n              swap1\n              sload\n              swap1\n              0x0100\n              exp\n              swap1\n              div\n              0xff\n              and\n                /* \"Campaign.sol\":2721:2744  !requests[index].status */\n              iszero\n                /* \"Campaign.sol\":2713:2745  require(!requests[index].status) */\n              tag_92\n              jumpi\n              0x00\n              dup1\n              revert\n            tag_92:\n                /* \"Campaign.sol\":2862:2863  2 */\n              0x02\n                /* \"Campaign.sol\":2844:2861  contributorscount */\n              sload(0x03)\n                /* \"Campaign.sol\":2844:2863  contributorscount/2 */\n              tag_93\n              swap2\n              swap1\n              tag_94\n              jump\t// in\n            tag_93:\n                /* \"Campaign.sol\":2812:2820  requests */\n              0x04\n                /* \"Campaign.sol\":2821:2826  index */\n              dup3\n                /* \"Campaign.sol\":2812:2827  requests[index] */\n              dup2\n              sload\n              dup2\n              lt\n              tag_95\n              jumpi\n              tag_96\n              tag_61\n              jump\t// in\n            tag_96:\n            tag_95:\n              swap1\n              0x00\n              mstore\n              keccak256(0x00, 0x20)\n              swap1\n              0x05\n              mul\n              add\n                /* \"Campaign.sol\":2812:2841  requests[index].approvercount */\n              0x04\n              add\n              sload\n                /* \"Campaign.sol\":2812:2863  requests[index].approvercount > contributorscount/2 */\n              gt\n                /* \"Campaign.sol\":2804:2864  require(requests[index].approvercount > contributorscount/2) */\n              tag_98\n              jumpi\n              0x00\n              dup1\n              revert\n            tag_98:\n                /* \"Campaign.sol\":2904:2908  true */\n              0x01\n                /* \"Campaign.sol\":2879:2887  requests */\n              0x04\n                /* \"Campaign.sol\":2888:2893  index */\n              dup3\n                /* \"Campaign.sol\":2879:2894  requests[index] */\n              dup2\n              sload\n              dup2\n              lt\n              tag_99\n              jumpi\n              tag_100\n              tag_61\n              jump\t// in\n            tag_100:\n            tag_99:\n              swap1\n              0x00\n              mstore\n              keccak256(0x00, 0x20)\n              swap1\n              0x05\n              mul\n              add\n                /* \"Campaign.sol\":2879:2901  requests[index].status */\n              0x02\n              add\n              0x14\n                /* \"Campaign.sol\":2879:2908  requests[index].status = true */\n              0x0100\n              exp\n              dup2\n              sload\n              dup2\n              0xff\n              mul\n              not\n              and\n              swap1\n              dup4\n              iszero\n              iszero\n              mul\n              or\n              swap1\n              sstore\n              pop\n                /* \"Campaign.sol\":2950:2982  address payable recepientpayable */\n              0x00\n                /* \"Campaign.sol\":2993:3001  requests */\n              0x04\n                /* \"Campaign.sol\":3002:3007  index */\n              dup3\n                /* \"Campaign.sol\":2993:3008  requests[index] */\n              dup2\n              sload\n              dup2\n              lt\n              tag_102\n              jumpi\n              tag_103\n              tag_61\n              jump\t// in\n            tag_103:\n            tag_102:\n              swap1\n              0x00\n              mstore\n              keccak256(0x00, 0x20)\n              swap1\n              0x05\n              mul\n              add\n                /* \"Campaign.sol\":2993:3018  requests[index].recepient */\n              0x02\n              add\n              0x00\n              swap1\n              sload\n              swap1\n              0x0100\n              exp\n              swap1\n              div\n              0xffffffffffffffffffffffffffffffffffffffff\n              and\n                /* \"Campaign.sol\":2950:3019  address payable recepientpayable = payable(requests[index].recepient) */\n              swap1\n              pop\n                /* \"Campaign.sol\":3152:3168  recepientpayable */\n              dup1\n                /* \"Campaign.sol\":3152:3177  recepientpayable.transfer */\n              0xffffffffffffffffffffffffffffffffffffffff\n              and\n                /* \"Campaign.sol\":3152:3200  recepientpayable.transfer(requests[index].value) */\n              0x08fc\n                /* \"Campaign.sol\":3178:3186  requests */\n              0x04\n                /* \"Campaign.sol\":3187:3192  index */\n              dup5\n                /* \"Campaign.sol\":3178:3193  requests[index] */\n              dup2\n              sload\n              dup2\n              lt\n              tag_105\n              jumpi\n              tag_106\n              tag_61\n              jump\t// in\n            tag_106:\n            tag_105:\n              swap1\n              0x00\n              mstore\n              keccak256(0x00, 0x20)\n              swap1\n              0x05\n              mul\n              add\n                /* \"Campaign.sol\":3178:3199  requests[index].value */\n              0x01\n              add\n              sload\n                /* \"Campaign.sol\":3152:3200  recepientpayable.transfer(requests[index].value) */\n              swap1\n              dup2\n              iszero\n              mul\n              swap1\n              mload(0x40)\n              0x00\n              mload(0x40)\n              dup1\n              dup4\n              sub\n              dup2\n              dup6\n              dup9\n              dup9\n              call\n              swap4\n              pop\n              pop\n              pop\n              pop\n              iszero\n              dup1\n              iszero\n              tag_109\n              jumpi\n              returndatasize\n              0x00\n              dup1\n              returndatacopy\n              revert(0x00, returndatasize)\n            tag_109:\n              pop\n                /* \"Campaign.sol\":2698:3241  {... */\n              pop\n                /* \"Campaign.sol\":2640:3241  function finalize_request(uint index) public manager_only {... */\n              pop\n              jump\t// out\n                /* \"Campaign.sol\":970:999  uint public contributorscount */\n            tag_51:\n              sload(0x03)\n              dup2\n              jump\t// out\n                /* \"Campaign.sol\":1467:1798  function contribute() public payable {... */\n            tag_54:\n                /* \"Campaign.sol\":1540:1555  mincontribution */\n              sload(0x01)\n                /* \"Campaign.sol\":1528:1537  msg.value */\n              callvalue\n                /* \"Campaign.sol\":1528:1555  msg.value > mincontribution */\n              gt\n                /* \"Campaign.sol\":1519:1557  require( msg.value > mincontribution ) */\n              tag_111\n              jumpi\n              0x00\n              dup1\n              revert\n            tag_111:\n                /* \"Campaign.sol\":1590:1602  contributors */\n              0x02\n                /* \"Campaign.sol\":1590:1614  contributors[msg.sender] */\n              0x00\n                /* \"Campaign.sol\":1603:1613  msg.sender */\n              caller\n                /* \"Campaign.sol\":1590:1614  contributors[msg.sender] */\n              0xffffffffffffffffffffffffffffffffffffffff\n              and\n              0xffffffffffffffffffffffffffffffffffffffff\n              and\n              dup2\n              mstore\n              0x20\n              add\n              swap1\n              dup2\n              mstore\n              0x20\n              add\n              0x00\n              keccak256\n              0x00\n              swap1\n              sload\n              swap1\n              0x0100\n              exp\n              swap1\n              div\n              0xff\n              and\n                /* \"Campaign.sol\":1589:1614  !contributors[msg.sender] */\n              iszero\n                /* \"Campaign.sol\":1581:1615  require(!contributors[msg.sender]) */\n              tag_112\n              jumpi\n              0x00\n              dup1\n              revert\n            tag_112:\n                /* \"Campaign.sol\":1658:1662  true */\n              0x01\n                /* \"Campaign.sol\":1631:1643  contributors */\n              0x02\n                /* \"Campaign.sol\":1631:1655  contributors[msg.sender] */\n              0x00\n                /* \"Campaign.sol\":1644:1654  msg.sender */\n              caller\n                /* \"Campaign.sol\":1631:1655  contributors[msg.sender] */\n              0xffffffffffffffffffffffffffffffffffffffff\n              and\n              0xffffffffffffffffffffffffffffffffffffffff\n              and\n              dup2\n              mstore\n              0x20\n              add\n              swap1\n              dup2\n              mstore\n              0x20\n              add\n              0x00\n              keccak256\n              0x00\n                /* \"Campaign.sol\":1631:1662  contributors[msg.sender] = true */\n              0x0100\n              exp\n              dup2\n              sload\n              dup2\n              0xff\n              mul\n              not\n              and\n              swap1\n              dup4\n              iszero\n              iszero\n              mul\n              or\n              swap1\n              sstore\n              pop\n                /* \"Campaign.sol\":1767:1784  contributorscount */\n              0x03\n              0x00\n                /* \"Campaign.sol\":1767:1786  contributorscount++ */\n              dup2\n              sload\n              dup1\n              swap3\n              swap2\n              swap1\n              tag_113\n              swap1\n              tag_71\n              jump\t// in\n            tag_113:\n              swap2\n              swap1\n              pop\n              sstore\n              pop\n                /* \"Campaign.sol\":1467:1798  function contribute() public payable {... */\n              jump\t// out\n                /* \"#utility.yul\":7:82   */\n            tag_114:\n                /* \"#utility.yul\":40:46   */\n              0x00\n                /* \"#utility.yul\":73:75   */\n              0x40\n                /* \"#utility.yul\":67:76   */\n              mload\n                /* \"#utility.yul\":57:76   */\n              swap1\n              pop\n                /* \"#utility.yul\":7:82   */\n              swap1\n              jump\t// out\n                /* \"#utility.yul\":88:205   */\n            tag_115:\n                /* \"#utility.yul\":197:198   */\n              0x00\n                /* \"#utility.yul\":194:195   */\n              dup1\n                /* \"#utility.yul\":187:199   */\n              revert\n                /* \"#utility.yul\":211:328   */\n            tag_116:\n                /* \"#utility.yul\":320:321   */\n              0x00\n                /* \"#utility.yul\":317:318   */\n              dup1\n                /* \"#utility.yul\":310:322   */\n              revert\n                /* \"#utility.yul\":334:411   */\n            tag_117:\n                /* \"#utility.yul\":371:378   */\n              0x00\n                /* \"#utility.yul\":400:405   */\n              dup2\n                /* \"#utility.yul\":389:405   */\n              swap1\n              pop\n                /* \"#utility.yul\":334:411   */\n              swap2\n              swap1\n              pop\n              jump\t// out\n                /* \"#utility.yul\":417:539   */\n            tag_118:\n                /* \"#utility.yul\":490:514   */\n              tag_166\n                /* \"#utility.yul\":508:513   */\n              dup2\n                /* \"#utility.yul\":490:514   */\n              tag_117\n              jump\t// in\n            tag_166:\n                /* \"#utility.yul\":483:488   */\n              dup2\n                /* \"#utility.yul\":480:515   */\n              eq\n                /* \"#utility.yul\":470:533   */\n              tag_167\n              jumpi\n                /* \"#utility.yul\":529:530   */\n              0x00\n                /* \"#utility.yul\":526:527   */\n              dup1\n                /* \"#utility.yul\":519:531   */\n              revert\n                /* \"#utility.yul\":470:533   */\n            tag_167:\n                /* \"#utility.yul\":417:539   */\n              pop\n              jump\t// out\n                /* \"#utility.yul\":545:684   */\n            tag_119:\n                /* \"#utility.yul\":591:596   */\n              0x00\n                /* \"#utility.yul\":629:635   */\n              dup2\n                /* \"#utility.yul\":616:636   */\n              calldataload\n                /* \"#utility.yul\":607:636   */\n              swap1\n              pop\n                /* \"#utility.yul\":645:678   */\n              tag_169\n                /* \"#utility.yul\":672:677   */\n              dup2\n                /* \"#utility.yul\":645:678   */\n              tag_118\n              jump\t// in\n            tag_169:\n                /* \"#utility.yul\":545:684   */\n              swap3\n              swap2\n              pop\n              pop\n              jump\t// out\n                /* \"#utility.yul\":690:1019   */\n            tag_15:\n                /* \"#utility.yul\":749:755   */\n              0x00\n                /* \"#utility.yul\":798:800   */\n              0x20\n                /* \"#utility.yul\":786:795   */\n              dup3\n                /* \"#utility.yul\":777:784   */\n              dup5\n                /* \"#utility.yul\":773:796   */\n              sub\n                /* \"#utility.yul\":769:801   */\n              slt\n                /* \"#utility.yul\":766:885   */\n              iszero\n              tag_171\n              jumpi\n                /* \"#utility.yul\":804:883   */\n              tag_172\n              tag_115\n              jump\t// in\n            tag_172:\n                /* \"#utility.yul\":766:885   */\n            tag_171:\n                /* \"#utility.yul\":924:925   */\n              0x00\n                /* \"#utility.yul\":949:1002   */\n              tag_173\n                /* \"#utility.yul\":994:1001   */\n              dup5\n                /* \"#utility.yul\":985:991   */\n              dup3\n                /* \"#utility.yul\":974:983   */\n              dup6\n                /* \"#utility.yul\":970:992   */\n              add\n                /* \"#utility.yul\":949:1002   */\n              tag_119\n              jump\t// in\n            tag_173:\n                /* \"#utility.yul\":939:1002   */\n              swap2\n              pop\n                /* \"#utility.yul\":895:1012   */\n              pop\n                /* \"#utility.yul\":690:1019   */\n              swap3\n              swap2\n              pop\n              pop\n              jump\t// out\n                /* \"#utility.yul\":1025:1151   */\n            tag_120:\n                /* \"#utility.yul\":1062:1069   */\n              0x00\n                /* \"#utility.yul\":1102:1144   */\n              0xffffffffffffffffffffffffffffffffffffffff\n                /* \"#utility.yul\":1095:1100   */\n              dup3\n                /* \"#utility.yul\":1091:1145   */\n              and\n                /* \"#utility.yul\":1080:1145   */\n              swap1\n              pop\n                /* \"#utility.yul\":1025:1151   */\n              swap2\n              swap1\n              pop\n              jump\t// out\n                /* \"#utility.yul\":1157:1253   */\n            tag_121:\n                /* \"#utility.yul\":1194:1201   */\n              0x00\n                /* \"#utility.yul\":1223:1247   */\n              tag_176\n                /* \"#utility.yul\":1241:1246   */\n              dup3\n                /* \"#utility.yul\":1223:1247   */\n              tag_120\n              jump\t// in\n            tag_176:\n                /* \"#utility.yul\":1212:1247   */\n              swap1\n              pop\n                /* \"#utility.yul\":1157:1253   */\n              swap2\n              swap1\n              pop\n              jump\t// out\n                /* \"#utility.yul\":1259:1381   */\n            tag_122:\n                /* \"#utility.yul\":1332:1356   */\n              tag_178\n                /* \"#utility.yul\":1350:1355   */\n              dup2\n                /* \"#utility.yul\":1332:1356   */\n              tag_121\n              jump\t// in\n            tag_178:\n                /* \"#utility.yul\":1325:1330   */\n              dup2\n                /* \"#utility.yul\":1322:1357   */\n              eq\n                /* \"#utility.yul\":1312:1375   */\n              tag_179\n              jumpi\n                /* \"#utility.yul\":1371:1372   */\n              0x00\n                /* \"#utility.yul\":1368:1369   */\n              dup1\n                /* \"#utility.yul\":1361:1373   */\n              revert\n                /* \"#utility.yul\":1312:1375   */\n            tag_179:\n                /* \"#utility.yul\":1259:1381   */\n              pop\n              jump\t// out\n                /* \"#utility.yul\":1387:1526   */\n            tag_123:\n                /* \"#utility.yul\":1433:1438   */\n              0x00\n                /* \"#utility.yul\":1471:1477   */\n              dup2\n                /* \"#utility.yul\":1458:1478   */\n              calldataload\n                /* \"#utility.yul\":1449:1478   */\n              swap1\n              pop\n                /* \"#utility.yul\":1487:1520   */\n              tag_181\n                /* \"#utility.yul\":1514:1519   */\n              dup2\n                /* \"#utility.yul\":1487:1520   */\n              tag_122\n              jump\t// in\n            tag_181:\n                /* \"#utility.yul\":1387:1526   */\n              swap3\n              swap2\n              pop\n              pop\n              jump\t// out\n                /* \"#utility.yul\":1532:1861   */\n            tag_20:\n                /* \"#utility.yul\":1591:1597   */\n              0x00\n                /* \"#utility.yul\":1640:1642   */\n              0x20\n                /* \"#utility.yul\":1628:1637   */\n              dup3\n                /* \"#utility.yul\":1619:1626   */\n              dup5\n                /* \"#utility.yul\":1615:1638   */\n              sub\n                /* \"#utility.yul\":1611:1643   */\n              slt\n                /* \"#utility.yul\":1608:1727   */\n              iszero\n              tag_183\n              jumpi\n                /* \"#utility.yul\":1646:1725   */\n              tag_184\n              tag_115\n              jump\t// in\n            tag_184:\n                /* \"#utility.yul\":1608:1727   */\n            tag_183:\n                /* \"#utility.yul\":1766:1767   */\n              0x00\n                /* \"#utility.yul\":1791:1844   */\n              tag_185\n                /* \"#utility.yul\":1836:1843   */\n              dup5\n                /* \"#utility.yul\":1827:1833   */\n              dup3\n                /* \"#utility.yul\":1816:1825   */\n              dup6\n                /* \"#utility.yul\":1812:1834   */\n              add\n                /* \"#utility.yul\":1791:1844   */\n              tag_123\n              jump\t// in\n            tag_185:\n                /* \"#utility.yul\":1781:1844   */\n              swap2\n              pop\n                /* \"#utility.yul\":1737:1854   */\n              pop\n                /* \"#utility.yul\":1532:1861   */\n              swap3\n              swap2\n              pop\n              pop\n              jump\t// out\n                /* \"#utility.yul\":1867:1957   */\n            tag_124:\n                /* \"#utility.yul\":1901:1908   */\n              0x00\n                /* \"#utility.yul\":1944:1949   */\n              dup2\n                /* \"#utility.yul\":1937:1950   */\n              iszero\n                /* \"#utility.yul\":1930:1951   */\n              iszero\n                /* \"#utility.yul\":1919:1951   */\n              swap1\n              pop\n                /* \"#utility.yul\":1867:1957   */\n              swap2\n              swap1\n              pop\n              jump\t// out\n                /* \"#utility.yul\":1963:2072   */\n            tag_125:\n                /* \"#utility.yul\":2044:2065   */\n              tag_188\n                /* \"#utility.yul\":2059:2064   */\n              dup2\n                /* \"#utility.yul\":2044:2065   */\n              tag_124\n              jump\t// in\n            tag_188:\n                /* \"#utility.yul\":2039:2042   */\n              dup3\n                /* \"#utility.yul\":2032:2066   */\n              mstore\n                /* \"#utility.yul\":1963:2072   */\n              pop\n              pop\n              jump\t// out\n                /* \"#utility.yul\":2078:2288   */\n            tag_23:\n                /* \"#utility.yul\":2165:2169   */\n              0x00\n                /* \"#utility.yul\":2203:2205   */\n              0x20\n                /* \"#utility.yul\":2192:2201   */\n              dup3\n                /* \"#utility.yul\":2188:2206   */\n              add\n                /* \"#utility.yul\":2180:2206   */\n              swap1\n              pop\n                /* \"#utility.yul\":2216:2281   */\n              tag_190\n                /* \"#utility.yul\":2278:2279   */\n              0x00\n                /* \"#utility.yul\":2267:2276   */\n              dup4\n                /* \"#utility.yul\":2263:2280   */\n              add\n                /* \"#utility.yul\":2254:2260   */\n              dup5\n                /* \"#utility.yul\":2216:2281   */\n              tag_125\n              jump\t// in\n            tag_190:\n                /* \"#utility.yul\":2078:2288   */\n              swap3\n              swap2\n              pop\n              pop\n              jump\t// out\n                /* \"#utility.yul\":2294:2412   */\n            tag_126:\n                /* \"#utility.yul\":2381:2405   */\n              tag_192\n                /* \"#utility.yul\":2399:2404   */\n              dup2\n                /* \"#utility.yul\":2381:2405   */\n              tag_121\n              jump\t// in\n            tag_192:\n                /* \"#utility.yul\":2376:2379   */\n              dup3\n                /* \"#utility.yul\":2369:2406   */\n              mstore\n                /* \"#utility.yul\":2294:2412   */\n              pop\n              pop\n              jump\t// out\n                /* \"#utility.yul\":2418:2640   */\n            tag_28:\n                /* \"#utility.yul\":2511:2515   */\n              0x00\n                /* \"#utility.yul\":2549:2551   */\n              0x20\n                /* \"#utility.yul\":2538:2547   */\n              dup3\n                /* \"#utility.yul\":2534:2552   */\n              add\n                /* \"#utility.yul\":2526:2552   */\n              swap1\n              pop\n                /* \"#utility.yul\":2562:2633   */\n              tag_194\n                /* \"#utility.yul\":2630:2631   */\n              0x00\n                /* \"#utility.yul\":2619:2628   */\n              dup4\n                /* \"#utility.yul\":2615:2632   */\n              add\n                /* \"#utility.yul\":2606:2612   */\n              dup5\n                /* \"#utility.yul\":2562:2633   */\n              tag_126\n              jump\t// in\n            tag_194:\n                /* \"#utility.yul\":2418:2640   */\n              swap3\n              swap2\n              pop\n              pop\n              jump\t// out\n                /* \"#utility.yul\":2646:2764   */\n            tag_127:\n                /* \"#utility.yul\":2733:2757   */\n              tag_196\n                /* \"#utility.yul\":2751:2756   */\n              dup2\n                /* \"#utility.yul\":2733:2757   */\n              tag_117\n              jump\t// in\n            tag_196:\n                /* \"#utility.yul\":2728:2731   */\n              dup3\n                /* \"#utility.yul\":2721:2758   */\n              mstore\n                /* \"#utility.yul\":2646:2764   */\n              pop\n              pop\n              jump\t// out\n                /* \"#utility.yul\":2770:2992   */\n            tag_33:\n                /* \"#utility.yul\":2863:2867   */\n              0x00\n                /* \"#utility.yul\":2901:2903   */\n              0x20\n                /* \"#utility.yul\":2890:2899   */\n              dup3\n                /* \"#utility.yul\":2886:2904   */\n              add\n                /* \"#utility.yul\":2878:2904   */\n              swap1\n              pop\n                /* \"#utility.yul\":2914:2985   */\n              tag_198\n                /* \"#utility.yul\":2982:2983   */\n              0x00\n                /* \"#utility.yul\":2971:2980   */\n              dup4\n                /* \"#utility.yul\":2967:2984   */\n              add\n                /* \"#utility.yul\":2958:2964   */\n              dup5\n                /* \"#utility.yul\":2914:2985   */\n              tag_127\n              jump\t// in\n            tag_198:\n                /* \"#utility.yul\":2770:2992   */\n              swap3\n              swap2\n              pop\n              pop\n              jump\t// out\n                /* \"#utility.yul\":2998:3097   */\n            tag_128:\n                /* \"#utility.yul\":3050:3056   */\n              0x00\n                /* \"#utility.yul\":3084:3089   */\n              dup2\n                /* \"#utility.yul\":3078:3090   */\n              mload\n                /* \"#utility.yul\":3068:3090   */\n              swap1\n              pop\n                /* \"#utility.yul\":2998:3097   */\n              swap2\n              swap1\n              pop\n              jump\t// out\n                /* \"#utility.yul\":3103:3272   */\n            tag_129:\n                /* \"#utility.yul\":3187:3198   */\n              0x00\n                /* \"#utility.yul\":3221:3227   */\n              dup3\n                /* \"#utility.yul\":3216:3219   */\n              dup3\n                /* \"#utility.yul\":3209:3228   */\n              mstore\n                /* \"#utility.yul\":3261:3265   */\n              0x20\n                /* \"#utility.yul\":3256:3259   */\n              dup3\n                /* \"#utility.yul\":3252:3266   */\n              add\n                /* \"#utility.yul\":3237:3266   */\n              swap1\n              pop\n                /* \"#utility.yul\":3103:3272   */\n              swap3\n              swap2\n              pop\n              pop\n              jump\t// out\n                /* \"#utility.yul\":3278:3585   */\n            tag_130:\n                /* \"#utility.yul\":3346:3347   */\n              0x00\n                /* \"#utility.yul\":3356:3469   */\n            tag_202:\n                /* \"#utility.yul\":3370:3376   */\n              dup4\n                /* \"#utility.yul\":3367:3368   */\n              dup2\n                /* \"#utility.yul\":3364:3377   */\n              lt\n                /* \"#utility.yul\":3356:3469   */\n              iszero\n              tag_204\n              jumpi\n                /* \"#utility.yul\":3455:3456   */\n              dup1\n                /* \"#utility.yul\":3450:3453   */\n              dup3\n                /* \"#utility.yul\":3446:3457   */\n              add\n                /* \"#utility.yul\":3440:3458   */\n              mload\n                /* \"#utility.yul\":3436:3437   */\n              dup2\n                /* \"#utility.yul\":3431:3434   */\n              dup5\n                /* \"#utility.yul\":3427:3438   */\n              add\n                /* \"#utility.yul\":3420:3459   */\n              mstore\n                /* \"#utility.yul\":3392:3394   */\n              0x20\n                /* \"#utility.yul\":3389:3390   */\n              dup2\n                /* \"#utility.yul\":3385:3395   */\n              add\n                /* \"#utility.yul\":3380:3395   */\n              swap1\n              pop\n                /* \"#utility.yul\":3356:3469   */\n              jump(tag_202)\n            tag_204:\n                /* \"#utility.yul\":3487:3493   */\n              dup4\n                /* \"#utility.yul\":3484:3485   */\n              dup2\n                /* \"#utility.yul\":3481:3494   */\n              gt\n                /* \"#utility.yul\":3478:3579   */\n              iszero\n              tag_205\n              jumpi\n                /* \"#utility.yul\":3567:3568   */\n              0x00\n                /* \"#utility.yul\":3558:3564   */\n              dup5\n                /* \"#utility.yul\":3553:3556   */\n              dup5\n                /* \"#utility.yul\":3549:3565   */\n              add\n                /* \"#utility.yul\":3542:3569   */\n              mstore\n                /* \"#utility.yul\":3478:3579   */\n            tag_205:\n                /* \"#utility.yul\":3327:3585   */\n              pop\n                /* \"#utility.yul\":3278:3585   */\n              pop\n              pop\n              pop\n              jump\t// out\n                /* \"#utility.yul\":3591:3693   */\n            tag_131:\n                /* \"#utility.yul\":3632:3638   */\n              0x00\n                /* \"#utility.yul\":3683:3685   */\n              0x1f\n                /* \"#utility.yul\":3679:3686   */\n              not\n                /* \"#utility.yul\":3674:3676   */\n              0x1f\n                /* \"#utility.yul\":3667:3672   */\n              dup4\n                /* \"#utility.yul\":3663:3677   */\n              add\n                /* \"#utility.yul\":3659:3687   */\n              and\n                /* \"#utility.yul\":3649:3687   */\n              swap1\n              pop\n                /* \"#utility.yul\":3591:3693   */\n              swap2\n              swap1\n              pop\n              jump\t// out\n                /* \"#utility.yul\":3699:4063   */\n            tag_132:\n                /* \"#utility.yul\":3787:3790   */\n              0x00\n                /* \"#utility.yul\":3815:3854   */\n              tag_208\n                /* \"#utility.yul\":3848:3853   */\n              dup3\n                /* \"#utility.yul\":3815:3854   */\n              tag_128\n              jump\t// in\n            tag_208:\n                /* \"#utility.yul\":3870:3941   */\n              tag_209\n                /* \"#utility.yul\":3934:3940   */\n              dup2\n                /* \"#utility.yul\":3929:3932   */\n              dup6\n                /* \"#utility.yul\":3870:3941   */\n              tag_129\n              jump\t// in\n            tag_209:\n                /* \"#utility.yul\":3863:3941   */\n              swap4\n              pop\n                /* \"#utility.yul\":3950:4002   */\n              tag_210\n                /* \"#utility.yul\":3995:4001   */\n              dup2\n                /* \"#utility.yul\":3990:3993   */\n              dup6\n                /* \"#utility.yul\":3983:3987   */\n              0x20\n                /* \"#utility.yul\":3976:3981   */\n              dup7\n                /* \"#utility.yul\":3972:3988   */\n              add\n                /* \"#utility.yul\":3950:4002   */\n              tag_130\n              jump\t// in\n            tag_210:\n                /* \"#utility.yul\":4027:4056   */\n              tag_211\n                /* \"#utility.yul\":4049:4055   */\n              dup2\n                /* \"#utility.yul\":4027:4056   */\n              tag_131\n              jump\t// in\n            tag_211:\n                /* \"#utility.yul\":4022:4025   */\n              dup5\n                /* \"#utility.yul\":4018:4057   */\n              add\n                /* \"#utility.yul\":4011:4057   */\n              swap2\n              pop\n                /* \"#utility.yul\":3791:4063   */\n              pop\n                /* \"#utility.yul\":3699:4063   */\n              swap3\n              swap2\n              pop\n              pop\n              jump\t// out\n                /* \"#utility.yul\":4069:4812   */\n            tag_39:\n                /* \"#utility.yul\":4288:4292   */\n              0x00\n                /* \"#utility.yul\":4326:4329   */\n              0xa0\n                /* \"#utility.yul\":4315:4324   */\n              dup3\n                /* \"#utility.yul\":4311:4330   */\n              add\n                /* \"#utility.yul\":4303:4330   */\n              swap1\n              pop\n                /* \"#utility.yul\":4376:4385   */\n              dup2\n                /* \"#utility.yul\":4370:4374   */\n              dup2\n                /* \"#utility.yul\":4366:4386   */\n              sub\n                /* \"#utility.yul\":4362:4363   */\n              0x00\n                /* \"#utility.yul\":4351:4360   */\n              dup4\n                /* \"#utility.yul\":4347:4364   */\n              add\n                /* \"#utility.yul\":4340:4387   */\n              mstore\n                /* \"#utility.yul\":4404:4482   */\n              tag_213\n                /* \"#utility.yul\":4477:4481   */\n              dup2\n                /* \"#utility.yul\":4468:4474   */\n              dup9\n                /* \"#utility.yul\":4404:4482   */\n              tag_132\n              jump\t// in\n            tag_213:\n                /* \"#utility.yul\":4396:4482   */\n              swap1\n              pop\n                /* \"#utility.yul\":4492:4564   */\n              tag_214\n                /* \"#utility.yul\":4560:4562   */\n              0x20\n                /* \"#utility.yul\":4549:4558   */\n              dup4\n                /* \"#utility.yul\":4545:4563   */\n              add\n                /* \"#utility.yul\":4536:4542   */\n              dup8\n                /* \"#utility.yul\":4492:4564   */\n              tag_127\n              jump\t// in\n            tag_214:\n                /* \"#utility.yul\":4574:4646   */\n              tag_215\n                /* \"#utility.yul\":4642:4644   */\n              0x40\n                /* \"#utility.yul\":4631:4640   */\n              dup4\n                /* \"#utility.yul\":4627:4645   */\n              add\n                /* \"#utility.yul\":4618:4624   */\n              dup7\n                /* \"#utility.yul\":4574:4646   */\n              tag_126\n              jump\t// in\n            tag_215:\n                /* \"#utility.yul\":4656:4722   */\n              tag_216\n                /* \"#utility.yul\":4718:4720   */\n              0x60\n                /* \"#utility.yul\":4707:4716   */\n              dup4\n                /* \"#utility.yul\":4703:4721   */\n              add\n                /* \"#utility.yul\":4694:4700   */\n              dup6\n                /* \"#utility.yul\":4656:4722   */\n              tag_125\n              jump\t// in\n            tag_216:\n                /* \"#utility.yul\":4732:4805   */\n              tag_217\n                /* \"#utility.yul\":4800:4803   */\n              0x80\n                /* \"#utility.yul\":4789:4798   */\n              dup4\n                /* \"#utility.yul\":4785:4804   */\n              add\n                /* \"#utility.yul\":4776:4782   */\n              dup5\n                /* \"#utility.yul\":4732:4805   */\n              tag_127\n              jump\t// in\n            tag_217:\n                /* \"#utility.yul\":4069:4812   */\n              swap7\n              swap6\n              pop\n              pop\n              pop\n              pop\n              pop\n              pop\n              jump\t// out\n                /* \"#utility.yul\":4818:4935   */\n            tag_133:\n                /* \"#utility.yul\":4927:4928   */\n              0x00\n                /* \"#utility.yul\":4924:4925   */\n              dup1\n                /* \"#utility.yul\":4917:4929   */\n              revert\n                /* \"#utility.yul\":4941:5058   */\n            tag_134:\n                /* \"#utility.yul\":5050:5051   */\n              0x00\n                /* \"#utility.yul\":5047:5048   */\n              dup1\n                /* \"#utility.yul\":5040:5052   */\n              revert\n                /* \"#utility.yul\":5064:5244   */\n            tag_135:\n                /* \"#utility.yul\":5112:5189   */\n              0x4e487b7100000000000000000000000000000000000000000000000000000000\n                /* \"#utility.yul\":5109:5110   */\n              0x00\n                /* \"#utility.yul\":5102:5190   */\n              mstore\n                /* \"#utility.yul\":5209:5213   */\n              0x41\n                /* \"#utility.yul\":5206:5207   */\n              0x04\n                /* \"#utility.yul\":5199:5214   */\n              mstore\n                /* \"#utility.yul\":5233:5237   */\n              0x24\n                /* \"#utility.yul\":5230:5231   */\n              0x00\n                /* \"#utility.yul\":5223:5238   */\n              revert\n                /* \"#utility.yul\":5250:5531   */\n            tag_136:\n                /* \"#utility.yul\":5333:5360   */\n              tag_222\n                /* \"#utility.yul\":5355:5359   */\n              dup3\n                /* \"#utility.yul\":5333:5360   */\n              tag_131\n              jump\t// in\n            tag_222:\n                /* \"#utility.yul\":5325:5331   */\n              dup2\n                /* \"#utility.yul\":5321:5361   */\n              add\n                /* \"#utility.yul\":5463:5469   */\n              dup2\n                /* \"#utility.yul\":5451:5461   */\n              dup2\n                /* \"#utility.yul\":5448:5470   */\n              lt\n                /* \"#utility.yul\":5427:5445   */\n              0xffffffffffffffff\n                /* \"#utility.yul\":5415:5425   */\n              dup3\n                /* \"#utility.yul\":5412:5446   */\n              gt\n                /* \"#utility.yul\":5409:5471   */\n              or\n                /* \"#utility.yul\":5406:5494   */\n              iszero\n              tag_223\n              jumpi\n                /* \"#utility.yul\":5474:5492   */\n              tag_224\n              tag_135\n              jump\t// in\n            tag_224:\n                /* \"#utility.yul\":5406:5494   */\n            tag_223:\n                /* \"#utility.yul\":5514:5524   */\n              dup1\n                /* \"#utility.yul\":5510:5512   */\n              0x40\n                /* \"#utility.yul\":5503:5525   */\n              mstore\n                /* \"#utility.yul\":5293:5531   */\n              pop\n                /* \"#utility.yul\":5250:5531   */\n              pop\n              pop\n              jump\t// out\n                /* \"#utility.yul\":5537:5666   */\n            tag_137:\n                /* \"#utility.yul\":5571:5577   */\n              0x00\n                /* \"#utility.yul\":5598:5618   */\n              tag_226\n              tag_114\n              jump\t// in\n            tag_226:\n                /* \"#utility.yul\":5588:5618   */\n              swap1\n              pop\n                /* \"#utility.yul\":5627:5660   */\n              tag_227\n                /* \"#utility.yul\":5655:5659   */\n              dup3\n                /* \"#utility.yul\":5647:5653   */\n              dup3\n                /* \"#utility.yul\":5627:5660   */\n              tag_136\n              jump\t// in\n            tag_227:\n                /* \"#utility.yul\":5537:5666   */\n              swap2\n              swap1\n              pop\n              jump\t// out\n                /* \"#utility.yul\":5672:5980   */\n            tag_138:\n                /* \"#utility.yul\":5734:5738   */\n              0x00\n                /* \"#utility.yul\":5824:5842   */\n              0xffffffffffffffff\n                /* \"#utility.yul\":5816:5822   */\n              dup3\n                /* \"#utility.yul\":5813:5843   */\n              gt\n                /* \"#utility.yul\":5810:5866   */\n              iszero\n              tag_229\n              jumpi\n                /* \"#utility.yul\":5846:5864   */\n              tag_230\n              tag_135\n              jump\t// in\n            tag_230:\n                /* \"#utility.yul\":5810:5866   */\n            tag_229:\n                /* \"#utility.yul\":5884:5913   */\n              tag_231\n                /* \"#utility.yul\":5906:5912   */\n              dup3\n                /* \"#utility.yul\":5884:5913   */\n              tag_131\n              jump\t// in\n            tag_231:\n                /* \"#utility.yul\":5876:5913   */\n              swap1\n              pop\n                /* \"#utility.yul\":5968:5972   */\n              0x20\n                /* \"#utility.yul\":5962:5966   */\n              dup2\n                /* \"#utility.yul\":5958:5973   */\n              add\n                /* \"#utility.yul\":5950:5973   */\n              swap1\n              pop\n                /* \"#utility.yul\":5672:5980   */\n              swap2\n              swap1\n              pop\n              jump\t// out\n                /* \"#utility.yul\":5986:6140   */\n            tag_139:\n                /* \"#utility.yul\":6070:6076   */\n              dup3\n                /* \"#utility.yul\":6065:6068   */\n              dup2\n                /* \"#utility.yul\":6060:6063   */\n              dup4\n                /* \"#utility.yul\":6047:6077   */\n              calldatacopy\n                /* \"#utility.yul\":6132:6133   */\n              0x00\n                /* \"#utility.yul\":6123:6129   */\n              dup4\n                /* \"#utility.yul\":6118:6121   */\n              dup4\n                /* \"#utility.yul\":6114:6130   */\n              add\n                /* \"#utility.yul\":6107:6134   */\n              mstore\n                /* \"#utility.yul\":5986:6140   */\n              pop\n              pop\n              pop\n              jump\t// out\n                /* \"#utility.yul\":6146:6558   */\n            tag_140:\n                /* \"#utility.yul\":6224:6229   */\n              0x00\n                /* \"#utility.yul\":6249:6315   */\n              tag_234\n                /* \"#utility.yul\":6265:6314   */\n              tag_235\n                /* \"#utility.yul\":6307:6313   */\n              dup5\n                /* \"#utility.yul\":6265:6314   */\n              tag_138\n              jump\t// in\n            tag_235:\n                /* \"#utility.yul\":6249:6315   */\n              tag_137\n              jump\t// in\n            tag_234:\n                /* \"#utility.yul\":6240:6315   */\n              swap1\n              pop\n                /* \"#utility.yul\":6338:6344   */\n              dup3\n                /* \"#utility.yul\":6331:6336   */\n              dup2\n                /* \"#utility.yul\":6324:6345   */\n              mstore\n                /* \"#utility.yul\":6376:6380   */\n              0x20\n                /* \"#utility.yul\":6369:6374   */\n              dup2\n                /* \"#utility.yul\":6365:6381   */\n              add\n                /* \"#utility.yul\":6414:6417   */\n              dup5\n                /* \"#utility.yul\":6405:6411   */\n              dup5\n                /* \"#utility.yul\":6400:6403   */\n              dup5\n                /* \"#utility.yul\":6396:6412   */\n              add\n                /* \"#utility.yul\":6393:6418   */\n              gt\n                /* \"#utility.yul\":6390:6502   */\n              iszero\n              tag_236\n              jumpi\n                /* \"#utility.yul\":6421:6500   */\n              tag_237\n              tag_134\n              jump\t// in\n            tag_237:\n                /* \"#utility.yul\":6390:6502   */\n            tag_236:\n                /* \"#utility.yul\":6511:6552   */\n              tag_238\n                /* \"#utility.yul\":6545:6551   */\n              dup5\n                /* \"#utility.yul\":6540:6543   */\n              dup3\n                /* \"#utility.yul\":6535:6538   */\n              dup6\n                /* \"#utility.yul\":6511:6552   */\n              tag_139\n              jump\t// in\n            tag_238:\n                /* \"#utility.yul\":6230:6558   */\n              pop\n                /* \"#utility.yul\":6146:6558   */\n              swap4\n              swap3\n              pop\n              pop\n              pop\n              jump\t// out\n                /* \"#utility.yul\":6578:6918   */\n            tag_141:\n                /* \"#utility.yul\":6634:6639   */\n              0x00\n                /* \"#utility.yul\":6683:6686   */\n              dup3\n                /* \"#utility.yul\":6676:6680   */\n              0x1f\n                /* \"#utility.yul\":6668:6674   */\n              dup4\n                /* \"#utility.yul\":6664:6681   */\n              add\n                /* \"#utility.yul\":6660:6687   */\n              slt\n                /* \"#utility.yul\":6650:6772   */\n              tag_240\n              jumpi\n                /* \"#utility.yul\":6691:6770   */\n              tag_241\n              tag_133\n              jump\t// in\n            tag_241:\n                /* \"#utility.yul\":6650:6772   */\n            tag_240:\n                /* \"#utility.yul\":6808:6814   */\n              dup2\n                /* \"#utility.yul\":6795:6815   */\n              calldataload\n                /* \"#utility.yul\":6833:6912   */\n              tag_242\n                /* \"#utility.yul\":6908:6911   */\n              dup5\n                /* \"#utility.yul\":6900:6906   */\n              dup3\n                /* \"#utility.yul\":6893:6897   */\n              0x20\n                /* \"#utility.yul\":6885:6891   */\n              dup7\n                /* \"#utility.yul\":6881:6898   */\n              add\n                /* \"#utility.yul\":6833:6912   */\n              tag_140\n              jump\t// in\n            tag_242:\n                /* \"#utility.yul\":6824:6912   */\n              swap2\n              pop\n                /* \"#utility.yul\":6640:6918   */\n              pop\n                /* \"#utility.yul\":6578:6918   */\n              swap3\n              swap2\n              pop\n              pop\n              jump\t// out\n                /* \"#utility.yul\":6924:7723   */\n            tag_43:\n                /* \"#utility.yul\":7011:7017   */\n              0x00\n                /* \"#utility.yul\":7019:7025   */\n              dup1\n                /* \"#utility.yul\":7027:7033   */\n              0x00\n                /* \"#utility.yul\":7076:7078   */\n              0x60\n                /* \"#utility.yul\":7064:7073   */\n              dup5\n                /* \"#utility.yul\":7055:7062   */\n              dup7\n                /* \"#utility.yul\":7051:7074   */\n              sub\n                /* \"#utility.yul\":7047:7079   */\n              slt\n                /* \"#utility.yul\":7044:7163   */\n              iszero\n              tag_244\n              jumpi\n                /* \"#utility.yul\":7082:7161   */\n              tag_245\n              tag_115\n              jump\t// in\n            tag_245:\n                /* \"#utility.yul\":7044:7163   */\n            tag_244:\n                /* \"#utility.yul\":7230:7231   */\n              0x00\n                /* \"#utility.yul\":7219:7228   */\n              dup5\n                /* \"#utility.yul\":7215:7232   */\n              add\n                /* \"#utility.yul\":7202:7233   */\n              calldataload\n                /* \"#utility.yul\":7260:7278   */\n              0xffffffffffffffff\n                /* \"#utility.yul\":7252:7258   */\n              dup2\n                /* \"#utility.yul\":7249:7279   */\n              gt\n                /* \"#utility.yul\":7246:7363   */\n              iszero\n              tag_246\n              jumpi\n                /* \"#utility.yul\":7282:7361   */\n              tag_247\n              tag_116\n              jump\t// in\n            tag_247:\n                /* \"#utility.yul\":7246:7363   */\n            tag_246:\n                /* \"#utility.yul\":7387:7450   */\n              tag_248\n                /* \"#utility.yul\":7442:7449   */\n              dup7\n                /* \"#utility.yul\":7433:7439   */\n              dup3\n                /* \"#utility.yul\":7422:7431   */\n              dup8\n                /* \"#utility.yul\":7418:7440   */\n              add\n                /* \"#utility.yul\":7387:7450   */\n              tag_141\n              jump\t// in\n            tag_248:\n                /* \"#utility.yul\":7377:7450   */\n              swap4\n              pop\n                /* \"#utility.yul\":7173:7460   */\n              pop\n                /* \"#utility.yul\":7499:7501   */\n              0x20\n                /* \"#utility.yul\":7525:7578   */\n              tag_249\n                /* \"#utility.yul\":7570:7577   */\n              dup7\n                /* \"#utility.yul\":7561:7567   */\n              dup3\n                /* \"#utility.yul\":7550:7559   */\n              dup8\n                /* \"#utility.yul\":7546:7568   */\n              add\n                /* \"#utility.yul\":7525:7578   */\n              tag_119\n              jump\t// in\n            tag_249:\n                /* \"#utility.yul\":7515:7578   */\n              swap3\n              pop\n                /* \"#utility.yul\":7470:7588   */\n              pop\n                /* \"#utility.yul\":7627:7629   */\n              0x40\n                /* \"#utility.yul\":7653:7706   */\n              tag_250\n                /* \"#utility.yul\":7698:7705   */\n              dup7\n                /* \"#utility.yul\":7689:7695   */\n              dup3\n                /* \"#utility.yul\":7678:7687   */\n              dup8\n                /* \"#utility.yul\":7674:7696   */\n              add\n                /* \"#utility.yul\":7653:7706   */\n              tag_123\n              jump\t// in\n            tag_250:\n                /* \"#utility.yul\":7643:7706   */\n              swap2\n              pop\n                /* \"#utility.yul\":7598:7716   */\n              pop\n                /* \"#utility.yul\":6924:7723   */\n              swap3\n              pop\n              swap3\n              pop\n              swap3\n              jump\t// out\n                /* \"#utility.yul\":7729:7909   */\n            tag_58:\n                /* \"#utility.yul\":7777:7854   */\n              0x4e487b7100000000000000000000000000000000000000000000000000000000\n                /* \"#utility.yul\":7774:7775   */\n              0x00\n                /* \"#utility.yul\":7767:7855   */\n              mstore\n                /* \"#utility.yul\":7874:7878   */\n              0x01\n                /* \"#utility.yul\":7871:7872   */\n              0x04\n                /* \"#utility.yul\":7864:7879   */\n              mstore\n                /* \"#utility.yul\":7898:7902   */\n              0x24\n                /* \"#utility.yul\":7895:7896   */\n              0x00\n                /* \"#utility.yul\":7888:7903   */\n              revert\n                /* \"#utility.yul\":7915:8095   */\n            tag_61:\n                /* \"#utility.yul\":7963:8040   */\n              0x4e487b7100000000000000000000000000000000000000000000000000000000\n                /* \"#utility.yul\":7960:7961   */\n              0x00\n                /* \"#utility.yul\":7953:8041   */\n              mstore\n                /* \"#utility.yul\":8060:8064   */\n              0x32\n                /* \"#utility.yul\":8057:8058   */\n              0x04\n                /* \"#utility.yul\":8050:8065   */\n              mstore\n                /* \"#utility.yul\":8084:8088   */\n              0x24\n                /* \"#utility.yul\":8081:8082   */\n              0x00\n                /* \"#utility.yul\":8074:8089   */\n              revert\n                /* \"#utility.yul\":8101:8281   */\n            tag_142:\n                /* \"#utility.yul\":8149:8226   */\n              0x4e487b7100000000000000000000000000000000000000000000000000000000\n                /* \"#utility.yul\":8146:8147   */\n              0x00\n                /* \"#utility.yul\":8139:8227   */\n              mstore\n                /* \"#utility.yul\":8246:8250   */\n              0x11\n                /* \"#utility.yul\":8243:8244   */\n              0x04\n                /* \"#utility.yul\":8236:8251   */\n              mstore\n                /* \"#utility.yul\":8270:8274   */\n              0x24\n                /* \"#utility.yul\":8267:8268   */\n              0x00\n                /* \"#utility.yul\":8260:8275   */\n              revert\n                /* \"#utility.yul\":8287:8520   */\n            tag_71:\n                /* \"#utility.yul\":8326:8329   */\n              0x00\n                /* \"#utility.yul\":8349:8373   */\n              tag_255\n                /* \"#utility.yul\":8367:8372   */\n              dup3\n                /* \"#utility.yul\":8349:8373   */\n              tag_117\n              jump\t// in\n            tag_255:\n                /* \"#utility.yul\":8340:8373   */\n              swap2\n              pop\n                /* \"#utility.yul\":8395:8461   */\n              0xffffffffffffffffffffffffffffffffffffffffffffffffffffffffffffffff\n                /* \"#utility.yul\":8388:8393   */\n              dup3\n                /* \"#utility.yul\":8385:8462   */\n              sub\n                /* \"#utility.yul\":8382:8485   */\n              tag_256\n              jumpi\n                /* \"#utility.yul\":8465:8483   */\n              tag_257\n              tag_142\n              jump\t// in\n            tag_257:\n                /* \"#utility.yul\":8382:8485   */\n            tag_256:\n                /* \"#utility.yul\":8512:8513   */\n              0x01\n                /* \"#utility.yul\":8505:8510   */\n              dup3\n                /* \"#utility.yul\":8501:8514   */\n              add\n                /* \"#utility.yul\":8494:8514   */\n              swap1\n              pop\n                /* \"#utility.yul\":8287:8520   */\n              swap2\n              swap1\n              pop\n              jump\t// out\n                /* \"#utility.yul\":8526:8706   */\n            tag_143:\n                /* \"#utility.yul\":8574:8651   */\n              0x4e487b7100000000000000000000000000000000000000000000000000000000\n                /* \"#utility.yul\":8571:8572   */\n              0x00\n                /* \"#utility.yul\":8564:8652   */\n              mstore\n                /* \"#utility.yul\":8671:8675   */\n              0x22\n                /* \"#utility.yul\":8668:8669   */\n              0x04\n                /* \"#utility.yul\":8661:8676   */\n              mstore\n                /* \"#utility.yul\":8695:8699   */\n              0x24\n                /* \"#utility.yul\":8692:8693   */\n              0x00\n                /* \"#utility.yul\":8685:8700   */\n              revert\n                /* \"#utility.yul\":8712:9032   */\n            tag_75:\n                /* \"#utility.yul\":8756:8762   */\n              0x00\n                /* \"#utility.yul\":8793:8794   */\n              0x02\n                /* \"#utility.yul\":8787:8791   */\n              dup3\n                /* \"#utility.yul\":8783:8795   */\n              div\n                /* \"#utility.yul\":8773:8795   */\n              swap1\n              pop\n                /* \"#utility.yul\":8840:8841   */\n              0x01\n                /* \"#utility.yul\":8834:8838   */\n              dup3\n                /* \"#utility.yul\":8830:8842   */\n              and\n                /* \"#utility.yul\":8861:8879   */\n              dup1\n                /* \"#utility.yul\":8851:8932   */\n              tag_260\n              jumpi\n                /* \"#utility.yul\":8917:8921   */\n              0x7f\n                /* \"#utility.yul\":8909:8915   */\n              dup3\n                /* \"#utility.yul\":8905:8922   */\n              and\n                /* \"#utility.yul\":8895:8922   */\n              swap2\n              pop\n                /* \"#utility.yul\":8851:8932   */\n            tag_260:\n                /* \"#utility.yul\":8979:8981   */\n              0x20\n                /* \"#utility.yul\":8971:8977   */\n              dup3\n                /* \"#utility.yul\":8968:8982   */\n              lt\n                /* \"#utility.yul\":8948:8966   */\n              dup2\n                /* \"#utility.yul\":8945:8983   */\n              sub\n                /* \"#utility.yul\":8942:9026   */\n              tag_261\n              jumpi\n                /* \"#utility.yul\":8998:9016   */\n              tag_262\n              tag_143\n              jump\t// in\n            tag_262:\n                /* \"#utility.yul\":8942:9026   */\n            tag_261:\n                /* \"#utility.yul\":8763:9032   */\n              pop\n                /* \"#utility.yul\":8712:9032   */\n              swap2\n              swap1\n              pop\n              jump\t// out\n                /* \"#utility.yul\":9038:9179   */\n            tag_144:\n                /* \"#utility.yul\":9087:9091   */\n              0x00\n                /* \"#utility.yul\":9110:9113   */\n              dup2\n                /* \"#utility.yul\":9102:9113   */\n              swap1\n              pop\n                /* \"#utility.yul\":9133:9136   */\n              dup2\n                /* \"#utility.yul\":9130:9131   */\n              0x00\n                /* \"#utility.yul\":9123:9137   */\n              mstore\n                /* \"#utility.yul\":9167:9171   */\n              0x20\n                /* \"#utility.yul\":9164:9165   */\n              0x00\n                /* \"#utility.yul\":9154:9172   */\n              keccak256\n                /* \"#utility.yul\":9146:9172   */\n              swap1\n              pop\n                /* \"#utility.yul\":9038:9179   */\n              swap2\n              swap1\n              pop\n              jump\t// out\n                /* \"#utility.yul\":9185:9278   */\n            tag_145:\n                /* \"#utility.yul\":9222:9228   */\n              0x00\n                /* \"#utility.yul\":9269:9271   */\n              0x20\n                /* \"#utility.yul\":9264:9266   */\n              0x1f\n                /* \"#utility.yul\":9257:9262   */\n              dup4\n                /* \"#utility.yul\":9253:9267   */\n              add\n                /* \"#utility.yul\":9249:9272   */\n              div\n                /* \"#utility.yul\":9239:9272   */\n              swap1\n              pop\n                /* \"#utility.yul\":9185:9278   */\n              swap2\n              swap1\n              pop\n              jump\t// out\n                /* \"#utility.yul\":9284:9391   */\n            tag_146:\n                /* \"#utility.yul\":9328:9336   */\n              0x00\n                /* \"#utility.yul\":9378:9383   */\n              dup3\n                /* \"#utility.yul\":9372:9376   */\n              dup3\n                /* \"#utility.yul\":9368:9384   */\n              shl\n                /* \"#utility.yul\":9347:9384   */\n              swap1\n              pop\n                /* \"#utility.yul\":9284:9391   */\n              swap3\n              swap2\n              pop\n              pop\n              jump\t// out\n                /* \"#utility.yul\":9397:9790   */\n            tag_147:\n                /* \"#utility.yul\":9466:9472   */\n              0x00\n                /* \"#utility.yul\":9516:9517   */\n              0x08\n                /* \"#utility.yul\":9504:9514   */\n              dup4\n                /* \"#utility.yul\":9500:9518   */\n              mul\n                /* \"#utility.yul\":9539:9636   */\n              tag_267\n                /* \"#utility.yul\":9569:9635   */\n              0xffffffffffffffffffffffffffffffffffffffffffffffffffffffffffffffff\n                /* \"#utility.yul\":9558:9567   */\n              dup3\n                /* \"#utility.yul\":9539:9636   */\n              tag_146\n              jump\t// in\n            tag_267:\n                /* \"#utility.yul\":9657:9696   */\n              tag_268\n                /* \"#utility.yul\":9687:9695   */\n              dup7\n                /* \"#utility.yul\":9676:9685   */\n              dup4\n                /* \"#utility.yul\":9657:9696   */\n              tag_146\n              jump\t// in\n            tag_268:\n                /* \"#utility.yul\":9645:9696   */\n              swap6\n              pop\n                /* \"#utility.yul\":9729:9733   */\n              dup1\n                /* \"#utility.yul\":9725:9734   */\n              not\n                /* \"#utility.yul\":9718:9723   */\n              dup5\n                /* \"#utility.yul\":9714:9735   */\n              and\n                /* \"#utility.yul\":9705:9735   */\n              swap4\n              pop\n                /* \"#utility.yul\":9778:9782   */\n              dup1\n                /* \"#utility.yul\":9768:9776   */\n              dup7\n                /* \"#utility.yul\":9764:9783   */\n              and\n                /* \"#utility.yul\":9757:9762   */\n              dup5\n                /* \"#utility.yul\":9754:9784   */\n              or\n                /* \"#utility.yul\":9744:9784   */\n              swap3\n              pop\n                /* \"#utility.yul\":9473:9790   */\n              pop\n              pop\n                /* \"#utility.yul\":9397:9790   */\n              swap4\n              swap3\n              pop\n              pop\n              pop\n              jump\t// out\n                /* \"#utility.yul\":9796:9856   */\n            tag_148:\n                /* \"#utility.yul\":9824:9827   */\n              0x00\n                /* \"#utility.yul\":9845:9850   */\n              dup2\n                /* \"#utility.yul\":9838:9850   */\n              swap1\n              pop\n                /* \"#utility.yul\":9796:9856   */\n              swap2\n              swap1\n              pop\n              jump\t// out\n                /* \"#utility.yul\":9862:10004   */\n            tag_149:\n                /* \"#utility.yul\":9912:9921   */\n              0x00\n                /* \"#utility.yul\":9945:9998   */\n              tag_271\n                /* \"#utility.yul\":9963:9997   */\n              tag_272\n                /* \"#utility.yul\":9972:9996   */\n              tag_273\n                /* \"#utility.yul\":9990:9995   */\n              dup5\n                /* \"#utility.yul\":9972:9996   */\n              tag_117\n              jump\t// in\n            tag_273:\n                /* \"#utility.yul\":9963:9997   */\n              tag_148\n              jump\t// in\n            tag_272:\n                /* \"#utility.yul\":9945:9998   */\n              tag_117\n              jump\t// in\n            tag_271:\n                /* \"#utility.yul\":9932:9998   */\n              swap1\n              pop\n                /* \"#utility.yul\":9862:10004   */\n              swap2\n              swap1\n              pop\n              jump\t// out\n                /* \"#utility.yul\":10010:10085   */\n            tag_150:\n                /* \"#utility.yul\":10053:10056   */\n              0x00\n                /* \"#utility.yul\":10074:10079   */\n              dup2\n                /* \"#utility.yul\":10067:10079   */\n              swap1\n              pop\n                /* \"#utility.yul\":10010:10085   */\n              swap2\n              swap1\n              pop\n              jump\t// out\n                /* \"#utility.yul\":10091:10360   */\n            tag_151:\n                /* \"#utility.yul\":10201:10240   */\n              tag_276\n                /* \"#utility.yul\":10232:10239   */\n              dup4\n                /* \"#utility.yul\":10201:10240   */\n              tag_149\n              jump\t// in\n            tag_276:\n                /* \"#utility.yul\":10262:10353   */\n              tag_277\n                /* \"#utility.yul\":10311:10352   */\n              tag_278\n                /* \"#utility.yul\":10335:10351   */\n              dup3\n                /* \"#utility.yul\":10311:10352   */\n              tag_150\n              jump\t// in\n            tag_278:\n                /* \"#utility.yul\":10303:10309   */\n              dup5\n                /* \"#utility.yul\":10296:10300   */\n              dup5\n                /* \"#utility.yul\":10290:10301   */\n              sload\n                /* \"#utility.yul\":10262:10353   */\n              tag_147\n              jump\t// in\n            tag_277:\n                /* \"#utility.yul\":10256:10260   */\n              dup3\n                /* \"#utility.yul\":10249:10354   */\n              sstore\n                /* \"#utility.yul\":10167:10360   */\n              pop\n                /* \"#utility.yul\":10091:10360   */\n              pop\n              pop\n              pop\n              jump\t// out\n                /* \"#utility.yul\":10366:10439   */\n            tag_152:\n                /* \"#utility.yul\":10411:10414   */\n              0x00\n                /* \"#utility.yul\":10366:10439   */\n              swap1\n              jump\t// out\n                /* \"#utility.yul\":10445:10634   */\n            tag_153:\n                /* \"#utility.yul\":10522:10554   */\n              tag_281\n              tag_152\n              jump\t// in\n            tag_281:\n                /* \"#utility.yul\":10563:10628   */\n              tag_282\n                /* \"#utility.yul\":10621:10627   */\n              dup2\n                /* \"#utility.yul\":10613:10619   */\n              dup5\n                /* \"#utility.yul\":10607:10611   */\n              dup5\n                /* \"#utility.yul\":10563:10628   */\n              tag_151\n              jump\t// in\n            tag_282:\n                /* \"#utility.yul\":10498:10634   */\n              pop\n                /* \"#utility.yul\":10445:10634   */\n              pop\n              pop\n              jump\t// out\n                /* \"#utility.yul\":10640:10826   */\n            tag_154:\n                /* \"#utility.yul\":10700:10820   */\n            tag_284:\n                /* \"#utility.yul\":10717:10720   */\n              dup2\n                /* \"#utility.yul\":10710:10715   */\n              dup2\n                /* \"#utility.yul\":10707:10721   */\n              lt\n                /* \"#utility.yul\":10700:10820   */\n              iszero\n              tag_286\n              jumpi\n                /* \"#utility.yul\":10771:10810   */\n              tag_287\n                /* \"#utility.yul\":10808:10809   */\n              0x00\n                /* \"#utility.yul\":10801:10806   */\n              dup3\n                /* \"#utility.yul\":10771:10810   */\n              tag_153\n              jump\t// in\n            tag_287:\n                /* \"#utility.yul\":10744:10745   */\n              0x01\n                /* \"#utility.yul\":10737:10742   */\n              dup2\n                /* \"#utility.yul\":10733:10746   */\n              add\n                /* \"#utility.yul\":10724:10746   */\n              swap1\n              pop\n                /* \"#utility.yul\":10700:10820   */\n              jump(tag_284)\n            tag_286:\n                /* \"#utility.yul\":10640:10826   */\n              pop\n              pop\n              jump\t// out\n                /* \"#utility.yul\":10832:11375   */\n            tag_155:\n                /* \"#utility.yul\":10933:10935   */\n              0x1f\n                /* \"#utility.yul\":10928:10931   */\n              dup3\n                /* \"#utility.yul\":10925:10936   */\n              gt\n                /* \"#utility.yul\":10922:11368   */\n              iszero\n              tag_289\n              jumpi\n                /* \"#utility.yul\":10967:11005   */\n              tag_290\n                /* \"#utility.yul\":10999:11004   */\n              dup2\n                /* \"#utility.yul\":10967:11005   */\n              tag_144\n              jump\t// in\n            tag_290:\n                /* \"#utility.yul\":11051:11080   */\n              tag_291\n                /* \"#utility.yul\":11069:11079   */\n              dup5\n                /* \"#utility.yul\":11051:11080   */\n              tag_145\n              jump\t// in\n            tag_291:\n                /* \"#utility.yul\":11041:11049   */\n              dup2\n                /* \"#utility.yul\":11037:11081   */\n              add\n                /* \"#utility.yul\":11234:11236   */\n              0x20\n                /* \"#utility.yul\":11222:11232   */\n              dup6\n                /* \"#utility.yul\":11219:11237   */\n              lt\n                /* \"#utility.yul\":11216:11265   */\n              iszero\n              tag_292\n              jumpi\n                /* \"#utility.yul\":11255:11263   */\n              dup2\n                /* \"#utility.yul\":11240:11263   */\n              swap1\n              pop\n                /* \"#utility.yul\":11216:11265   */\n            tag_292:\n                /* \"#utility.yul\":11278:11358   */\n              tag_293\n                /* \"#utility.yul\":11334:11356   */\n              tag_294\n                /* \"#utility.yul\":11352:11355   */\n              dup6\n                /* \"#utility.yul\":11334:11356   */\n              tag_145\n              jump\t// in\n            tag_294:\n                /* \"#utility.yul\":11324:11332   */\n              dup4\n                /* \"#utility.yul\":11320:11357   */\n              add\n                /* \"#utility.yul\":11307:11318   */\n              dup3\n                /* \"#utility.yul\":11278:11358   */\n              tag_154\n              jump\t// in\n            tag_293:\n                /* \"#utility.yul\":10937:11368   */\n              pop\n              pop\n                /* \"#utility.yul\":10922:11368   */\n            tag_289:\n                /* \"#utility.yul\":10832:11375   */\n              pop\n              pop\n              pop\n              jump\t// out\n                /* \"#utility.yul\":11381:11498   */\n            tag_156:\n                /* \"#utility.yul\":11435:11443   */\n              0x00\n                /* \"#utility.yul\":11485:11490   */\n              dup3\n                /* \"#utility.yul\":11479:11483   */\n              dup3\n                /* \"#utility.yul\":11475:11491   */\n              shr\n                /* \"#utility.yul\":11454:11491   */\n              swap1\n              pop\n                /* \"#utility.yul\":11381:11498   */\n              swap3\n              swap2\n              pop\n              pop\n              jump\t// out\n                /* \"#utility.yul\":11504:11673   */\n            tag_157:\n                /* \"#utility.yul\":11548:11554   */\n              0x00\n                /* \"#utility.yul\":11581:11632   */\n              tag_297\n                /* \"#utility.yul\":11629:11630   */\n              0x00\n                /* \"#utility.yul\":11625:11631   */\n              not\n                /* \"#utility.yul\":11617:11622   */\n              dup5\n                /* \"#utility.yul\":11614:11615   */\n              0x08\n                /* \"#utility.yul\":11610:11623   */\n              mul\n                /* \"#utility.yul\":11581:11632   */\n              tag_156\n              jump\t// in\n            tag_297:\n                /* \"#utility.yul\":11577:11633   */\n              not\n                /* \"#utility.yul\":11662:11666   */\n              dup1\n                /* \"#utility.yul\":11656:11660   */\n              dup4\n                /* \"#utility.yul\":11652:11667   */\n              and\n                /* \"#utility.yul\":11642:11667   */\n              swap2\n              pop\n                /* \"#utility.yul\":11555:11673   */\n              pop\n                /* \"#utility.yul\":11504:11673   */\n              swap3\n              swap2\n              pop\n              pop\n              jump\t// out\n                /* \"#utility.yul\":11678:11973   */\n            tag_158:\n                /* \"#utility.yul\":11754:11758   */\n              0x00\n                /* \"#utility.yul\":11900:11929   */\n              tag_299\n                /* \"#utility.yul\":11925:11928   */\n              dup4\n                /* \"#utility.yul\":11919:11923   */\n              dup4\n                /* \"#utility.yul\":11900:11929   */\n              tag_157\n              jump\t// in\n            tag_299:\n                /* \"#utility.yul\":11892:11929   */\n              swap2\n              pop\n                /* \"#utility.yul\":11962:11965   */\n              dup3\n                /* \"#utility.yul\":11959:11960   */\n              0x02\n                /* \"#utility.yul\":11955:11966   */\n              mul\n                /* \"#utility.yul\":11949:11953   */\n              dup3\n                /* \"#utility.yul\":11946:11967   */\n              or\n                /* \"#utility.yul\":11938:11967   */\n              swap1\n              pop\n                /* \"#utility.yul\":11678:11973   */\n              swap3\n              swap2\n              pop\n              pop\n              jump\t// out\n                /* \"#utility.yul\":11978:13373   */\n            tag_85:\n                /* \"#utility.yul\":12095:12132   */\n              tag_301\n                /* \"#utility.yul\":12128:12131   */\n              dup3\n                /* \"#utility.yul\":12095:12132   */\n              tag_128\n              jump\t// in\n            tag_301:\n                /* \"#utility.yul\":12197:12215   */\n              0xffffffffffffffff\n                /* \"#utility.yul\":12189:12195   */\n              dup2\n                /* \"#utility.yul\":12186:12216   */\n              gt\n                /* \"#utility.yul\":12183:12239   */\n              iszero\n              tag_302\n              jumpi\n                /* \"#utility.yul\":12219:12237   */\n              tag_303\n              tag_135\n              jump\t// in\n            tag_303:\n                /* \"#utility.yul\":12183:12239   */\n            tag_302:\n                /* \"#utility.yul\":12263:12301   */\n              tag_304\n                /* \"#utility.yul\":12295:12299   */\n              dup3\n                /* \"#utility.yul\":12289:12300   */\n              sload\n                /* \"#utility.yul\":12263:12301   */\n              tag_75\n              jump\t// in\n            tag_304:\n                /* \"#utility.yul\":12348:12415   */\n              tag_305\n                /* \"#utility.yul\":12408:12414   */\n              dup3\n                /* \"#utility.yul\":12400:12406   */\n              dup3\n                /* \"#utility.yul\":12394:12398   */\n              dup6\n                /* \"#utility.yul\":12348:12415   */\n              tag_155\n              jump\t// in\n            tag_305:\n                /* \"#utility.yul\":12442:12443   */\n              0x00\n                /* \"#utility.yul\":12466:12470   */\n              0x20\n                /* \"#utility.yul\":12453:12470   */\n              swap1\n              pop\n                /* \"#utility.yul\":12498:12500   */\n              0x1f\n                /* \"#utility.yul\":12490:12496   */\n              dup4\n                /* \"#utility.yul\":12487:12501   */\n              gt\n                /* \"#utility.yul\":12515:12516   */\n              0x01\n                /* \"#utility.yul\":12510:13128   */\n              dup2\n              eq\n              tag_307\n              jumpi\n                /* \"#utility.yul\":13172:13173   */\n              0x00\n                /* \"#utility.yul\":13189:13195   */\n              dup5\n                /* \"#utility.yul\":13186:13263   */\n              iszero\n              tag_308\n              jumpi\n                /* \"#utility.yul\":13238:13247   */\n              dup3\n                /* \"#utility.yul\":13233:13236   */\n              dup8\n                /* \"#utility.yul\":13229:13248   */\n              add\n                /* \"#utility.yul\":13223:13249   */\n              mload\n                /* \"#utility.yul\":13214:13249   */\n              swap1\n              pop\n                /* \"#utility.yul\":13186:13263   */\n            tag_308:\n                /* \"#utility.yul\":13289:13356   */\n              tag_309\n                /* \"#utility.yul\":13349:13355   */\n              dup6\n                /* \"#utility.yul\":13342:13347   */\n              dup3\n                /* \"#utility.yul\":13289:13356   */\n              tag_158\n              jump\t// in\n            tag_309:\n                /* \"#utility.yul\":13283:13287   */\n              dup7\n                /* \"#utility.yul\":13276:13357   */\n              sstore\n                /* \"#utility.yul\":13145:13367   */\n              pop\n                /* \"#utility.yul\":12480:13367   */\n              jump(tag_306)\n                /* \"#utility.yul\":12510:13128   */\n            tag_307:\n                /* \"#utility.yul\":12562:12566   */\n              0x1f\n                /* \"#utility.yul\":12558:12567   */\n              not\n                /* \"#utility.yul\":12550:12556   */\n              dup5\n                /* \"#utility.yul\":12546:12568   */\n              and\n                /* \"#utility.yul\":12596:12633   */\n              tag_310\n                /* \"#utility.yul\":12628:12632   */\n              dup7\n                /* \"#utility.yul\":12596:12633   */\n              tag_144\n              jump\t// in\n            tag_310:\n                /* \"#utility.yul\":12655:12656   */\n              0x00\n                /* \"#utility.yul\":12669:12877   */\n            tag_311:\n                /* \"#utility.yul\":12683:12690   */\n              dup3\n                /* \"#utility.yul\":12680:12681   */\n              dup2\n                /* \"#utility.yul\":12677:12691   */\n              lt\n                /* \"#utility.yul\":12669:12877   */\n              iszero\n              tag_313\n              jumpi\n                /* \"#utility.yul\":12762:12771   */\n              dup5\n                /* \"#utility.yul\":12757:12760   */\n              dup10\n                /* \"#utility.yul\":12753:12772   */\n              add\n                /* \"#utility.yul\":12747:12773   */\n              mload\n                /* \"#utility.yul\":12739:12745   */\n              dup3\n                /* \"#utility.yul\":12732:12774   */\n              sstore\n                /* \"#utility.yul\":12813:12814   */\n              0x01\n                /* \"#utility.yul\":12805:12811   */\n              dup3\n                /* \"#utility.yul\":12801:12815   */\n              add\n                /* \"#utility.yul\":12791:12815   */\n              swap2\n              pop\n                /* \"#utility.yul\":12860:12862   */\n              0x20\n                /* \"#utility.yul\":12849:12858   */\n              dup6\n                /* \"#utility.yul\":12845:12863   */\n              add\n                /* \"#utility.yul\":12832:12863   */\n              swap5\n              pop\n                /* \"#utility.yul\":12706:12710   */\n              0x20\n                /* \"#utility.yul\":12703:12704   */\n              dup2\n                /* \"#utility.yul\":12699:12711   */\n              add\n                /* \"#utility.yul\":12694:12711   */\n              swap1\n              pop\n                /* \"#utility.yul\":12669:12877   */\n              jump(tag_311)\n            tag_313:\n                /* \"#utility.yul\":12905:12911   */\n              dup7\n                /* \"#utility.yul\":12896:12903   */\n              dup4\n                /* \"#utility.yul\":12893:12912   */\n              lt\n                /* \"#utility.yul\":12890:13069   */\n              iszero\n              tag_314\n              jumpi\n                /* \"#utility.yul\":12963:12972   */\n              dup5\n                /* \"#utility.yul\":12958:12961   */\n              dup10\n                /* \"#utility.yul\":12954:12973   */\n              add\n                /* \"#utility.yul\":12948:12974   */\n              mload\n                /* \"#utility.yul\":13006:13054   */\n              tag_315\n                /* \"#utility.yul\":13048:13052   */\n              0x1f\n                /* \"#utility.yul\":13040:13046   */\n              dup10\n                /* \"#utility.yul\":13036:13053   */\n              and\n                /* \"#utility.yul\":13025:13034   */\n              dup3\n                /* \"#utility.yul\":13006:13054   */\n              tag_157\n              jump\t// in\n            tag_315:\n                /* \"#utility.yul\":12998:13004   */\n              dup4\n                /* \"#utility.yul\":12991:13055   */\n              sstore\n                /* \"#utility.yul\":12913:13069   */\n              pop\n                /* \"#utility.yul\":12890:13069   */\n            tag_314:\n                /* \"#utility.yul\":13115:13116   */\n              0x01\n                /* \"#utility.yul\":13111:13112   */\n              0x02\n                /* \"#utility.yul\":13103:13109   */\n              dup9\n                /* \"#utility.yul\":13099:13113   */\n              mul\n                /* \"#utility.yul\":13095:13117   */\n              add\n                /* \"#utility.yul\":13089:13093   */\n              dup9\n                /* \"#utility.yul\":13082:13118   */\n              sstore\n                /* \"#utility.yul\":12517:13128   */\n              pop\n              pop\n              pop\n                /* \"#utility.yul\":12480:13367   */\n            tag_306:\n              pop\n                /* \"#utility.yul\":12070:13373   */\n              pop\n              pop\n              pop\n                /* \"#utility.yul\":11978:13373   */\n              pop\n              pop\n              jump\t// out\n                /* \"#utility.yul\":13379:13559   */\n            tag_159:\n                /* \"#utility.yul\":13427:13504   */\n              0x4e487b7100000000000000000000000000000000000000000000000000000000\n                /* \"#utility.yul\":13424:13425   */\n              0x00\n                /* \"#utility.yul\":13417:13505   */\n              mstore\n                /* \"#utility.yul\":13524:13528   */\n              0x12\n                /* \"#utility.yul\":13521:13522   */\n              0x04\n                /* \"#utility.yul\":13514:13529   */\n              mstore\n                /* \"#utility.yul\":13548:13552   */\n              0x24\n                /* \"#utility.yul\":13545:13546   */\n              0x00\n                /* \"#utility.yul\":13538:13553   */\n              revert\n                /* \"#utility.yul\":13565:13750   */\n            tag_94:\n                /* \"#utility.yul\":13605:13606   */\n              0x00\n                /* \"#utility.yul\":13622:13642   */\n              tag_318\n                /* \"#utility.yul\":13640:13641   */\n              dup3\n                /* \"#utility.yul\":13622:13642   */\n              tag_117\n              jump\t// in\n            tag_318:\n                /* \"#utility.yul\":13617:13642   */\n              swap2\n              pop\n                /* \"#utility.yul\":13656:13676   */\n              tag_319\n                /* \"#utility.yul\":13674:13675   */\n              dup4\n                /* \"#utility.yul\":13656:13676   */\n              tag_117\n              jump\t// in\n            tag_319:\n                /* \"#utility.yul\":13651:13676   */\n              swap3\n              pop\n                /* \"#utility.yul\":13695:13696   */\n              dup3\n                /* \"#utility.yul\":13685:13720   */\n              tag_320\n              jumpi\n                /* \"#utility.yul\":13700:13718   */\n              tag_321\n              tag_159\n              jump\t// in\n            tag_321:\n                /* \"#utility.yul\":13685:13720   */\n            tag_320:\n                /* \"#utility.yul\":13742:13743   */\n              dup3\n                /* \"#utility.yul\":13739:13740   */\n              dup3\n                /* \"#utility.yul\":13735:13744   */\n              div\n                /* \"#utility.yul\":13730:13744   */\n              swap1\n              pop\n                /* \"#utility.yul\":13565:13750   */\n              swap3\n              swap2\n              pop\n              pop\n              jump\t// out\n\n            auxdata: 0xa2646970667358221220e74ce6e15c0e434481b0c73b69fbcd6361d16055e56b9d8d3ba2180fcf46551864736f6c634300080f0033\n        }\n    }\n\n    auxdata: 0xa26469706673582212209a59e83e4084436f1f6876cc9e4420fb7fe33ef593176fc166dca6a1fe955e2c64736f6c634300080f0033\n}\n","bytecode":{"linkReferences":{},"object":"608060405234801561001057600080fd5b506116bc806100206000396000f3fe608060405234801561001057600080fd5b50600436106100415760003560e01c806335c3109a146100465780636268503d14610062578063e9217db214610080575b600080fd5b610060600480360381019061005b9190610266565b6100b0565b005b61006a610151565b6040516100779190610383565b60405180910390f35b61009a60048036038101906100959190610266565b6101df565b6040516100a791906103b4565b60405180910390f35b600081336040516100c09061021e565b6100cb9291906103de565b604051809103906000f0801580156100e7573d6000803e3d6000fd5b5090506000819080600181540180825580915050600190039060005260206000200160009091909190916101000a81548173ffffffffffffffffffffffffffffffffffffffff021916908373ffffffffffffffffffffffffffffffffffffffff1602179055505050565b606060008054806020026020016040519081016040528092919081815260200182805480156101d557602002820191906000526020600020905b8160009054906101000a900473ffffffffffffffffffffffffffffffffffffffff1673ffffffffffffffffffffffffffffffffffffffff168152602001906001019080831161018b575b5050505050905090565b600081815481106101ef57600080fd5b906000526020600020016000915054906101000a900473ffffffffffffffffffffffffffffffffffffffff1681565b61127f8061040883390190565b600080fd5b6000819050919050565b61024381610230565b811461024e57600080fd5b50565b6000813590506102608161023a565b92915050565b60006020828403121561027c5761027b61022b565b5b600061028a84828501610251565b91505092915050565b600081519050919050565b600082825260208201905092915050565b6000819050602082019050919050565b600073ffffffffffffffffffffffffffffffffffffffff82169050919050565b60006102ea826102bf565b9050919050565b6102fa816102df565b82525050565b600061030c83836102f1565b60208301905092915050565b6000602082019050919050565b600061033082610293565b61033a818561029e565b9350610345836102af565b8060005b8381101561037657815161035d8882610300565b975061036883610318565b925050600181019050610349565b5085935050505092915050565b6000602082019050818103600083015261039d8184610325565b905092915050565b6103ae816102df565b82525050565b60006020820190506103c960008301846103a5565b92915050565b6103d881610230565b82525050565b60006040820190506103f360008301856103cf565b61040060208301846103a5565b939250505056fe60806040523480156200001157600080fd5b506040516200127f3803806200127f83398181016040528101906200003791906200012b565b806000806101000a81548173ffffffffffffffffffffffffffffffffffffffff021916908373ffffffffffffffffffffffffffffffffffffffff16021790555081600181905550505062000172565b600080fd5b6000819050919050565b620000a0816200008b565b8114620000ac57600080fd5b50565b600081519050620000c08162000095565b92915050565b600073ffffffffffffffffffffffffffffffffffffffff82169050919050565b6000620000f382620000c6565b9050919050565b6200010581620000e6565b81146200011157600080fd5b50565b6000815190506200012581620000fa565b92915050565b6000806040838503121562000145576200014462000086565b5b60006200015585828601620000af565b9250506020620001688582860162000114565b9150509250929050565b6110fd80620001826000396000f3fe6080604052600436106100865760003560e01c806381d12c581161005957806381d12c5814610147578063b346831114610188578063c799a6bf146101b1578063c7b23105146101da578063d7bb99ba1461020557610086565b80630c99d1301461008b5780631f6d4942146100b4578063481c6a75146100f157806380e52d681461011c575b600080fd5b34801561009757600080fd5b506100b260048036038101906100ad91906108db565b61020f565b005b3480156100c057600080fd5b506100db60048036038101906100d69190610966565b61039c565b6040516100e891906109ae565b60405180910390f35b3480156100fd57600080fd5b506101066103bc565b60405161011391906109d8565b60405180910390f35b34801561012857600080fd5b506101316103e0565b60405161013e9190610a02565b60405180910390f35b34801561015357600080fd5b5061016e600480360381019061016991906108db565b6103e6565b60405161017f959493929190610ab6565b60405180910390f35b34801561019457600080fd5b506101af60048036038101906101aa9190610c45565b6104e1565b005b3480156101bd57600080fd5b506101d860048036038101906101d391906108db565b6105e8565b005b3480156101e657600080fd5b506101ef6107b4565b6040516101fc9190610a02565b60405180910390f35b61020d6107ba565b005b600260003373ffffffffffffffffffffffffffffffffffffffff1673ffffffffffffffffffffffffffffffffffffffff16815260200190815260200160002060009054906101000a900460ff1661026957610268610cb4565b5b6004818154811061027d5761027c610ce3565b5b906000526020600020906005020160030160003373ffffffffffffffffffffffffffffffffffffffff1673ffffffffffffffffffffffffffffffffffffffff16815260200190815260200160002060009054906101000a900460ff16156102e357600080fd5b6001600482815481106102f9576102f8610ce3565b5b906000526020600020906005020160030160003373ffffffffffffffffffffffffffffffffffffffff1673ffffffffffffffffffffffffffffffffffffffff16815260200190815260200160002060006101000a81548160ff0219169083151502179055506004818154811061037257610371610ce3565b5b9060005260206000209060050201600401600081548092919061039490610d41565b919050555050565b60026020528060005260406000206000915054906101000a900460ff1681565b60008054906101000a900473ffffffffffffffffffffffffffffffffffffffff1681565b60015481565b600481815481106103f657600080fd5b906000526020600020906005020160009150905080600001805461041990610db8565b80601f016020809104026020016040519081016040528092919081815260200182805461044590610db8565b80156104925780601f1061046757610100808354040283529160200191610492565b820191906000526020600020905b81548152906001019060200180831161047557829003601f168201915b5050505050908060010154908060020160009054906101000a900473ffffffffffffffffffffffffffffffffffffffff16908060020160149054906101000a900460ff16908060040154905085565b60008054906101000a900473ffffffffffffffffffffffffffffffffffffffff1673ffffffffffffffffffffffffffffffffffffffff163373ffffffffffffffffffffffffffffffffffffffff161461053957600080fd5b6000600460018160018154018082558091505003906000526020600020906005020190508381600001908161056e9190610f95565b50828160010181905550818160020160006101000a81548173ffffffffffffffffffffffffffffffffffffffff021916908373ffffffffffffffffffffffffffffffffffffffff16021790555060008160020160146101000a81548160ff0219169083151502179055506000816004018190555050505050565b60008054906101000a900473ffffffffffffffffffffffffffffffffffffffff1673ffffffffffffffffffffffffffffffffffffffff163373ffffffffffffffffffffffffffffffffffffffff161461064057600080fd5b6004818154811061065457610653610ce3565b5b906000526020600020906005020160020160149054906101000a900460ff161561067d57600080fd5b600260035461068c9190611096565b600482815481106106a05761069f610ce3565b5b906000526020600020906005020160040154116106bc57600080fd5b6001600482815481106106d2576106d1610ce3565b5b906000526020600020906005020160020160146101000a81548160ff0219169083151502179055506000600482815481106107105761070f610ce3565b5b906000526020600020906005020160020160009054906101000a900473ffffffffffffffffffffffffffffffffffffffff1690508073ffffffffffffffffffffffffffffffffffffffff166108fc6004848154811061077257610771610ce3565b5b9060005260206000209060050201600101549081150290604051600060405180830381858888f193505050501580156107af573d6000803e3d6000fd5b505050565b60035481565b60015434116107c857600080fd5b600260003373ffffffffffffffffffffffffffffffffffffffff1673ffffffffffffffffffffffffffffffffffffffff16815260200190815260200160002060009054906101000a900460ff161561081f57600080fd5b6001600260003373ffffffffffffffffffffffffffffffffffffffff1673ffffffffffffffffffffffffffffffffffffffff16815260200190815260200160002060006101000a81548160ff0219169083151502179055506003600081548092919061088a90610d41565b9190505550565b6000604051905090565b600080fd5b600080fd5b6000819050919050565b6108b8816108a5565b81146108c357600080fd5b50565b6000813590506108d5816108af565b92915050565b6000602082840312156108f1576108f061089b565b5b60006108ff848285016108c6565b91505092915050565b600073ffffffffffffffffffffffffffffffffffffffff82169050919050565b600061093382610908565b9050919050565b61094381610928565b811461094e57600080fd5b50565b6000813590506109608161093a565b92915050565b60006020828403121561097c5761097b61089b565b5b600061098a84828501610951565b91505092915050565b60008115159050919050565b6109a881610993565b82525050565b60006020820190506109c3600083018461099f565b92915050565b6109d281610928565b82525050565b60006020820190506109ed60008301846109c9565b92915050565b6109fc816108a5565b82525050565b6000602082019050610a1760008301846109f3565b92915050565b600081519050919050565b600082825260208201905092915050565b60005b83811015610a57578082015181840152602081019050610a3c565b83811115610a66576000848401525b50505050565b6000601f19601f8301169050919050565b6000610a8882610a1d565b610a928185610a28565b9350610aa2818560208601610a39565b610aab81610a6c565b840191505092915050565b600060a0820190508181036000830152610ad08188610a7d565b9050610adf60208301876109f3565b610aec60408301866109c9565b610af9606083018561099f565b610b0660808301846109f3565b9695505050505050565b600080fd5b600080fd5b7f4e487b7100000000000000000000000000000000000000000000000000000000600052604160045260246000fd5b610b5282610a6c565b810181811067ffffffffffffffff82111715610b7157610b70610b1a565b5b80604052505050565b6000610b84610891565b9050610b908282610b49565b919050565b600067ffffffffffffffff821115610bb057610baf610b1a565b5b610bb982610a6c565b9050602081019050919050565b82818337600083830152505050565b6000610be8610be384610b95565b610b7a565b905082815260208101848484011115610c0457610c03610b15565b5b610c0f848285610bc6565b509392505050565b600082601f830112610c2c57610c2b610b10565b5b8135610c3c848260208601610bd5565b91505092915050565b600080600060608486031215610c5e57610c5d61089b565b5b600084013567ffffffffffffffff811115610c7c57610c7b6108a0565b5b610c8886828701610c17565b9350506020610c99868287016108c6565b9250506040610caa86828701610951565b9150509250925092565b7f4e487b7100000000000000000000000000000000000000000000000000000000600052600160045260246000fd5b7f4e487b7100000000000000000000000000000000000000000000000000000000600052603260045260246000fd5b7f4e487b7100000000000000000000000000000000000000000000000000000000600052601160045260246000fd5b6000610d4c826108a5565b91507fffffffffffffffffffffffffffffffffffffffffffffffffffffffffffffffff8203610d7e57610d7d610d12565b5b600182019050919050565b7f4e487b7100000000000000000000000000000000000000000000000000000000600052602260045260246000fd5b60006002820490506001821680610dd057607f821691505b602082108103610de357610de2610d89565b5b50919050565b60008190508160005260206000209050919050565b60006020601f8301049050919050565b600082821b905092915050565b600060088302610e4b7fffffffffffffffffffffffffffffffffffffffffffffffffffffffffffffffff82610e0e565b610e558683610e0e565b95508019841693508086168417925050509392505050565b6000819050919050565b6000610e92610e8d610e88846108a5565b610e6d565b6108a5565b9050919050565b6000819050919050565b610eac83610e77565b610ec0610eb882610e99565b848454610e1b565b825550505050565b600090565b610ed5610ec8565b610ee0818484610ea3565b505050565b5b81811015610f0457610ef9600082610ecd565b600181019050610ee6565b5050565b601f821115610f4957610f1a81610de9565b610f2384610dfe565b81016020851015610f32578190505b610f46610f3e85610dfe565b830182610ee5565b50505b505050565b600082821c905092915050565b6000610f6c60001984600802610f4e565b1980831691505092915050565b6000610f858383610f5b565b9150826002028217905092915050565b610f9e82610a1d565b67ffffffffffffffff811115610fb757610fb6610b1a565b5b610fc18254610db8565b610fcc828285610f08565b600060209050601f831160018114610fff5760008415610fed578287015190505b610ff78582610f79565b86555061105f565b601f19841661100d86610de9565b60005b8281101561103557848901518255600182019150602085019450602081019050611010565b86831015611052578489015161104e601f891682610f5b565b8355505b6001600288020188555050505b505050505050565b7f4e487b7100000000000000000000000000000000000000000000000000000000600052601260045260246000fd5b60006110a1826108a5565b91506110ac836108a5565b9250826110bc576110bb611067565b5b82820490509291505056fea2646970667358221220e74ce6e15c0e434481b0c73b69fbcd6361d16055e56b9d8d3ba2180fcf46551864736f6c634300080f0033a26469706673582212209a59e83e4084436f1f6876cc9e4420fb7fe33ef593176fc166dca6a1fe955e2c64736f6c634300080f0033","opcodes":"PUSH1 0x80 PUSH1 0x40 MSTORE CALLVALUE DUP1 ISZERO PUSH2 0x10 JUMPI PUSH1 0x0 DUP1 REVERT JUMPDEST POP PUSH2 0x16BC DUP1 PUSH2 0x20 PUSH1 0x0 CODECOPY PUSH1 0x0 RETURN INVALID PUSH1 0x80 PUSH1 0x40 MSTORE CALLVALUE DUP1 ISZERO PUSH2 0x10 JUMPI PUSH1 0x0 DUP1 REVERT JUMPDEST POP PUSH1 0x4 CALLDATASIZE LT PUSH2 0x41 JUMPI PUSH1 0x0 CALLDATALOAD PUSH1 0xE0 SHR DUP1 PUSH4 0x35C3109A EQ PUSH2 0x46 JUMPI DUP1 PUSH4 0x6268503D EQ PUSH2 0x62 JUMPI DUP1 PUSH4 0xE9217DB2 EQ PUSH2 0x80 JUMPI JUMPDEST PUSH1 0x0 DUP1 REVERT JUMPDEST PUSH2 0x60 PUSH1 0x4 DUP1 CALLDATASIZE SUB DUP2 ADD SWAP1 PUSH2 0x5B SWAP2 SWAP1 PUSH2 0x266 JUMP JUMPDEST PUSH2 0xB0 JUMP JUMPDEST STOP JUMPDEST PUSH2 0x6A PUSH2 0x151 JUMP JUMPDEST PUSH1 0x40 MLOAD PUSH2 0x77 SWAP2 SWAP1 PUSH2 0x383 JUMP JUMPDEST PUSH1 0x40 MLOAD DUP1 SWAP2 SUB SWAP1 RETURN JUMPDEST PUSH2 0x9A PUSH1 0x4 DUP1 CALLDATASIZE SUB DUP2 ADD SWAP1 PUSH2 0x95 SWAP2 SWAP1 PUSH2 0x266 JUMP JUMPDEST PUSH2 0x1DF JUMP JUMPDEST PUSH1 0x40 MLOAD PUSH2 0xA7 SWAP2 SWAP1 PUSH2 0x3B4 JUMP JUMPDEST PUSH1 0x40 MLOAD DUP1 SWAP2 SUB SWAP1 RETURN JUMPDEST PUSH1 0x0 DUP2 CALLER PUSH1 0x40 MLOAD PUSH2 0xC0 SWAP1 PUSH2 0x21E JUMP JUMPDEST PUSH2 0xCB SWAP3 SWAP2 SWAP1 PUSH2 0x3DE JUMP JUMPDEST PUSH1 0x40 MLOAD DUP1 SWAP2 SUB SWAP1 PUSH1 0x0 CREATE DUP1 ISZERO DUP1 ISZERO PUSH2 0xE7 JUMPI RETURNDATASIZE PUSH1 0x0 DUP1 RETURNDATACOPY RETURNDATASIZE PUSH1 0x0 REVERT JUMPDEST POP SWAP1 POP PUSH1 0x0 DUP2 SWAP1 DUP1 PUSH1 0x1 DUP2 SLOAD ADD DUP1 DUP3 SSTORE DUP1 SWAP2 POP POP PUSH1 0x1 SWAP1 SUB SWAP1 PUSH1 0x0 MSTORE PUSH1 0x20 PUSH1 0x0 KECCAK256 ADD PUSH1 0x0 SWAP1 SWAP2 SWAP1 SWAP2 SWAP1 SWAP2 PUSH2 0x100 EXP DUP2 SLOAD DUP2 PUSH20 0xFFFFFFFFFFFFFFFFFFFFFFFFFFFFFFFFFFFFFFFF MUL NOT AND SWAP1 DUP4 PUSH20 0xFFFFFFFFFFFFFFFFFFFFFFFFFFFFFFFFFFFFFFFF AND MUL OR SWAP1 SSTORE POP POP POP JUMP JUMPDEST PUSH1 0x60 PUSH1 0x0 DUP1 SLOAD DUP1 PUSH1 0x20 MUL PUSH1 0x20 ADD PUSH1 0x40 MLOAD SWAP1 DUP2 ADD PUSH1 0x40 MSTORE DUP1 SWAP3 SWAP2 SWAP1 DUP2 DUP2 MSTORE PUSH1 0x20 ADD DUP3 DUP1 SLOAD DUP1 ISZERO PUSH2 0x1D5 JUMPI PUSH1 0x20 MUL DUP3 ADD SWAP2 SWAP1 PUSH1 0x0 MSTORE PUSH1 0x20 PUSH1 0x0 KECCAK256 SWAP1 JUMPDEST DUP2 PUSH1 0x0 SWAP1 SLOAD SWAP1 PUSH2 0x100 EXP SWAP1 DIV PUSH20 0xFFFFFFFFFFFFFFFFFFFFFFFFFFFFFFFFFFFFFFFF AND PUSH20 0xFFFFFFFFFFFFFFFFFFFFFFFFFFFFFFFFFFFFFFFF AND DUP2 MSTORE PUSH1 0x20 ADD SWAP1 PUSH1 0x1 ADD SWAP1 DUP1 DUP4 GT PUSH2 0x18B JUMPI JUMPDEST POP POP POP POP POP SWAP1 POP SWAP1 JUMP JUMPDEST PUSH1 0x0 DUP2 DUP2 SLOAD DUP2 LT PUSH2 0x1EF JUMPI PUSH1 0x0 DUP1 REVERT JUMPDEST SWAP1 PUSH1 0x0 MSTORE PUSH1 0x20 PUSH1 0x0 KECCAK256 ADD PUSH1 0x0 SWAP2 POP SLOAD SWAP1 PUSH2 0x100 EXP SWAP1 DIV PUSH20 0xFFFFFFFFFFFFFFFFFFFFFFFFFFFFFFFFFFFFFFFF AND DUP2 JUMP JUMPDEST PUSH2 0x127F DUP1 PUSH2 0x408 DUP4 CODECOPY ADD SWAP1 JUMP JUMPDEST PUSH1 0x0 DUP1 REVERT JUMPDEST PUSH1 0x0 DUP2 SWAP1 POP SWAP2 SWAP1 POP JUMP JUMPDEST PUSH2 0x243 DUP2 PUSH2 0x230 JUMP JUMPDEST DUP2 EQ PUSH2 0x24E JUMPI PUSH1 0x0 DUP1 REVERT JUMPDEST POP JUMP JUMPDEST PUSH1 0x0 DUP2 CALLDATALOAD SWAP1 POP PUSH2 0x260 DUP2 PUSH2 0x23A JUMP JUMPDEST SWAP3 SWAP2 POP POP JUMP JUMPDEST PUSH1 0x0 PUSH1 0x20 DUP3 DUP5 SUB SLT ISZERO PUSH2 0x27C JUMPI PUSH2 0x27B PUSH2 0x22B JUMP JUMPDEST JUMPDEST PUSH1 0x0 PUSH2 0x28A DUP5 DUP3 DUP6 ADD PUSH2 0x251 JUMP JUMPDEST SWAP2 POP POP SWAP3 SWAP2 POP POP JUMP JUMPDEST PUSH1 0x0 DUP2 MLOAD SWAP1 POP SWAP2 SWAP1 POP JUMP JUMPDEST PUSH1 0x0 DUP3 DUP3 MSTORE PUSH1 0x20 DUP3 ADD SWAP1 POP SWAP3 SWAP2 POP POP JUMP JUMPDEST PUSH1 0x0 DUP2 SWAP1 POP PUSH1 0x20 DUP3 ADD SWAP1 POP SWAP2 SWAP1 POP JUMP JUMPDEST PUSH1 0x0 PUSH20 0xFFFFFFFFFFFFFFFFFFFFFFFFFFFFFFFFFFFFFFFF DUP3 AND SWAP1 POP SWAP2 SWAP1 POP JUMP JUMPDEST PUSH1 0x0 PUSH2 0x2EA DUP3 PUSH2 0x2BF JUMP JUMPDEST SWAP1 POP SWAP2 SWAP1 POP JUMP JUMPDEST PUSH2 0x2FA DUP2 PUSH2 0x2DF JUMP JUMPDEST DUP3 MSTORE POP POP JUMP JUMPDEST PUSH1 0x0 PUSH2 0x30C DUP4 DUP4 PUSH2 0x2F1 JUMP JUMPDEST PUSH1 0x20 DUP4 ADD SWAP1 POP SWAP3 SWAP2 POP POP JUMP JUMPDEST PUSH1 0x0 PUSH1 0x20 DUP3 ADD SWAP1 POP SWAP2 SWAP1 POP JUMP JUMPDEST PUSH1 0x0 PUSH2 0x330 DUP3 PUSH2 0x293 JUMP JUMPDEST PUSH2 0x33A DUP2 DUP6 PUSH2 0x29E JUMP JUMPDEST SWAP4 POP PUSH2 0x345 DUP4 PUSH2 0x2AF JUMP JUMPDEST DUP1 PUSH1 0x0 JUMPDEST DUP4 DUP2 LT ISZERO PUSH2 0x376 JUMPI DUP2 MLOAD PUSH2 0x35D DUP9 DUP3 PUSH2 0x300 JUMP JUMPDEST SWAP8 POP PUSH2 0x368 DUP4 PUSH2 0x318 JUMP JUMPDEST SWAP3 POP POP PUSH1 0x1 DUP2 ADD SWAP1 POP PUSH2 0x349 JUMP JUMPDEST POP DUP6 SWAP4 POP POP POP POP SWAP3 SWAP2 POP POP JUMP JUMPDEST PUSH1 0x0 PUSH1 0x20 DUP3 ADD SWAP1 POP DUP2 DUP2 SUB PUSH1 0x0 DUP4 ADD MSTORE PUSH2 0x39D DUP2 DUP5 PUSH2 0x325 JUMP JUMPDEST SWAP1 POP SWAP3 SWAP2 POP POP JUMP JUMPDEST PUSH2 0x3AE DUP2 PUSH2 0x2DF JUMP JUMPDEST DUP3 MSTORE POP POP JUMP JUMPDEST PUSH1 0x0 PUSH1 0x20 DUP3 ADD SWAP1 POP PUSH2 0x3C9 PUSH1 0x0 DUP4 ADD DUP5 PUSH2 0x3A5 JUMP JUMPDEST SWAP3 SWAP2 POP POP JUMP JUMPDEST PUSH2 0x3D8 DUP2 PUSH2 0x230 JUMP JUMPDEST DUP3 MSTORE POP POP JUMP JUMPDEST PUSH1 0x0 PUSH1 0x40 DUP3 ADD SWAP1 POP PUSH2 0x3F3 PUSH1 0x0 DUP4 ADD DUP6 PUSH2 0x3CF JUMP JUMPDEST PUSH2 0x400 PUSH1 0x20 DUP4 ADD DUP5 PUSH2 0x3A5 JUMP JUMPDEST SWAP4 SWAP3 POP POP POP JUMP INVALID PUSH1 0x80 PUSH1 0x40 MSTORE CALLVALUE DUP1 ISZERO PUSH3 0x11 JUMPI PUSH1 0x0 DUP1 REVERT JUMPDEST POP PUSH1 0x40 MLOAD PUSH3 0x127F CODESIZE SUB DUP1 PUSH3 0x127F DUP4 CODECOPY DUP2 DUP2 ADD PUSH1 0x40 MSTORE DUP2 ADD SWAP1 PUSH3 0x37 SWAP2 SWAP1 PUSH3 0x12B JUMP JUMPDEST DUP1 PUSH1 0x0 DUP1 PUSH2 0x100 EXP DUP2 SLOAD DUP2 PUSH20 0xFFFFFFFFFFFFFFFFFFFFFFFFFFFFFFFFFFFFFFFF MUL NOT AND SWAP1 DUP4 PUSH20 0xFFFFFFFFFFFFFFFFFFFFFFFFFFFFFFFFFFFFFFFF AND MUL OR SWAP1 SSTORE POP DUP2 PUSH1 0x1 DUP2 SWAP1 SSTORE POP POP POP PUSH3 0x172 JUMP JUMPDEST PUSH1 0x0 DUP1 REVERT JUMPDEST PUSH1 0x0 DUP2 SWAP1 POP SWAP2 SWAP1 POP JUMP JUMPDEST PUSH3 0xA0 DUP2 PUSH3 0x8B JUMP JUMPDEST DUP2 EQ PUSH3 0xAC JUMPI PUSH1 0x0 DUP1 REVERT JUMPDEST POP JUMP JUMPDEST PUSH1 0x0 DUP2 MLOAD SWAP1 POP PUSH3 0xC0 DUP2 PUSH3 0x95 JUMP JUMPDEST SWAP3 SWAP2 POP POP JUMP JUMPDEST PUSH1 0x0 PUSH20 0xFFFFFFFFFFFFFFFFFFFFFFFFFFFFFFFFFFFFFFFF DUP3 AND SWAP1 POP SWAP2 SWAP1 POP JUMP JUMPDEST PUSH1 0x0 PUSH3 0xF3 DUP3 PUSH3 0xC6 JUMP JUMPDEST SWAP1 POP SWAP2 SWAP1 POP JUMP JUMPDEST PUSH3 0x105 DUP2 PUSH3 0xE6 JUMP JUMPDEST DUP2 EQ PUSH3 0x111 JUMPI PUSH1 0x0 DUP1 REVERT JUMPDEST POP JUMP JUMPDEST PUSH1 0x0 DUP2 MLOAD SWAP1 POP PUSH3 0x125 DUP2 PUSH3 0xFA JUMP JUMPDEST SWAP3 SWAP2 POP POP JUMP JUMPDEST PUSH1 0x0 DUP1 PUSH1 0x40 DUP4 DUP6 SUB SLT ISZERO PUSH3 0x145 JUMPI PUSH3 0x144 PUSH3 0x86 JUMP JUMPDEST JUMPDEST PUSH1 0x0 PUSH3 0x155 DUP6 DUP3 DUP7 ADD PUSH3 0xAF JUMP JUMPDEST SWAP3 POP POP PUSH1 0x20 PUSH3 0x168 DUP6 DUP3 DUP7 ADD PUSH3 0x114 JUMP JUMPDEST SWAP2 POP POP SWAP3 POP SWAP3 SWAP1 POP JUMP JUMPDEST PUSH2 0x10FD DUP1 PUSH3 0x182 PUSH1 0x0 CODECOPY PUSH1 0x0 RETURN INVALID PUSH1 0x80 PUSH1 0x40 MSTORE PUSH1 0x4 CALLDATASIZE LT PUSH2 0x86 JUMPI PUSH1 0x0 CALLDATALOAD PUSH1 0xE0 SHR DUP1 PUSH4 0x81D12C58 GT PUSH2 0x59 JUMPI DUP1 PUSH4 0x81D12C58 EQ PUSH2 0x147 JUMPI DUP1 PUSH4 0xB3468311 EQ PUSH2 0x188 JUMPI DUP1 PUSH4 0xC799A6BF EQ PUSH2 0x1B1 JUMPI DUP1 PUSH4 0xC7B23105 EQ PUSH2 0x1DA JUMPI DUP1 PUSH4 0xD7BB99BA EQ PUSH2 0x205 JUMPI PUSH2 0x86 JUMP JUMPDEST DUP1 PUSH4 0xC99D130 EQ PUSH2 0x8B JUMPI DUP1 PUSH4 0x1F6D4942 EQ PUSH2 0xB4 JUMPI DUP1 PUSH4 0x481C6A75 EQ PUSH2 0xF1 JUMPI DUP1 PUSH4 0x80E52D68 EQ PUSH2 0x11C JUMPI JUMPDEST PUSH1 0x0 DUP1 REVERT JUMPDEST CALLVALUE DUP1 ISZERO PUSH2 0x97 JUMPI PUSH1 0x0 DUP1 REVERT JUMPDEST POP PUSH2 0xB2 PUSH1 0x4 DUP1 CALLDATASIZE SUB DUP2 ADD SWAP1 PUSH2 0xAD SWAP2 SWAP1 PUSH2 0x8DB JUMP JUMPDEST PUSH2 0x20F JUMP JUMPDEST STOP JUMPDEST CALLVALUE DUP1 ISZERO PUSH2 0xC0 JUMPI PUSH1 0x0 DUP1 REVERT JUMPDEST POP PUSH2 0xDB PUSH1 0x4 DUP1 CALLDATASIZE SUB DUP2 ADD SWAP1 PUSH2 0xD6 SWAP2 SWAP1 PUSH2 0x966 JUMP JUMPDEST PUSH2 0x39C JUMP JUMPDEST PUSH1 0x40 MLOAD PUSH2 0xE8 SWAP2 SWAP1 PUSH2 0x9AE JUMP JUMPDEST PUSH1 0x40 MLOAD DUP1 SWAP2 SUB SWAP1 RETURN JUMPDEST CALLVALUE DUP1 ISZERO PUSH2 0xFD JUMPI PUSH1 0x0 DUP1 REVERT JUMPDEST POP PUSH2 0x106 PUSH2 0x3BC JUMP JUMPDEST PUSH1 0x40 MLOAD PUSH2 0x113 SWAP2 SWAP1 PUSH2 0x9D8 JUMP JUMPDEST PUSH1 0x40 MLOAD DUP1 SWAP2 SUB SWAP1 RETURN JUMPDEST CALLVALUE DUP1 ISZERO PUSH2 0x128 JUMPI PUSH1 0x0 DUP1 REVERT JUMPDEST POP PUSH2 0x131 PUSH2 0x3E0 JUMP JUMPDEST PUSH1 0x40 MLOAD PUSH2 0x13E SWAP2 SWAP1 PUSH2 0xA02 JUMP JUMPDEST PUSH1 0x40 MLOAD DUP1 SWAP2 SUB SWAP1 RETURN JUMPDEST CALLVALUE DUP1 ISZERO PUSH2 0x153 JUMPI PUSH1 0x0 DUP1 REVERT JUMPDEST POP PUSH2 0x16E PUSH1 0x4 DUP1 CALLDATASIZE SUB DUP2 ADD SWAP1 PUSH2 0x169 SWAP2 SWAP1 PUSH2 0x8DB JUMP JUMPDEST PUSH2 0x3E6 JUMP JUMPDEST PUSH1 0x40 MLOAD PUSH2 0x17F SWAP6 SWAP5 SWAP4 SWAP3 SWAP2 SWAP1 PUSH2 0xAB6 JUMP JUMPDEST PUSH1 0x40 MLOAD DUP1 SWAP2 SUB SWAP1 RETURN JUMPDEST CALLVALUE DUP1 ISZERO PUSH2 0x194 JUMPI PUSH1 0x0 DUP1 REVERT JUMPDEST POP PUSH2 0x1AF PUSH1 0x4 DUP1 CALLDATASIZE SUB DUP2 ADD SWAP1 PUSH2 0x1AA SWAP2 SWAP1 PUSH2 0xC45 JUMP JUMPDEST PUSH2 0x4E1 JUMP JUMPDEST STOP JUMPDEST CALLVALUE DUP1 ISZERO PUSH2 0x1BD JUMPI PUSH1 0x0 DUP1 REVERT JUMPDEST POP PUSH2 0x1D8 PUSH1 0x4 DUP1 CALLDATASIZE SUB DUP2 ADD SWAP1 PUSH2 0x1D3 SWAP2 SWAP1 PUSH2 0x8DB JUMP JUMPDEST PUSH2 0x5E8 JUMP JUMPDEST STOP JUMPDEST CALLVALUE DUP1 ISZERO PUSH2 0x1E6 JUMPI PUSH1 0x0 DUP1 REVERT JUMPDEST POP PUSH2 0x1EF PUSH2 0x7B4 JUMP JUMPDEST PUSH1 0x40 MLOAD PUSH2 0x1FC SWAP2 SWAP1 PUSH2 0xA02 JUMP JUMPDEST PUSH1 0x40 MLOAD DUP1 SWAP2 SUB SWAP1 RETURN JUMPDEST PUSH2 0x20D PUSH2 0x7BA JUMP JUMPDEST STOP JUMPDEST PUSH1 0x2 PUSH1 0x0 CALLER PUSH20 0xFFFFFFFFFFFFFFFFFFFFFFFFFFFFFFFFFFFFFFFF AND PUSH20 0xFFFFFFFFFFFFFFFFFFFFFFFFFFFFFFFFFFFFFFFF AND DUP2 MSTORE PUSH1 0x20 ADD SWAP1 DUP2 MSTORE PUSH1 0x20 ADD PUSH1 0x0 KECCAK256 PUSH1 0x0 SWAP1 SLOAD SWAP1 PUSH2 0x100 EXP SWAP1 DIV PUSH1 0xFF AND PUSH2 0x269 JUMPI PUSH2 0x268 PUSH2 0xCB4 JUMP JUMPDEST JUMPDEST PUSH1 0x4 DUP2 DUP2 SLOAD DUP2 LT PUSH2 0x27D JUMPI PUSH2 0x27C PUSH2 0xCE3 JUMP JUMPDEST JUMPDEST SWAP1 PUSH1 0x0 MSTORE PUSH1 0x20 PUSH1 0x0 KECCAK256 SWAP1 PUSH1 0x5 MUL ADD PUSH1 0x3 ADD PUSH1 0x0 CALLER PUSH20 0xFFFFFFFFFFFFFFFFFFFFFFFFFFFFFFFFFFFFFFFF AND PUSH20 0xFFFFFFFFFFFFFFFFFFFFFFFFFFFFFFFFFFFFFFFF AND DUP2 MSTORE PUSH1 0x20 ADD SWAP1 DUP2 MSTORE PUSH1 0x20 ADD PUSH1 0x0 KECCAK256 PUSH1 0x0 SWAP1 SLOAD SWAP1 PUSH2 0x100 EXP SWAP1 DIV PUSH1 0xFF AND ISZERO PUSH2 0x2E3 JUMPI PUSH1 0x0 DUP1 REVERT JUMPDEST PUSH1 0x1 PUSH1 0x4 DUP3 DUP2 SLOAD DUP2 LT PUSH2 0x2F9 JUMPI PUSH2 0x2F8 PUSH2 0xCE3 JUMP JUMPDEST JUMPDEST SWAP1 PUSH1 0x0 MSTORE PUSH1 0x20 PUSH1 0x0 KECCAK256 SWAP1 PUSH1 0x5 MUL ADD PUSH1 0x3 ADD PUSH1 0x0 CALLER PUSH20 0xFFFFFFFFFFFFFFFFFFFFFFFFFFFFFFFFFFFFFFFF AND PUSH20 0xFFFFFFFFFFFFFFFFFFFFFFFFFFFFFFFFFFFFFFFF AND DUP2 MSTORE PUSH1 0x20 ADD SWAP1 DUP2 MSTORE PUSH1 0x20 ADD PUSH1 0x0 KECCAK256 PUSH1 0x0 PUSH2 0x100 EXP DUP2 SLOAD DUP2 PUSH1 0xFF MUL NOT AND SWAP1 DUP4 ISZERO ISZERO MUL OR SWAP1 SSTORE POP PUSH1 0x4 DUP2 DUP2 SLOAD DUP2 LT PUSH2 0x372 JUMPI PUSH2 0x371 PUSH2 0xCE3 JUMP JUMPDEST JUMPDEST SWAP1 PUSH1 0x0 MSTORE PUSH1 0x20 PUSH1 0x0 KECCAK256 SWAP1 PUSH1 0x5 MUL ADD PUSH1 0x4 ADD PUSH1 0x0 DUP2 SLOAD DUP1 SWAP3 SWAP2 SWAP1 PUSH2 0x394 SWAP1 PUSH2 0xD41 JUMP JUMPDEST SWAP2 SWAP1 POP SSTORE POP POP JUMP JUMPDEST PUSH1 0x2 PUSH1 0x20 MSTORE DUP1 PUSH1 0x0 MSTORE PUSH1 0x40 PUSH1 0x0 KECCAK256 PUSH1 0x0 SWAP2 POP SLOAD SWAP1 PUSH2 0x100 EXP SWAP1 DIV PUSH1 0xFF AND DUP2 JUMP JUMPDEST PUSH1 0x0 DUP1 SLOAD SWAP1 PUSH2 0x100 EXP SWAP1 DIV PUSH20 0xFFFFFFFFFFFFFFFFFFFFFFFFFFFFFFFFFFFFFFFF AND DUP2 JUMP JUMPDEST PUSH1 0x1 SLOAD DUP2 JUMP JUMPDEST PUSH1 0x4 DUP2 DUP2 SLOAD DUP2 LT PUSH2 0x3F6 JUMPI PUSH1 0x0 DUP1 REVERT JUMPDEST SWAP1 PUSH1 0x0 MSTORE PUSH1 0x20 PUSH1 0x0 KECCAK256 SWAP1 PUSH1 0x5 MUL ADD PUSH1 0x0 SWAP2 POP SWAP1 POP DUP1 PUSH1 0x0 ADD DUP1 SLOAD PUSH2 0x419 SWAP1 PUSH2 0xDB8 JUMP JUMPDEST DUP1 PUSH1 0x1F ADD PUSH1 0x20 DUP1 SWAP2 DIV MUL PUSH1 0x20 ADD PUSH1 0x40 MLOAD SWAP1 DUP2 ADD PUSH1 0x40 MSTORE DUP1 SWAP3 SWAP2 SWAP1 DUP2 DUP2 MSTORE PUSH1 0x20 ADD DUP3 DUP1 SLOAD PUSH2 0x445 SWAP1 PUSH2 0xDB8 JUMP JUMPDEST DUP1 ISZERO PUSH2 0x492 JUMPI DUP1 PUSH1 0x1F LT PUSH2 0x467 JUMPI PUSH2 0x100 DUP1 DUP4 SLOAD DIV MUL DUP4 MSTORE SWAP2 PUSH1 0x20 ADD SWAP2 PUSH2 0x492 JUMP JUMPDEST DUP3 ADD SWAP2 SWAP1 PUSH1 0x0 MSTORE PUSH1 0x20 PUSH1 0x0 KECCAK256 SWAP1 JUMPDEST DUP2 SLOAD DUP2 MSTORE SWAP1 PUSH1 0x1 ADD SWAP1 PUSH1 0x20 ADD DUP1 DUP4 GT PUSH2 0x475 JUMPI DUP3 SWAP1 SUB PUSH1 0x1F AND DUP3 ADD SWAP2 JUMPDEST POP POP POP POP POP SWAP1 DUP1 PUSH1 0x1 ADD SLOAD SWAP1 DUP1 PUSH1 0x2 ADD PUSH1 0x0 SWAP1 SLOAD SWAP1 PUSH2 0x100 EXP SWAP1 DIV PUSH20 0xFFFFFFFFFFFFFFFFFFFFFFFFFFFFFFFFFFFFFFFF AND SWAP1 DUP1 PUSH1 0x2 ADD PUSH1 0x14 SWAP1 SLOAD SWAP1 PUSH2 0x100 EXP SWAP1 DIV PUSH1 0xFF AND SWAP1 DUP1 PUSH1 0x4 ADD SLOAD SWAP1 POP DUP6 JUMP JUMPDEST PUSH1 0x0 DUP1 SLOAD SWAP1 PUSH2 0x100 EXP SWAP1 DIV PUSH20 0xFFFFFFFFFFFFFFFFFFFFFFFFFFFFFFFFFFFFFFFF AND PUSH20 0xFFFFFFFFFFFFFFFFFFFFFFFFFFFFFFFFFFFFFFFF AND CALLER PUSH20 0xFFFFFFFFFFFFFFFFFFFFFFFFFFFFFFFFFFFFFFFF AND EQ PUSH2 0x539 JUMPI PUSH1 0x0 DUP1 REVERT JUMPDEST PUSH1 0x0 PUSH1 0x4 PUSH1 0x1 DUP2 PUSH1 0x1 DUP2 SLOAD ADD DUP1 DUP3 SSTORE DUP1 SWAP2 POP POP SUB SWAP1 PUSH1 0x0 MSTORE PUSH1 0x20 PUSH1 0x0 KECCAK256 SWAP1 PUSH1 0x5 MUL ADD SWAP1 POP DUP4 DUP2 PUSH1 0x0 ADD SWAP1 DUP2 PUSH2 0x56E SWAP2 SWAP1 PUSH2 0xF95 JUMP JUMPDEST POP DUP3 DUP2 PUSH1 0x1 ADD DUP2 SWAP1 SSTORE POP DUP2 DUP2 PUSH1 0x2 ADD PUSH1 0x0 PUSH2 0x100 EXP DUP2 SLOAD DUP2 PUSH20 0xFFFFFFFFFFFFFFFFFFFFFFFFFFFFFFFFFFFFFFFF MUL NOT AND SWAP1 DUP4 PUSH20 0xFFFFFFFFFFFFFFFFFFFFFFFFFFFFFFFFFFFFFFFF AND MUL OR SWAP1 SSTORE POP PUSH1 0x0 DUP2 PUSH1 0x2 ADD PUSH1 0x14 PUSH2 0x100 EXP DUP2 SLOAD DUP2 PUSH1 0xFF MUL NOT AND SWAP1 DUP4 ISZERO ISZERO MUL OR SWAP1 SSTORE POP PUSH1 0x0 DUP2 PUSH1 0x4 ADD DUP2 SWAP1 SSTORE POP POP POP POP POP JUMP JUMPDEST PUSH1 0x0 DUP1 SLOAD SWAP1 PUSH2 0x100 EXP SWAP1 DIV PUSH20 0xFFFFFFFFFFFFFFFFFFFFFFFFFFFFFFFFFFFFFFFF AND PUSH20 0xFFFFFFFFFFFFFFFFFFFFFFFFFFFFFFFFFFFFFFFF AND CALLER PUSH20 0xFFFFFFFFFFFFFFFFFFFFFFFFFFFFFFFFFFFFFFFF AND EQ PUSH2 0x640 JUMPI PUSH1 0x0 DUP1 REVERT JUMPDEST PUSH1 0x4 DUP2 DUP2 SLOAD DUP2 LT PUSH2 0x654 JUMPI PUSH2 0x653 PUSH2 0xCE3 JUMP JUMPDEST JUMPDEST SWAP1 PUSH1 0x0 MSTORE PUSH1 0x20 PUSH1 0x0 KECCAK256 SWAP1 PUSH1 0x5 MUL ADD PUSH1 0x2 ADD PUSH1 0x14 SWAP1 SLOAD SWAP1 PUSH2 0x100 EXP SWAP1 DIV PUSH1 0xFF AND ISZERO PUSH2 0x67D JUMPI PUSH1 0x0 DUP1 REVERT JUMPDEST PUSH1 0x2 PUSH1 0x3 SLOAD PUSH2 0x68C SWAP2 SWAP1 PUSH2 0x1096 JUMP JUMPDEST PUSH1 0x4 DUP3 DUP2 SLOAD DUP2 LT PUSH2 0x6A0 JUMPI PUSH2 0x69F PUSH2 0xCE3 JUMP JUMPDEST JUMPDEST SWAP1 PUSH1 0x0 MSTORE PUSH1 0x20 PUSH1 0x0 KECCAK256 SWAP1 PUSH1 0x5 MUL ADD PUSH1 0x4 ADD SLOAD GT PUSH2 0x6BC JUMPI PUSH1 0x0 DUP1 REVERT JUMPDEST PUSH1 0x1 PUSH1 0x4 DUP3 DUP2 SLOAD DUP2 LT PUSH2 0x6D2 JUMPI PUSH2 0x6D1 PUSH2 0xCE3 JUMP JUMPDEST JUMPDEST SWAP1 PUSH1 0x0 MSTORE PUSH1 0x20 PUSH1 0x0 KECCAK256 SWAP1 PUSH1 0x5 MUL ADD PUSH1 0x2 ADD PUSH1 0x14 PUSH2 0x100 EXP DUP2 SLOAD DUP2 PUSH1 0xFF MUL NOT AND SWAP1 DUP4 ISZERO ISZERO MUL OR SWAP1 SSTORE POP PUSH1 0x0 PUSH1 0x4 DUP3 DUP2 SLOAD DUP2 LT PUSH2 0x710 JUMPI PUSH2 0x70F PUSH2 0xCE3 JUMP JUMPDEST JUMPDEST SWAP1 PUSH1 0x0 MSTORE PUSH1 0x20 PUSH1 0x0 KECCAK256 SWAP1 PUSH1 0x5 MUL ADD PUSH1 0x2 ADD PUSH1 0x0 SWAP1 SLOAD SWAP1 PUSH2 0x100 EXP SWAP1 DIV PUSH20 0xFFFFFFFFFFFFFFFFFFFFFFFFFFFFFFFFFFFFFFFF AND SWAP1 POP DUP1 PUSH20 0xFFFFFFFFFFFFFFFFFFFFFFFFFFFFFFFFFFFFFFFF AND PUSH2 0x8FC PUSH1 0x4 DUP5 DUP2 SLOAD DUP2 LT PUSH2 0x772 JUMPI PUSH2 0x771 PUSH2 0xCE3 JUMP JUMPDEST JUMPDEST SWAP1 PUSH1 0x0 MSTORE PUSH1 0x20 PUSH1 0x0 KECCAK256 SWAP1 PUSH1 0x5 MUL ADD PUSH1 0x1 ADD SLOAD SWAP1 DUP2 ISZERO MUL SWAP1 PUSH1 0x40 MLOAD PUSH1 0x0 PUSH1 0x40 MLOAD DUP1 DUP4 SUB DUP2 DUP6 DUP9 DUP9 CALL SWAP4 POP POP POP POP ISZERO DUP1 ISZERO PUSH2 0x7AF JUMPI RETURNDATASIZE PUSH1 0x0 DUP1 RETURNDATACOPY RETURNDATASIZE PUSH1 0x0 REVERT JUMPDEST POP POP POP JUMP JUMPDEST PUSH1 0x3 SLOAD DUP2 JUMP JUMPDEST PUSH1 0x1 SLOAD CALLVALUE GT PUSH2 0x7C8 JUMPI PUSH1 0x0 DUP1 REVERT JUMPDEST PUSH1 0x2 PUSH1 0x0 CALLER PUSH20 0xFFFFFFFFFFFFFFFFFFFFFFFFFFFFFFFFFFFFFFFF AND PUSH20 0xFFFFFFFFFFFFFFFFFFFFFFFFFFFFFFFFFFFFFFFF AND DUP2 MSTORE PUSH1 0x20 ADD SWAP1 DUP2 MSTORE PUSH1 0x20 ADD PUSH1 0x0 KECCAK256 PUSH1 0x0 SWAP1 SLOAD SWAP1 PUSH2 0x100 EXP SWAP1 DIV PUSH1 0xFF AND ISZERO PUSH2 0x81F JUMPI PUSH1 0x0 DUP1 REVERT JUMPDEST PUSH1 0x1 PUSH1 0x2 PUSH1 0x0 CALLER PUSH20 0xFFFFFFFFFFFFFFFFFFFFFFFFFFFFFFFFFFFFFFFF AND PUSH20 0xFFFFFFFFFFFFFFFFFFFFFFFFFFFFFFFFFFFFFFFF AND DUP2 MSTORE PUSH1 0x20 ADD SWAP1 DUP2 MSTORE PUSH1 0x20 ADD PUSH1 0x0 KECCAK256 PUSH1 0x0 PUSH2 0x100 EXP DUP2 SLOAD DUP2 PUSH1 0xFF MUL NOT AND SWAP1 DUP4 ISZERO ISZERO MUL OR SWAP1 SSTORE POP PUSH1 0x3 PUSH1 0x0 DUP2 SLOAD DUP1 SWAP3 SWAP2 SWAP1 PUSH2 0x88A SWAP1 PUSH2 0xD41 JUMP JUMPDEST SWAP2 SWAP1 POP SSTORE POP JUMP JUMPDEST PUSH1 0x0 PUSH1 0x40 MLOAD SWAP1 POP SWAP1 JUMP JUMPDEST PUSH1 0x0 DUP1 REVERT JUMPDEST PUSH1 0x0 DUP1 REVERT JUMPDEST PUSH1 0x0 DUP2 SWAP1 POP SWAP2 SWAP1 POP JUMP JUMPDEST PUSH2 0x8B8 DUP2 PUSH2 0x8A5 JUMP JUMPDEST DUP2 EQ PUSH2 0x8C3 JUMPI PUSH1 0x0 DUP1 REVERT JUMPDEST POP JUMP JUMPDEST PUSH1 0x0 DUP2 CALLDATALOAD SWAP1 POP PUSH2 0x8D5 DUP2 PUSH2 0x8AF JUMP JUMPDEST SWAP3 SWAP2 POP POP JUMP JUMPDEST PUSH1 0x0 PUSH1 0x20 DUP3 DUP5 SUB SLT ISZERO PUSH2 0x8F1 JUMPI PUSH2 0x8F0 PUSH2 0x89B JUMP JUMPDEST JUMPDEST PUSH1 0x0 PUSH2 0x8FF DUP5 DUP3 DUP6 ADD PUSH2 0x8C6 JUMP JUMPDEST SWAP2 POP POP SWAP3 SWAP2 POP POP JUMP JUMPDEST PUSH1 0x0 PUSH20 0xFFFFFFFFFFFFFFFFFFFFFFFFFFFFFFFFFFFFFFFF DUP3 AND SWAP1 POP SWAP2 SWAP1 POP JUMP JUMPDEST PUSH1 0x0 PUSH2 0x933 DUP3 PUSH2 0x908 JUMP JUMPDEST SWAP1 POP SWAP2 SWAP1 POP JUMP JUMPDEST PUSH2 0x943 DUP2 PUSH2 0x928 JUMP JUMPDEST DUP2 EQ PUSH2 0x94E JUMPI PUSH1 0x0 DUP1 REVERT JUMPDEST POP JUMP JUMPDEST PUSH1 0x0 DUP2 CALLDATALOAD SWAP1 POP PUSH2 0x960 DUP2 PUSH2 0x93A JUMP JUMPDEST SWAP3 SWAP2 POP POP JUMP JUMPDEST PUSH1 0x0 PUSH1 0x20 DUP3 DUP5 SUB SLT ISZERO PUSH2 0x97C JUMPI PUSH2 0x97B PUSH2 0x89B JUMP JUMPDEST JUMPDEST PUSH1 0x0 PUSH2 0x98A DUP5 DUP3 DUP6 ADD PUSH2 0x951 JUMP JUMPDEST SWAP2 POP POP SWAP3 SWAP2 POP POP JUMP JUMPDEST PUSH1 0x0 DUP2 ISZERO ISZERO SWAP1 POP SWAP2 SWAP1 POP JUMP JUMPDEST PUSH2 0x9A8 DUP2 PUSH2 0x993 JUMP JUMPDEST DUP3 MSTORE POP POP JUMP JUMPDEST PUSH1 0x0 PUSH1 0x20 DUP3 ADD SWAP1 POP PUSH2 0x9C3 PUSH1 0x0 DUP4 ADD DUP5 PUSH2 0x99F JUMP JUMPDEST SWAP3 SWAP2 POP POP JUMP JUMPDEST PUSH2 0x9D2 DUP2 PUSH2 0x928 JUMP JUMPDEST DUP3 MSTORE POP POP JUMP JUMPDEST PUSH1 0x0 PUSH1 0x20 DUP3 ADD SWAP1 POP PUSH2 0x9ED PUSH1 0x0 DUP4 ADD DUP5 PUSH2 0x9C9 JUMP JUMPDEST SWAP3 SWAP2 POP POP JUMP JUMPDEST PUSH2 0x9FC DUP2 PUSH2 0x8A5 JUMP JUMPDEST DUP3 MSTORE POP POP JUMP JUMPDEST PUSH1 0x0 PUSH1 0x20 DUP3 ADD SWAP1 POP PUSH2 0xA17 PUSH1 0x0 DUP4 ADD DUP5 PUSH2 0x9F3 JUMP JUMPDEST SWAP3 SWAP2 POP POP JUMP JUMPDEST PUSH1 0x0 DUP2 MLOAD SWAP1 POP SWAP2 SWAP1 POP JUMP JUMPDEST PUSH1 0x0 DUP3 DUP3 MSTORE PUSH1 0x20 DUP3 ADD SWAP1 POP SWAP3 SWAP2 POP POP JUMP JUMPDEST PUSH1 0x0 JUMPDEST DUP4 DUP2 LT ISZERO PUSH2 0xA57 JUMPI DUP1 DUP3 ADD MLOAD DUP2 DUP5 ADD MSTORE PUSH1 0x20 DUP2 ADD SWAP1 POP PUSH2 0xA3C JUMP JUMPDEST DUP4 DUP2 GT ISZERO PUSH2 0xA66 JUMPI PUSH1 0x0 DUP5 DUP5 ADD MSTORE JUMPDEST POP POP POP POP JUMP JUMPDEST PUSH1 0x0 PUSH1 0x1F NOT PUSH1 0x1F DUP4 ADD AND SWAP1 POP SWAP2 SWAP1 POP JUMP JUMPDEST PUSH1 0x0 PUSH2 0xA88 DUP3 PUSH2 0xA1D JUMP JUMPDEST PUSH2 0xA92 DUP2 DUP6 PUSH2 0xA28 JUMP JUMPDEST SWAP4 POP PUSH2 0xAA2 DUP2 DUP6 PUSH1 0x20 DUP7 ADD PUSH2 0xA39 JUMP JUMPDEST PUSH2 0xAAB DUP2 PUSH2 0xA6C JUMP JUMPDEST DUP5 ADD SWAP2 POP POP SWAP3 SWAP2 POP POP JUMP JUMPDEST PUSH1 0x0 PUSH1 0xA0 DUP3 ADD SWAP1 POP DUP2 DUP2 SUB PUSH1 0x0 DUP4 ADD MSTORE PUSH2 0xAD0 DUP2 DUP9 PUSH2 0xA7D JUMP JUMPDEST SWAP1 POP PUSH2 0xADF PUSH1 0x20 DUP4 ADD DUP8 PUSH2 0x9F3 JUMP JUMPDEST PUSH2 0xAEC PUSH1 0x40 DUP4 ADD DUP7 PUSH2 0x9C9 JUMP JUMPDEST PUSH2 0xAF9 PUSH1 0x60 DUP4 ADD DUP6 PUSH2 0x99F JUMP JUMPDEST PUSH2 0xB06 PUSH1 0x80 DUP4 ADD DUP5 PUSH2 0x9F3 JUMP JUMPDEST SWAP7 SWAP6 POP POP POP POP POP POP JUMP JUMPDEST PUSH1 0x0 DUP1 REVERT JUMPDEST PUSH1 0x0 DUP1 REVERT JUMPDEST PUSH32 0x4E487B7100000000000000000000000000000000000000000000000000000000 PUSH1 0x0 MSTORE PUSH1 0x41 PUSH1 0x4 MSTORE PUSH1 0x24 PUSH1 0x0 REVERT JUMPDEST PUSH2 0xB52 DUP3 PUSH2 0xA6C JUMP JUMPDEST DUP2 ADD DUP2 DUP2 LT PUSH8 0xFFFFFFFFFFFFFFFF DUP3 GT OR ISZERO PUSH2 0xB71 JUMPI PUSH2 0xB70 PUSH2 0xB1A JUMP JUMPDEST JUMPDEST DUP1 PUSH1 0x40 MSTORE POP POP POP JUMP JUMPDEST PUSH1 0x0 PUSH2 0xB84 PUSH2 0x891 JUMP JUMPDEST SWAP1 POP PUSH2 0xB90 DUP3 DUP3 PUSH2 0xB49 JUMP JUMPDEST SWAP2 SWAP1 POP JUMP JUMPDEST PUSH1 0x0 PUSH8 0xFFFFFFFFFFFFFFFF DUP3 GT ISZERO PUSH2 0xBB0 JUMPI PUSH2 0xBAF PUSH2 0xB1A JUMP JUMPDEST JUMPDEST PUSH2 0xBB9 DUP3 PUSH2 0xA6C JUMP JUMPDEST SWAP1 POP PUSH1 0x20 DUP2 ADD SWAP1 POP SWAP2 SWAP1 POP JUMP JUMPDEST DUP3 DUP2 DUP4 CALLDATACOPY PUSH1 0x0 DUP4 DUP4 ADD MSTORE POP POP POP JUMP JUMPDEST PUSH1 0x0 PUSH2 0xBE8 PUSH2 0xBE3 DUP5 PUSH2 0xB95 JUMP JUMPDEST PUSH2 0xB7A JUMP JUMPDEST SWAP1 POP DUP3 DUP2 MSTORE PUSH1 0x20 DUP2 ADD DUP5 DUP5 DUP5 ADD GT ISZERO PUSH2 0xC04 JUMPI PUSH2 0xC03 PUSH2 0xB15 JUMP JUMPDEST JUMPDEST PUSH2 0xC0F DUP5 DUP3 DUP6 PUSH2 0xBC6 JUMP JUMPDEST POP SWAP4 SWAP3 POP POP POP JUMP JUMPDEST PUSH1 0x0 DUP3 PUSH1 0x1F DUP4 ADD SLT PUSH2 0xC2C JUMPI PUSH2 0xC2B PUSH2 0xB10 JUMP JUMPDEST JUMPDEST DUP2 CALLDATALOAD PUSH2 0xC3C DUP5 DUP3 PUSH1 0x20 DUP7 ADD PUSH2 0xBD5 JUMP JUMPDEST SWAP2 POP POP SWAP3 SWAP2 POP POP JUMP JUMPDEST PUSH1 0x0 DUP1 PUSH1 0x0 PUSH1 0x60 DUP5 DUP7 SUB SLT ISZERO PUSH2 0xC5E JUMPI PUSH2 0xC5D PUSH2 0x89B JUMP JUMPDEST JUMPDEST PUSH1 0x0 DUP5 ADD CALLDATALOAD PUSH8 0xFFFFFFFFFFFFFFFF DUP2 GT ISZERO PUSH2 0xC7C JUMPI PUSH2 0xC7B PUSH2 0x8A0 JUMP JUMPDEST JUMPDEST PUSH2 0xC88 DUP7 DUP3 DUP8 ADD PUSH2 0xC17 JUMP JUMPDEST SWAP4 POP POP PUSH1 0x20 PUSH2 0xC99 DUP7 DUP3 DUP8 ADD PUSH2 0x8C6 JUMP JUMPDEST SWAP3 POP POP PUSH1 0x40 PUSH2 0xCAA DUP7 DUP3 DUP8 ADD PUSH2 0x951 JUMP JUMPDEST SWAP2 POP POP SWAP3 POP SWAP3 POP SWAP3 JUMP JUMPDEST PUSH32 0x4E487B7100000000000000000000000000000000000000000000000000000000 PUSH1 0x0 MSTORE PUSH1 0x1 PUSH1 0x4 MSTORE PUSH1 0x24 PUSH1 0x0 REVERT JUMPDEST PUSH32 0x4E487B7100000000000000000000000000000000000000000000000000000000 PUSH1 0x0 MSTORE PUSH1 0x32 PUSH1 0x4 MSTORE PUSH1 0x24 PUSH1 0x0 REVERT JUMPDEST PUSH32 0x4E487B7100000000000000000000000000000000000000000000000000000000 PUSH1 0x0 MSTORE PUSH1 0x11 PUSH1 0x4 MSTORE PUSH1 0x24 PUSH1 0x0 REVERT JUMPDEST PUSH1 0x0 PUSH2 0xD4C DUP3 PUSH2 0x8A5 JUMP JUMPDEST SWAP2 POP PUSH32 0xFFFFFFFFFFFFFFFFFFFFFFFFFFFFFFFFFFFFFFFFFFFFFFFFFFFFFFFFFFFFFFFF DUP3 SUB PUSH2 0xD7E JUMPI PUSH2 0xD7D PUSH2 0xD12 JUMP JUMPDEST JUMPDEST PUSH1 0x1 DUP3 ADD SWAP1 POP SWAP2 SWAP1 POP JUMP JUMPDEST PUSH32 0x4E487B7100000000000000000000000000000000000000000000000000000000 PUSH1 0x0 MSTORE PUSH1 0x22 PUSH1 0x4 MSTORE PUSH1 0x24 PUSH1 0x0 REVERT JUMPDEST PUSH1 0x0 PUSH1 0x2 DUP3 DIV SWAP1 POP PUSH1 0x1 DUP3 AND DUP1 PUSH2 0xDD0 JUMPI PUSH1 0x7F DUP3 AND SWAP2 POP JUMPDEST PUSH1 0x20 DUP3 LT DUP2 SUB PUSH2 0xDE3 JUMPI PUSH2 0xDE2 PUSH2 0xD89 JUMP JUMPDEST JUMPDEST POP SWAP2 SWAP1 POP JUMP JUMPDEST PUSH1 0x0 DUP2 SWAP1 POP DUP2 PUSH1 0x0 MSTORE PUSH1 0x20 PUSH1 0x0 KECCAK256 SWAP1 POP SWAP2 SWAP1 POP JUMP JUMPDEST PUSH1 0x0 PUSH1 0x20 PUSH1 0x1F DUP4 ADD DIV SWAP1 POP SWAP2 SWAP1 POP JUMP JUMPDEST PUSH1 0x0 DUP3 DUP3 SHL SWAP1 POP SWAP3 SWAP2 POP POP JUMP JUMPDEST PUSH1 0x0 PUSH1 0x8 DUP4 MUL PUSH2 0xE4B PUSH32 0xFFFFFFFFFFFFFFFFFFFFFFFFFFFFFFFFFFFFFFFFFFFFFFFFFFFFFFFFFFFFFFFF DUP3 PUSH2 0xE0E JUMP JUMPDEST PUSH2 0xE55 DUP7 DUP4 PUSH2 0xE0E JUMP JUMPDEST SWAP6 POP DUP1 NOT DUP5 AND SWAP4 POP DUP1 DUP7 AND DUP5 OR SWAP3 POP POP POP SWAP4 SWAP3 POP POP POP JUMP JUMPDEST PUSH1 0x0 DUP2 SWAP1 POP SWAP2 SWAP1 POP JUMP JUMPDEST PUSH1 0x0 PUSH2 0xE92 PUSH2 0xE8D PUSH2 0xE88 DUP5 PUSH2 0x8A5 JUMP JUMPDEST PUSH2 0xE6D JUMP JUMPDEST PUSH2 0x8A5 JUMP JUMPDEST SWAP1 POP SWAP2 SWAP1 POP JUMP JUMPDEST PUSH1 0x0 DUP2 SWAP1 POP SWAP2 SWAP1 POP JUMP JUMPDEST PUSH2 0xEAC DUP4 PUSH2 0xE77 JUMP JUMPDEST PUSH2 0xEC0 PUSH2 0xEB8 DUP3 PUSH2 0xE99 JUMP JUMPDEST DUP5 DUP5 SLOAD PUSH2 0xE1B JUMP JUMPDEST DUP3 SSTORE POP POP POP POP JUMP JUMPDEST PUSH1 0x0 SWAP1 JUMP JUMPDEST PUSH2 0xED5 PUSH2 0xEC8 JUMP JUMPDEST PUSH2 0xEE0 DUP2 DUP5 DUP5 PUSH2 0xEA3 JUMP JUMPDEST POP POP POP JUMP JUMPDEST JUMPDEST DUP2 DUP2 LT ISZERO PUSH2 0xF04 JUMPI PUSH2 0xEF9 PUSH1 0x0 DUP3 PUSH2 0xECD JUMP JUMPDEST PUSH1 0x1 DUP2 ADD SWAP1 POP PUSH2 0xEE6 JUMP JUMPDEST POP POP JUMP JUMPDEST PUSH1 0x1F DUP3 GT ISZERO PUSH2 0xF49 JUMPI PUSH2 0xF1A DUP2 PUSH2 0xDE9 JUMP JUMPDEST PUSH2 0xF23 DUP5 PUSH2 0xDFE JUMP JUMPDEST DUP2 ADD PUSH1 0x20 DUP6 LT ISZERO PUSH2 0xF32 JUMPI DUP2 SWAP1 POP JUMPDEST PUSH2 0xF46 PUSH2 0xF3E DUP6 PUSH2 0xDFE JUMP JUMPDEST DUP4 ADD DUP3 PUSH2 0xEE5 JUMP JUMPDEST POP POP JUMPDEST POP POP POP JUMP JUMPDEST PUSH1 0x0 DUP3 DUP3 SHR SWAP1 POP SWAP3 SWAP2 POP POP JUMP JUMPDEST PUSH1 0x0 PUSH2 0xF6C PUSH1 0x0 NOT DUP5 PUSH1 0x8 MUL PUSH2 0xF4E JUMP JUMPDEST NOT DUP1 DUP4 AND SWAP2 POP POP SWAP3 SWAP2 POP POP JUMP JUMPDEST PUSH1 0x0 PUSH2 0xF85 DUP4 DUP4 PUSH2 0xF5B JUMP JUMPDEST SWAP2 POP DUP3 PUSH1 0x2 MUL DUP3 OR SWAP1 POP SWAP3 SWAP2 POP POP JUMP JUMPDEST PUSH2 0xF9E DUP3 PUSH2 0xA1D JUMP JUMPDEST PUSH8 0xFFFFFFFFFFFFFFFF DUP2 GT ISZERO PUSH2 0xFB7 JUMPI PUSH2 0xFB6 PUSH2 0xB1A JUMP JUMPDEST JUMPDEST PUSH2 0xFC1 DUP3 SLOAD PUSH2 0xDB8 JUMP JUMPDEST PUSH2 0xFCC DUP3 DUP3 DUP6 PUSH2 0xF08 JUMP JUMPDEST PUSH1 0x0 PUSH1 0x20 SWAP1 POP PUSH1 0x1F DUP4 GT PUSH1 0x1 DUP2 EQ PUSH2 0xFFF JUMPI PUSH1 0x0 DUP5 ISZERO PUSH2 0xFED JUMPI DUP3 DUP8 ADD MLOAD SWAP1 POP JUMPDEST PUSH2 0xFF7 DUP6 DUP3 PUSH2 0xF79 JUMP JUMPDEST DUP7 SSTORE POP PUSH2 0x105F JUMP JUMPDEST PUSH1 0x1F NOT DUP5 AND PUSH2 0x100D DUP7 PUSH2 0xDE9 JUMP JUMPDEST PUSH1 0x0 JUMPDEST DUP3 DUP2 LT ISZERO PUSH2 0x1035 JUMPI DUP5 DUP10 ADD MLOAD DUP3 SSTORE PUSH1 0x1 DUP3 ADD SWAP2 POP PUSH1 0x20 DUP6 ADD SWAP5 POP PUSH1 0x20 DUP2 ADD SWAP1 POP PUSH2 0x1010 JUMP JUMPDEST DUP7 DUP4 LT ISZERO PUSH2 0x1052 JUMPI DUP5 DUP10 ADD MLOAD PUSH2 0x104E PUSH1 0x1F DUP10 AND DUP3 PUSH2 0xF5B JUMP JUMPDEST DUP4 SSTORE POP JUMPDEST PUSH1 0x1 PUSH1 0x2 DUP9 MUL ADD DUP9 SSTORE POP POP POP JUMPDEST POP POP POP POP POP POP JUMP JUMPDEST PUSH32 0x4E487B7100000000000000000000000000000000000000000000000000000000 PUSH1 0x0 MSTORE PUSH1 0x12 PUSH1 0x4 MSTORE PUSH1 0x24 PUSH1 0x0 REVERT JUMPDEST PUSH1 0x0 PUSH2 0x10A1 DUP3 PUSH2 0x8A5 JUMP JUMPDEST SWAP2 POP PUSH2 0x10AC DUP4 PUSH2 0x8A5 JUMP JUMPDEST SWAP3 POP DUP3 PUSH2 0x10BC JUMPI PUSH2 0x10BB PUSH2 0x1067 JUMP JUMPDEST JUMPDEST DUP3 DUP3 DIV SWAP1 POP SWAP3 SWAP2 POP POP JUMP INVALID LOG2 PUSH5 0x6970667358 0x22 SLT KECCAK256 0xE7 0x4C 0xE6 0xE1 0x5C 0xE NUMBER DIFFICULTY DUP2 0xB0 0xC7 EXTCODESIZE PUSH10 0xFBCD6361D16055E56B9D DUP14 EXTCODESIZE LOG2 XOR 0xF 0xCF CHAINID SSTORE XOR PUSH5 0x736F6C6343 STOP ADDMOD 0xF STOP CALLER LOG2 PUSH5 0x6970667358 0x22 SLT KECCAK256 SWAP11 MSIZE 0xE8 RETURNDATACOPY BLOCKHASH DUP5 NUMBER PUSH16 0x1F6876CC9E4420FB7FE33EF593176FC1 PUSH7 0xDCA6A1FE955E2C PUSH5 0x736F6C6343 STOP ADDMOD 0xF STOP CALLER "},"gasEstimates":{"creation":{"codeDepositCost":"1164000","executionCost":"1207","totalCost":"1165207"},"external":{"create_campaign(uint256)":"infinite","deployedcampaigns(uint256)":"4978","getdeployedcampaign()":"infinite"}},"methodIdentifiers":{"create_campaign(uint256)":"35c3109a","deployedcampaigns(uint256)":"e9217db2","getdeployedcampaign()":"6268503d"}},"storageLayout":{"storage":[{"astId":4,"contract":"Campaign.sol:CampaignFactory","label":"deployedcampaigns","offset":0,"slot":"0","type":"t_array(t_address)dyn_storage"}],"types":{"t_address":{"encoding":"inplace","label":"address","numberOfBytes":"20"},"t_array(t_address)dyn_storage":{"base":"t_address","encoding":"dynamic_array","label":"address[]","numberOfBytes":"32"}}},"userdoc":{"kind":"user","methods":{},"version":1}}